:020000040800F2
:10000000002800209D1800080D1300080F13000899
:100010001113000813130008151300080000000056
:10002000000000000000000000000000171300089E
:1000300019130008000000001B1300081D1300081E
:10004000E5180008E5180008E5180008E51800089C
:10005000E5180008E5180008E5180008E51800088C
:10006000E5180008E5180008E5180008E51800087C
:10007000E5180008E5180008E5180008E51800086C
:10008000E5180008E5180008E5180008E51800085C
:10009000E5180008E5180008E5180008E51800084C
:1000A00000000000E5180008D50D0008E51800085C
:1000B000E5180008E5180008E5180008E51800082C
:1000C000E5180008E5180008E5180008E51800081C
:1000D000E518000821130008E5180008E5180008D5
:1000E000E5180008E5180008E5180008010E0008EA
:1000F000E5180008000000000000000000000000FB
:1001000000000000000000000000000000000000EF
:1001100000000000000000000000000000000000DF
:1001200000000000000000000000000000000000CF
:0C01300000000000000000005FF808F173
:10013C0010B5054C237833B9044B13B10448AFF315
:10014C0000800123237010BD70000020000000000F
:10015C006422000808B5034B1BB103490348AFF3F5
:10016C00008008BD0000000074000020642200081C
:10017C008388C288934205D20089184480B2801AC1
:10018C0080B27047981A80B2704708B50021818000
:10019C00C1800289006801F0CBFB08BD10B5044694
:1001AC0002810160FFF7F1FF2068003818BF0120C1
:1001BC0010BD0268838803F1010CA0F804C0D1546F
:1001CC00828803899A4201D30023838070470346B7
:1001DC000068D9884A1C92B2DA80405C19898A423C
:1001EC0001D30022DA807047094B4FF480329A61B8
:1001FC004FF400329A614FF480229A614FF400223E
:10020C009A614FF480129A614FF400129A61704710
:10021C000000024010B50446FFF7E6FF052C07D896
:10022C00DFE804F003070B0F13170C4B01229A6144
:10023C0010BD0A4B02229A61FAE7084B04229A611C
:10024C00F6E7064B08229A61F2E7044B10229A61FA
:10025C00EEE7024B20229A61EAE700BF0000024061
:10026C000C4B4FF400329A614FF480329A614FF488
:10027C0000229A614FF480129A614FF400129A6135
:10028C004FF080729A614FF000729A614FF00052F9
:10029C009A61704700040240074B02229A610122C6
:1002AC009A6108229A6110229A6120229A614FF475
:1002BC0080729A61704700BF00040240024B012219
:1002CC009A6108229A61704700040240064B022290
:1002DC009A6101229A614FF400729A6120229A610C
:1002EC0010229A61704700BF00040240064B0222A4
:1002FC009A6101229A614FF400729A6108229A6104
:10030C0010229A61704700BF00040240054B012285
:10031C009A6108229A614FF480729A614FF40072CC
:10032C009A61704700040240064B02229A614FF416
:10033C0080729A614FF400729A6108229A611022BD
:10034C009A61704700040240074B02229A6108220E
:10035C009A6110229A6120229A614FF480729A61FC
:10036C004FF400729A61704700040240034B022262
:10037C009A6101229A6108229A6170470004024036
:10038C00084B02229A6101229A6108229A6110227A
:10039C009A6120229A614FF480729A614FF4007234
:1003AC009A61704700040240074B02229A610122B5
:1003BC009A6108229A6110229A614FF480729A61B4
:1003CC004FF400729A6170470004024010B5044665
:1003DC00FFF746FF092C08D8DFE804F005080B0EE0
:1003EC001114171A1D20FFF757FF10BDFFF766FFFA
:1003FC00FBE7FFF76BFFF8E7FFF778FFF5E7FFF791
:10040C0085FFF2E7FFF790FFEFE7FFF79DFFECE7C3
:10041C00FFF7ACFFE9E7FFF7B3FFE6E7FFF7C4FF31
:10042C00E3E7030903EB830300F00F0000EB430049
:10043C00C0B270472DE9F041084616461C461946D5
:10044C0000F020FB074678B1002114E0A04618F814
:10045C00010BFFF7E6FF20700135EDB24446B542C3
:10046C00F4D33846BDE8F0810546F8E7002304F8DC
:10047C00013B0131C9B2B142F8D3F2E702F1FF3CC2
:10048C004FFA8CFCBCF1000F1EDB10B511F80C20E0
:10049C000E4BA3FB02E2D208303286460EF8022B3A
:1004AC0011F80C20A3FB0243DB0803EB8303A2EB44
:1004BC004303303343700CF1FF3C4FFA8CFC704615
:1004CC00BCF1000FE2DA10BD704700BFCDCCCCCC34
:1004DC0010B5294B1A6842F004021A601A6842F0EF
:1004EC0001021A60244B1B6813F0010FFAD0234A47
:1004FC00136823F4C05343F4006313601F4B5B6811
:10050C0013F0100FFAD11E4A136843F480331360B2
:10051C001B4B1B6813F4003FFAD0194A936823F461
:10052C007D0343F411039360136843F080731360ED
:10053C00134B1B6813F0007FFAD0114B9A6822F012
:10054C00F0029A609A6822F4E0629A609A6822F447
:10055C0060529A609A6842F003029A60084B9B685A
:10056C0003F00C030C2BF9D1064C204600F066FF6F
:10057C00204600F073FF10BD003C024000700040AC
:10058C00003802400048E80110B584B0424B5A6A6A
:10059C0042F000425A625A6A02F000420392039AF5
:1005AC001A6A42F001021A621A6A02F001020292FD
:1005BC00029A5A6A42F080525A625B6A03F0805384
:1005CC000193019B354BD96821F4E0610904090CB6
:1005DC00334A0A43DA60DB68C3F30223C3F1070131
:1005EC00042928BF04211A1D062A28D9DA1E4FF027
:1005FC00FF338B40DB4303F00F0393401B01DBB253
:10060C00264A82F82330FFF763FF00F05DF800F014
:10061C00C9F900F093FB00F07BFC00F041FC214C8D
:10062C00234603220021D020FFF704FF032221469A
:10063C00A01DFFF723FF00F023FD00241AE0002289
:10064C00D5E7184B00221A74164B187CFFF7BEFE28
:10065C0000F038FD032C1BD84FF4FA7000F09CFB13
:10066C0000F030FDFFF7FCFD4FF4FA7000F094FB46
:10067C000134E4B2052CE0D82046FFF7CBFD094B42
:10068C0023449B792F2BDCD9303B064A1374DBE7D0
:10069C00FA2000F081FBE3E70038024000ED00E0B7
:1006AC000003FA058C00002010B5064C23460322EB
:1006BC000021D020FFF7BEFE03222146A01DFFF72C
:1006CC00DDFE10BD8C0000202DE9F04F8BB0002416
:1006DC00049405940694079408940994784BDA6969
:1006EC0042F02002DA61DA6902F020020392039AE6
:1006FC00DA6942F00102DA61DA6902F0010202926F
:10070C00029ADA6942F00202DA61DB6903F0020351
:10071C000193019B6B4F4FF47C13BB616A4E6B4B87
:10072C00B36101250495059504A9384600F09CFE9B
:10073C004FF0020BCDF810B0059506940794089471
:10074C0004A9384600F090FE042304930595069402
:10075C000794089404A9384600F086FE4FF0080A66
:10076C00CDF810A0059506940794089404A9384672
:10077C0000F07AFE4FF01009CDF810900595069414
:10078C00079408940DEB0901384600F06DFE4FF00C
:10079C002008CDF8108005950694079408940DEB6D
:1007AC000901384600F060FE0495059506940794FF
:1007BC0008940DEB0901304600F056FECDF810B050
:1007CC0005950694079408940DEB0901304600F04A
:1007DC004BFE4FF48063049305950694079408949C
:1007EC000DEB0901304600F03FFE4FF480530493AB
:1007FC0005950694079408940DEB0901304600F01A
:10080C0033FE4FF400530493059506940794089413
:10081C000DEB0901304600F027FE4FF480430493A2
:10082C00059408940DEB0901304600F01DFE4FF4C1
:10083C000043049305950694079408940DEB090165
:10084C00304600F011FECDF810A0059506940794E3
:10085C0008940DEB0901304600F006FECDF810901F
:10086C0005950694079408940DEB0901304600F0A9
:10087C00FBFDCDF8108005950694079408940DEBBC
:10088C000901304600F0F0FD4FF480730493059598
:10089C000694079408940DEB0901304600F0E4FD32
:1008AC004FF40073049305950694079408940DEB8C
:1008BC000901304600F0D8FD0BB0BDE8F08F00BF49
:1008CC0000380240000002400004024000003BB728
:1008DC0030B583B00546314B9B6903F00203002B06
:1008EC0014BF0120002001D003B030BD0C462B4BAF
:1008FC001A6822F400621A601A6842F480621A6064
:10090C001A6842F480721A6000F068F9241841F1F8
:10091C000001234B1C605960204B5B6913F0010FE5
:10092C0008D11F4BD3E9000100F0DCFA0128F3D108
:10093C000220D9E7194A5369136923F0FF0343F0E6
:10094C00D0031361154B5B6913F0020F08D1144BE4
:10095C00D3E9000100F0C6FA0128F3D10220C3E765
:10096C000E4B5A690192019A9A690192019A9A69FD
:10097C00EDB21A6922F0FF0215431D61074B5B694A
:10098C0013F0800F08D1064BD3E9000100F0AAFA4E
:10099C000128F3D10220A7E70020A5E7005400406E
:1009AC00A80000202DE9F0478EB00024089409948B
:1009BC000A940B940C940D9402940394049405944F
:1009CC00069407942C4DEB6943F00203EB61EB6941
:1009DC0003F002030193019B402302934FF0020AA0
:1009EC00CDF80CA04FF00309CDF810904FF0010892
:1009FC00CDF8148004270797204E02A9304600F04A
:100A0C0033FD80230293CDF80CA0CDF81090CDF8D7
:100A1C0014800694079702A9304600F025FD6B6AF6
:100A2C0043F400136B626B6A03F400130093009B96
:100A3C00A5F5F2352B6823F080032B60EB6823F0CF
:100A4C00FE03EB6008940E4B09930A940B944FF43D
:100A5C0080630C934FF480430D9308A9284600F053
:100A6C00ABFDEB6823F00103EB602B6823F0400334
:100A7C002B600EB0BDE8F087003802400004024045
:100A8C00801A0600F0B583B00D4614466421FFF7BA
:100A9C001FFF064610B1304603B0F0BD364A13684E
:100AAC0043F48073136000F099F8643041F1000155
:100ABC00324B18605960304B5B6913F0010F08D151
:100ACC002E4BD3E9000100F00DFA0128F3D10226D8
:100ADC00E1E7294A5369136923F0FF0343F0D1037B
:100AEC001361254B5B6913F0020F08D1234BD3E93B
:100AFC00000100F0F7F90128F3D10226CBE71E4BD9
:100B0C005A690192019A9B690193019B0027A742A4
:100B1C00C1D2631E9F4216DB174B1A6822F4806207
:100B2C001A601A6842F400721A60134B5B6913F076
:100B3C00400F1CD1114BD3E9000100F0D3F901286F
:100B4C00F3D10226A7E70C4B5B6913F0400F08D1D9
:100B5C000A4BD3E9000100F0C5F90128F3D10226B4
:100B6C0099E7054B1B69EB550137BFB2CFE7024B39
:100B7C001B69EB55F8E700BF00540040A0000020B3
:100B8C0038B5054600240CE0134B03EB041300228C
:100B9C001A72114B03EB0013DB68013098470134D8
:100BAC00A4B2012C17D820460B4B03EB04131B7A71
:100BBC00012BF4D12301084AD358AB42EFD802EBF6
:100BCC0004135B7A002BDFD0210102EB04135B686A
:100BDC002B445350DDE738BDCC000020014BD3E94A
:100BEC0000017047B800002030B587B00025029591
:100BFC00039504950595284B1A6A42F008021A626F
:100C0C001B6A03F008030193019B47F6FF43ADF801
:100C1C00083040F2E7330493204C02A9204600F040
:100C2C004DFD236823F080032360636823F0700379
:100C3C006360A36823F08003A3606FF0010323615A
:100C4C00E36843F00103E3606562154BDA68C2F3B5
:100C5C000222C2F10703042B28BF04231946131DDB
:100C6C00062B16D9033A4FF0FF338B40DB4303F0CE
:100C7C00020393401B01DBB20A4A82F81A334FF08D
:100C8C0080631360054A136843F00103136007B0D7
:100C9C0030BD0022E7E700BF00380240000C0140E5
:100CAC0000ED00E000E100E008B5FFF7FDFC08BD39
:100CBC0030B587B0002502950395049505951B4B1F
:100CCC005A6A42F010025A625B6A03F010030193F5
:100CDC00019B1F23ADF8083040F2E7330493144C0A
:100CEC0002A9204600F0EAFC236823F0800323606D
:100CFC00636823F070036360A36823F08003A36030
:100D0C006FF001032361E36843F00103E360656264
:100D1C00084BDB68084B83F82B534FF400625A6086
:100D2C00236843F00103236007B030BD0038024054
:100D3C000010004000ED00E000E100E010B586B0CE
:100D4C0000230293039304930593114B5A6A42F0C8
:100D5C0020025A625B6A03F020030193019B1F235C
:100D6C00ADF808304FF47A7304930A4C02A920466C
:100D7C0000F0A4FC236823F080032360636823F055
:100D8C0070036360A36823F08003A36006B010BDFA
:100D9C0000380240001400400A4BD8626FF0010288
:100DAC001A6100225A621A6842F001021A60054B5D
:100DBC001B6913F0010FFAD0024A136823F00103E8
:100DCC001360704700140040084B1B6913F0010FAF
:100DDC000AD0064B6FF001021A611A6822F0010268
:100DEC001A60034B00221A70704700BF000C0140C0
:100DFC00C000002038B50D4B1B6913F0010F14D047
:100E0C000A496FF001030B610948D0E90023541C17
:100E1C0043F10005C0E900450B6843F001030B608A
:100E2C00044B1B680BB103C8984738BD0010004039
:100E3C00B8000020B000002070B506464FF0000C42
:100E4C00BCF1010F25D86546134C04EB0C1EDEF8E3
:100E5C000C4024B10CF1010C1FFA8CFCF0E7CEF81D
:100E6C0004608EF80910CEF80C2063B10B4B1B6894
:100E7C0098470644084A2B0102EB0511D650012372
:100E8C000B72681C06E0044B03EB0C1300221A7265
:100E9C00F7E7002070BD00BFCC000020C800002088
:100EAC0008B5FFF7A1FEFFF703FF084B084A1A60CD
:100EBC00084B094A1A600123084A19464FF47A7004
:100ECC00FFF7BAFF064B186008BD00BFB00000204A
:100EDC008D0B0008C8000020E90B0008B50C0008B9
:100EEC00C4000020044BD3E9002382428B4101D281
:100EFC000020704701207047B8000020024600789F
:100F0C0000E0584012F8013F2A2BFAD1704700003C
:100F1C002DE9F04190B0002409940A940B940C94A0
:100F2C000D940E940F9403940494059406940794D2
:100F3C0008943C4B1A6A42F480421A621A6A02F410
:100F4C0080420292029ADA6942F00102DA61DB69AC
:100F5C0003F001030193019B4FF4007303934FF0D3
:100F6C000208CDF8108003270597072608962E4D0A
:100F7C0003A9284600F078FA4FF480630393CDF868
:100F8C001080059706940794089603A9284600F04C
:100F9C006BFA264BDB68264B83F8254320225A60DC
:100FAC004FF4E13309930A940B940C940C230D9396
:100FBC000E940F9409A91F4800F0B6FB1E4A52E884
:100FCC00003F23F4806342E800310029F6D1194B2D
:100FDC001A6922F490421A615A6922F02A025A6163
:100FEC00DA6842F40052DA60DA6822F40052DA600D
:100FFC006FF020021A60114A52E8003F43F02003C0
:10100C0042E800310029F6D10C3AD36843F400537E
:10101C00D36032220A490B48FFF7C0F810B0BDE884
:10102C00F08100BF003802400000024000ED00E0FB
:10103C0000E100E000380140143801400C38014058
:10104C004C0100202001002006E0064B1B6813F029
:10105C00400FFAD0034B5A6010F8012B002AF4D140
:10106C00704700BF0038014008B5034B5968C9B23E
:10107C000248FFF79EF808BD00380140200100200F
:10108C000D4B01221A700D4A9A610D4B1A682421DE
:10109C0011701A68502151701A68442191701A68A5
:1010AC005421D1701B682C221A71312159719A71FB
:1010BC002A22DA73704700BF2C0100202001002087
:1010CC00040000202DE9F0418AB0854B9869FFF7A8
:1010DC004FF810B90AB0BDE8F081814CA069FFF758
:1010EC0076F82378013B082BF4D8DFE803F0050EE3
:1010FC001B2835424F5C79007A4B1B681B78834266
:10110C00E8D1774B02221A70E4E7764B1B685B78C8
:10111C00834203D0724B01221A70DBE7704B03221F
:10112C001A70D7E76F4B1B689B78834203D06C4BCC
:10113C0001221A70CEE76A4B04221A70CAE7694B77
:10114C001B68DB78834203D0654B01221A70C1E720
:10115C00634B05221A70BDE7624B1B681B798342F7
:10116C0003D05F4B01221A70B4E75D4B06221A7054
:10117C00B0E75C4B1B685B79834203D0584B012270
:10118C001A70A7E7564B07221A70A3E7554B1B683A
:10119C009B79834203D0524B01221A709AE7504B31
:1011AC0008221A7096E7504B1B78072B07D8DA1DCC
:1011BC004C490968885401334B4A13708AE74A4BEF
:1011CC0000221A70474B1B68DB7B834282D1444B55
:1011DC0009221A7000221A75444B10221A7079E7F2
:1011EC00414B1B78012B28D803F110023D490968AB
:1011FC008854A0F13002D2B2092A0FD838493B48A2
:10120C00007800FB02F2087D02430A750133364A6E
:10121C001370364A13781B0913705BE7A0F1410277
:10122C00D2B2052AF2D82E493738304A127802FB4E
:10123C0000F00A7D02430A75E8E72A4B1C68601C23
:10124C00FFF75CFE0346264A127D824238D0217C91
:10125C00607C274C029201900091264A3221204654
:10126C0000F0F0FD2046FFF7EFFE1F4B00221A7036
:10127C001B4B01221A701B4B1A68D379117A507AC6
:10128C00957AD67A177B92F80DC092F80EE092F808
:10129C001080527C164C0892CDF81C80CDF818E0CA
:1012AC00CDF814C004970396029501900091124A50
:1012BC003221204600F0C6FD2046FFF7C5FE09E7A7
:1012CC00217C607C0A4C0292019000910B4A3221E5
:1012DC00204600F0B7FD2046FFF7B6FEC5E700BF7D
:1012EC002C010020040000204801002000000020F8
:1012FC00EC0000209C220008C02200087C22000880
:10130C00FEE7FEE7FEE7FEE7FEE770477047704733
:10131C007047000008B5064B1B6813F0200F00D176
:10132C0008BD034B6FF020021A60FFF79DFEF7E734
:10133C0000380140034B9B68C3F30313024AD35C90
:10134C00D840704700380240E4220008034B9B68E9
:10135C00C3F30223024AD35CD840704700380240E2
:10136C00F4220008034B9B68C3F3C223024AD35CEC
:10137C00D840704700380240F42200080B4B9B68A1
:10138C0003F480337BB90A49084A9368C3F3834357
:10139C000848C05C01FB00F09368C3F38153013330
:1013AC00B0FBF3F070470449EEE700BF0038024091
:1013BC000024F400FC22000800127A0008B5144B3B
:1013CC009B6803F00C030C2B16D8DFE803F009150F
:1013DC001515071515151E15151512000D4807E0E6
:1013EC000B4B5868C0F34230431C4FF400409840FC
:1013FC0008BDFFF7C3FFFBE7054B5868C0F342304D
:10140C00431C4FF400409840F2E70348F0E700BF5C
:10141C00003802400024F40000127A0010B5044693
:10142C00FFF7CCFF2060FFF785FF6060FFF78EFFB2
:10143C00A0606068FFF796FFE06010BD064BA3FB51
:10144C0000239B09013B4FF0E02253610023936181
:10145C0005231361704700BFD34D6210014B186018
:10146C00704700BF080000200B6893FAA3F3B3FA8F
:10147C0083FC56E08D68826893FAA3F4B4FA84F482
:10148C0064004FF0030E0EFA04F422EA040293FAFD
:10149C00A3F4B4FA84F4640005FA04F422438260E1
:1014AC00CC68426822EA030203FB04F42243426044
:1014BC0045E093FAA3F2B2FA82F2072A15D84D69E5
:1014CC00026A93FAA3F4B4FA84F4A4000F2606FA81
:1014DC0004F422EA040293FAA3F4B4FA84F4A40008
:1014EC0005FA04F42243026241E04C69456A1A0A87
:1014FC0092FAA2FEBEFA8EFE4FEA8E0E0F2606FA66
:10150C000EFE25EA0E0592FAA2F2B2FA82F29200CF
:10151C0004FA02F22A43426229E0002070BD0CF169
:10152C00010C0B6833FA0CF244D0012202FA0CF2D3
:10153C001340F4D070B54A68013A012A9AD9C268AE
:10154C0093FAA3F4B4FA84F46400032505FA04F4C2
:10155C0022EA040293FAA3F4B4FA84F464000D6949
:10156C0005FA04F42243C2604A68022AA1D04A68F0
:10157C00046893FAA3FEBEFA8EFE4FEA4E0E0325C4
:10158C0005FA0EFE24EA0E0E93FAA3F3B3FA83F3D4
:10159C005B0002FA03F34EEA030303600CF1010C47
:1015AC000B6833FA0CF2B8D0012202FA0CF2134099
:1015BC00F4D0C0E700207047F0B585B004460D4666
:1015CC00036823F0010303606846FFF727FF029AC4
:1015DC006B68AE683648A0FB021C4FEA9C41606801
:1015EC0020F03F0040EA9C406060206A20F03F0001
:1015FC00304FBB4237D80131014321622D498B4218
:10160C004DD9002E39D103EB4303B2FBF3F2C2F3F5
:10161C000B03002B3DD042F4004246EA0203E26980
:10162C0022F44F4222F0FF021A43E261EA68696930
:10163C00A36823F4034323F0FF030A431343A3607B
:10164C002B68226822F01A0213432360236843F0AC
:10165C00010323602B69226822F480621343236008
:10166C00002005B0F0BD4FF4967707FB01F1124F47
:10167C00A7FB017189090131BEE703EB830303EB7F
:10168C008303B2FBF3F2C2F30B032BB142F400421F
:10169C00C3E748F20102C0E748F20102BDE75B0074
:1016AC00B2FBF3F340F6FC721342B8D10423B6E755
:1016BC0083DE1B43A0860100D34D62100368B0F19A
:1016CC00804F06D0174A904203D002F580629042B8
:1016DC0003D123F070034A681343B0F1804F12D04A
:1016EC00104A90420FD002F5806290420BD002F566
:1016FC008032904207D002F58062904203D002F50E
:10170C008062904203D123F44073CA681343036090
:10171C008B68C3620B888362436943F001034361A6
:10172C000020704700040040C36813F4005F01D030
:10173C000120704730B585B004460D46C36823F4CC
:10174C00164323F00C034A68C9680A4329690A4303
:10175C00A9690A431343C360AB68026922F440527F
:10176C00134303616B69426922F440721343436172
:10177C006846FFF753FE2F4B9C4208D02E4B9C42E1
:10178C000CD02E4B9C420BD0012005B030BD039BDE
:10179C00002B4DD02A682AB90120F6E7029BF7E707
:1017AC00029BF5E7A969B1F5004F20D003EB830349
:1017BC0003EB83039200B3FBF2F32148A0FB03215C
:1017CC0049090A0192B2642505FB11331B0132331E
:1017DC00A0FB0313C3F34F1303F0F0010A4492B2BE
:1017EC0003F00F0313449BB2A3600020CDE703EB7F
:1017FC00830303EB83035200B3FBF2F31048A0FB0B
:10180C00032149090A0192B2642505FB1133DB005F
:10181C003233A0FB0313C3F34F13590001F4F871D7
:10182C000A4492B203F0070313449BB2A360DCE7B3
:10183C000120AAE700380140004400400048004065
:10184C001F85EB517047000010B503460C4A0D493B
:10185C000D48006840B10C4800680344521A93428A
:10186C0006D8094A136010BD0748084C0460F2E71B
:10187C0000F034F80C2303604FF0FF30F3E700BFA7
:10188C0000280020000400008001002098010020A6
:10189C00FFF7D8FF0B480C490C4A002302E0D45840
:1018AC00C4500433C4188C42F9D3094A094C0023A0
:1018BC0001E013600432A242FBD300F015F8FEF7EE
:1018CC0063FE70470000002070000020A423000875
:1018DC007000002094010020FEE70000014B186806
:1018EC00704700BF0C00002070B500260C4D0D4C4D
:1018FC00641BA410A64209D100F0AEFC00260A4DD0
:10190C000A4C641BA410A64205D170BD55F8043BCB
:10191C0098470136EEE755F8043B98470136F2E755
:10192C009C2300089C2300089C230008A02300088B
:10193C0003460244934200D1704703F8011BF9E7B8
:10194C0038B50546002940D051F8043C0C1F002B3B
:10195C00B8BFE41800F0E2FA1C4A136833B96360AC
:10196C0014602846BDE8384000F0DEBAA34208D91E
:10197C00206821188B4201BF19685B680918216027
:10198C00EDE71A465B680BB1A342FAD911685018FF
:10199C00A0420BD120680144501883421160E0D161
:1019AC0018685B68014411605360DAE702D90C23B4
:1019BC002B60D6E7206821188B4201BF19685B6841
:1019CC000918216063605460CBE738BD84010020A6
:1019DC0070B50E4E0C463168054611B900F022FA6E
:1019EC0030602146284600F01DFA431C0AD0C41C66
:1019FC0024F00304A04207D0211A284600F012FA62
:101A0C00013001D14FF0FF34204670BD8801002019
:101A1C002DE9F041CD1C25F0030508350C2D38BF00
:101A2C000C25002D074601DBA94205D90C23002605
:101A3C003B603046BDE8F0812E4E00F06FFA336803
:101A4C001C4634BB29463846FFF7C2FF431C0446EC
:101A5C004DD134682646002E40D123683146384695
:101A6C0004EB030800F0DEF980453AD12168033518
:101A7C006D1A25F0030508350C2D38BF0C2538469A
:101A8C002946FFF7A5FF01302BD023682B44236098
:101A9C000EE02268521B1ED40B2A16D96119A342E0
:101AAC00256018BF5960636808BF316062514B6094
:101ABC00384604F10B0600F037FA26F00706231D12
:101ACC00F21AB6D09B1BA350B3E76268A3420CBFBB
:101ADC0032605A60ECE723466468B2E734467668B5
:101AEC00B9E70C2338463B6000F01EFAA1E72560ED
:101AFC00DEE700BF840100202DE9F0471646994629
:101B0C008A680B6907469342B8BF1346336091F855
:101B1C0043200C46DDF820800AB101333360236882
:101B2C00990642BF336802333360256815F0060509
:101B3C0006D104F1190AE36832689B1AAB4228DC1F
:101B4C0094F84320131E226818BF012392062DD44B
:101B5C004946384604F14302C047013020D023687F
:101B6C00E56803F00603042B18BF002532684FF01C
:101B7C000006A36808BFAD1A226908BF25EAE575FF
:101B8C009342C4BF9B1AED181A34B5421AD10020E7
:101B9C0008E00123524649463846C047013003D17C
:101BAC004FF0FF30BDE8F0870135C4E73020E11875
:101BBC0081F843005A1C94F845102244023382F8F1
:101BCC004310C5E70123224649463846C047013039
:101BDC00E6D00136D9E700002DE9FF470F7E91468C
:101BEC00782F80460C469A460C9D01F1430207D88B
:101BFC00622F0AD8002F00F0D980582F00F0A48053
:101C0C0004F1420584F842703AE0A7F16303152B06
:101C1C00F6D801A151F823F07D1C0008911C000896
:101C2C000D1C00080D1C00080D1C00080D1C0008E4
:101C3C00911C00080D1C00080D1C00080D1C000850
:101C4C000D1C00089F1D0008C11C0008811D000808
:101C5C000D1C00080D1C0008C11D00080D1C0008FF
:101C6C00C11C00080D1C00080D1C0008891D000873
:101C7C002B681A1D1B682A6004F1420584F8423057
:101C8C000123A4E020682968060601F104030AD5A3
:101C9C000E682B60002E03DA2D23764284F8433035
:101CAC000A235E4819E00E6810F0400F2B6018BF35
:101CBC0036B2EFE72B682068191D2960010601D5A3
:101CCC001E6802E04606FBD51E886F2F0CBF08234A
:101CDC000A235248002184F843106568002DA8BFE0
:101CEC002168A560A4BF21F0040121600EB9002D6C
:101CFC004DD01546B6FBF3F103FB1167C75D05F834
:101D0C00017D3746BB420E46F4D9082B0BD1236814
:101D1C00DE0708D5236961689942DEBF302305F8D8
:101D2C00013C05F1FF35521B22614B4621464046D2
:101D3C00CDF800A003AAFFF7DFFE01304CD14FF025
:101D4C00FF3004B0BDE8F087344881F8457029684D
:101D5C00236851F8046B29601D0614D5DF0744BFB6
:101D6C0043F0200323601EB9236823F02003236073
:101D7C001023AFE7236843F020032360782328481F
:101D8C0084F84530E3E7590648BFB6B2E6E7154696
:101D9C00BBE72B682668181D6169286035061B682F
:101DAC0001D5196002E07006FBD519800023154699
:101DBC002361BAE72B6800211A1D2A601D6862682E
:101DCC00284600F075F808B1401B60606368236119
:101DDC00002384F84330A8E72A4649464046236945
:101DEC00D0470130ABD023689B0713D4E068039B2A
:101DFC009842B8BF1846A4E70123324649464046EC
:101E0C00D04701309BD00135E36803995B1AAB4294
:101E1C00F2DCEBE7002504F11906F5E705230008D1
:101E2C001623000838B50023054D044608462B60E0
:101E3C00FFF70AFD431C02D12B6803B1236038BDA8
:101E4C00900100200CB430B5174B0C1E1D689DB0D2
:101E5C0008DA8B234FF0FF302B601DB0BDE830400B
:101E6C0002B070474FF40273ADF814300CBF234628
:101E7C0004F1FF33049307934FF6FF73029006901F
:101E8C00ADF81630284621AB209A02A9019300F038
:101E9C00DBF8431CBCBF8B232B60002CDDD0002255
:101EAC00029B1A70D9E700BF0C00002070477047E6
:101EBC00034610B5C9B202449342184601D1002022
:101ECC0003E0047801338C42F6D110BD0A449142F0
:101EDC0000F1FF3300D1704710B511F8014B91425E
:101EEC0003F8014FF9D110BD884210B501EB020483
:101EFC0002D98442234607D8431EA14208D011F8C8
:101F0C00012B03F8012FF8E7014602448A4200D165
:101F1C0010BD13F8014D02F8014DF7E70148FFF72A
:101F2C00C5BF00BF8C0100200148FFF7C0BF00BF38
:101F3C008C0100202DE9F041804614460E4621B953
:101F4C001146BDE8F041FFF763BD2AB9FFF7F8FC75
:101F5C0025462846BDE8F08100F076F98442074614
:101F6C0002D8B4EB500F12D821464046FFF750FD73
:101F7C0005460028EDD0BC422246314628BF3A46E1
:101F8C00FFF7A4FF31464046FFF7DAFCE1E73546A0
:101F9C00DFE72DE9F0478E6882469E420C4690465C
:101FAC001F4638D88A8912F4906F32D02568096997
:101FBC000133A5EB010965694B4405EB450505EBC0
:101FCC00D5756D109D4238BF1D46530531D5294638
:101FDC00FFF71EFD064650B90C234FF0FF30CAF830
:101FEC000030A38943F04003A381BDE8F0874A4643
:101FFC002169FFF76BFFA38923F4906343F08003FF
:10200C00A38126614E4426603E466561A5EB090519
:10201C00A560BE4200D93E46324641462068FFF7D5
:10202C0063FFA36800209B1BA360236833442360D9
:10203C00DBE72A46FFF77EFF06460028E1D1504633
:10204C002169FFF77DFCC7E72DE9F04F98468B8996
:10205C0007461B060D4614469DB00ED50B6963B999
:10206C004021FFF7D5FC2860286120B90C233B6088
:10207C004FF0FF30D1E040236B6100230993202304
:10208C008DF8293030234FF00109CDF80C80DFF8A2
:10209C00A4818DF82A3023469A4613F8012B0AB1F5
:1020AC00252AF9D1BAEB040B0BD05B462246294604
:1020BC003846FFF76EFF013000F0AA80099A5A44A7
:1020CC0009929AF80030002B00F0A28000234FF008
:1020DC00FF32CDE905230AF1010A049307938DF829
:1020EC0053301A935446052214F8011B5148FFF73C
:1020FC00DFFE049AD8B9D00644BF20238DF85330A4
:10210C00110744BF2B238DF853309AF800302A2B3B
:10211C0015D0544600204FF00A0C079A214611F8AE
:10212C00013B303B092B4ED9B0B1079214E0A0EB28
:10213C00080309FA03F31343A2460493D2E7039B63
:10214C00191D1B680391002BBBBF5B4242F00202BE
:10215C0007930793B8BF049223782E2B0CD1637886
:10216C002A2B35D1039B02341A1D1B680392002BBA
:10217C00B8BF4FF0FF330593DFF8BCA003225046E5
:10218C002178FFF795FE40B14023A0EB0A0003FA3B
:10219C0000F0049B01340343049314F8011B062242
:1021AC0026488DF82810FFF783FE002838D0244BE2
:1021BC001BBB039B073323F0070308330393099BD3
:1021CC003344099367E70C4601200CFB0232A5E768
:1021DC0000234FF00A0C194601340593204610F8E1
:1021EC00012B303A092A03D9002BC5D00591C3E73E
:1021FC00044601230CFB0121F0E703AB00932A46B4
:10220C003846104B04A9AFF30080421C0646D6D1C9
:10221C00AB895B063FF52CAF09981DB0BDE8F08F7C
:10222C0003AB00932A463846064B04A9FFF7D4FCAF
:10223C00EBE700BF882300088E23000892230008D8
:10224C00000000009F1F000851F8043C181F002BD1
:10225C00BCBF0B58C0187047F8B500BFF8BC08BC21
:10226C009E467047F8B500BFF8BC08BC9E46704748
:10227C00435243383D2578204F4B21206765743DF0
:10228C00256325632C206372633D25780D0A0000BD
:10229C00435243383D2578204552524F52212067F6
:1022AC0065743D256325632C206372633D25780D91
:1022BC000A0000006D73673D245044542C312C25CA
:1022CC006325632563256325632563256325632ABD
:1022DC00256325630D0A00000000000000000000CB
:1022EC0001020304060708090000000001020304B0
:1022FC00030406080C1018203030313233343536D4
:10230C003738394142434445460030313233343555
:10231C00363738396162636465660000000000007E
:10232C0000000000000000000000000000000000A1
:10233C000000000000000000000000000000000091
:10234C000000000000000000000000000000000081
:10235C000000000000000000000000000000000071
:10236C000000000000000000000000000000000061
:10237C00000000000000000000000000232D302BA6
:10238C002000686C4C0065666745464700000000FD
:04239C0061010008D3
:0423A0003D010008F3
:1023A400100000002E01002068FF1F001000002014
:1023B40000000000482300086823000828230008C0
:1023C4000000000000000000000000000000000009
:1023D40000000000000000000000000000000000F9
:1023E40000000000000000000000000000000000E9
:1023F40000000000000000000000000000000000D9
:1024040000000000000000000000000000000000C8
:040000050800189D3A
:00000001FF
