:020000040800F2
:1000000000280020ED280008E9220008EB22000863
:10001000ED220008EF220008F12200080000000095
:10002000000000000000000000000000F3220008B3
:10003000F522000800000000F7220008F92200085D
:100040003529000835290008352900083529000818
:100050003529000835290008352900083529000808
:1000600035290008352900083529000835290008F8
:1000700035290008352900083529000835290008E8
:1000800035290008352900083529000835290008D8
:1000900035290008352900083529000835290008C8
:1000A0000000000035290008591D00083529000806
:1000B00035290008352900083529000835290008A8
:1000C0003529000835290008352900083529000898
:1000D00035290008FD2200083529000835290008C7
:1000E000352900083529000835290008851D000834
:1000F000352900080000000000000000000000009A
:1001000000000000000000000000000000000000EF
:1001100000000000000000000000000000000000DF
:1001200000000000000000000000000000000000CF
:0C01300000000000000000005FF808F173
:10013C0010B5054C237833B9044B13B10448AFF315
:10014C0000800123237010BDD800002000000000A7
:10015C006051000808B5034B1BB103490348AFF3CA
:10016C00008008BD00000000DC0000206051000889
:10017C0010F8012B11F8013B012A28BF9A42F7D045
:10018C00D01A7047034613F8012B002AFBD1181A1A
:10019C00013870477BB972B90029BEBF00204FF0FF
:1001AC00004106E008BF00281CBF6FF000414FF073
:1001BC00FF3000F0A9B9ADF1080C6DE904CE0029AF
:1001CC0009DB002B1ADB00F035F8DDF804E0DDE983
:1001DC00022304B07047404261EB4101002B1BDB52
:1001EC0000F028F8DDF804E0DDE9022304B0404219
:1001FC0061EB4101524263EB43037047524263EBA4
:10020C00430300F017F8DDF804E0DDE9022304B045
:10021C00404261EB41017047524263EB430300F0F3
:10022C0009F8DDF804E0DDE9022304B0524263EB87
:10023C00430370472DE9F047089E0D460446884657
:10024C00002B4DD18A42944668D9B2FA82F252B14F
:10025C0001FA02F3C2F1200120FA01F10CFA02FCBE
:10026C0041EA030894404FEA1C41B8FBF1F71FFA2E
:10027C008CFE01FB178807FB0EF0230C43EA0843A6
:10028C0098420AD91CEB030307F1FF3580F01E815D
:10029C00984240F21B81023F63441B1AB3FBF1F0FE
:1002AC0001FB103300FB0EFEA4B244EA0344A64546
:1002BC000AD91CEB040400F1FF3380F00981A64538
:1002CC0040F20681644402380021A4EB0E0440EA9B
:1002DC0007401EB10023D440C6E90043BDE8F087B7
:1002EC008B4208D9002E00F0EE800021C6E90005F3
:1002FC000846BDE8F087B3FA83F100294AD1AB4236
:10030C0002D3824200F2FC80841A65EB03030120C5
:10031C009846002EE2D0C6E90048DFE702B9FFDEBE
:10032C00B2FA82F2002A40F09180A1EB0C0001217C
:10033C004FEA1C471FFA8CFEB0FBF7F307FB1300C8
:10034C00250C45EA00450EFB03F0A84208D91CEB2E
:10035C00050503F1FF3802D2A84200F2CE804346D5
:10036C002D1AB5FBF7F007FB10550EFB00FEA4B2DF
:10037C0044EA0544A64508D91CEB040400F1FF35FA
:10038C0002D2A64500F2B6802846A4EB0E0440EA41
:10039C0003409EE7C1F120078B4022FA07FC4CEA90
:1003AC00030C25FA07FA4FEA1C49BAFBF9F820FAB4
:1003BC0007F309FB18AA8D401FFA8CFE1D4300FAA7
:1003CC0001F308FB0EF02C0C44EA0A44A04202FA9A
:1003DC0001F20BD91CEB040408F1FF3A80F0888081
:1003EC00A04240F28580A8F102086444241AB4FBB0
:1003FC00F9F009FB104400FB0EFEADB245EA0444D3
:10040C00A64508D91CEB040400F1FF356CD2A645B7
:10041C006AD90238644440EA0840A0FB0295A4EB78
:10042C000E04AC42C846AE4656D353D0002E69D00B
:10043C00B3EB080264EB0E0422FA01F304FA07F79B
:10044C001F43CC40C6E90074002147E70CFA02FCBC
:10045C00C2F1200125FA01F34FEA1C4720FA01F101
:10046C0095400D43B3FBF7F107FB11331FFA8CFEDC
:10047C00280C40EA034001FB0EF3834204FA02F419
:10048C0008D91CEB000001F1FF382FD283422DD983
:10049C0002396044C01AB0FBF7F307FB1300ADB28E
:1004AC0045EA004503FB0EF0A84208D91CEB0505F4
:1004BC0003F1FF3816D2A84214D9023B6544281A1E
:1004CC0043EA014138E73146304607E72F46E4E678
:1004DC001846F9E64B45A9D2B9EB020865EB0C0EB0
:1004EC000138A3E74346EAE7284694E74146D1E7BB
:1004FC00D0467BE76444023847E7023B65442FE76C
:10050C00084606E73146E9E6704700BF38B50546B0
:10051C000C4664220023FFF73DFE13430AD14FF42F
:10052C00C872002328462146FFF734FE134303D13B
:10053C00002000E0002038BD0120FCE7F8B5B0F544
:10054C00FA6641F1FF3740F2D173984271F1000322
:10055C0004DB6FF4FA66861961F10007642200234C
:10056C0030463946FFF716FE0D460446074A4FF053
:10057C00FF3330463946FFF70DFE241841EB0501D9
:10058C000901200141EA1471F8BD00BF70FEFFFFA4
:10059C002DE9F04781468A4614461E46824276EB88
:1005AC00010322DA012740F6611399457AF1000321
:1005BC001EDBB9F516604FF4C8724FF000034AF118
:1005CC00FF31FFF7E7FD05464FF4C87300FB03F35B
:1005DC00B9EB03096AEBE37AC317324A400002FB1A
:1005EC000303A5FB0258984430E04FF0FF37DAE7DD
:1005FC00B9F5C86F7AF1000346DAB9F5C8604FF463
:10060C00C8724FF000034AF1FF31FFF7C3FD0546F6
:10061C004FF4C87300FB03F313EB09094AEBE37ABD
:10062C00C317204A400002FB0303A5FB0258984461
:10063C000CE001221C4B33F912201C4B03FB02F281
:10064C00551948EBE2783C1946EBE776564508BF5E
:10065C004C451CD04FF4C872002320463146FFF79E
:10066C0099FD1343E5D014F0030F09D16422002344
:10067C0020463146FFF78EFD134303D10022D9E704
:10068C000022D7E70122D5E70025A846DEE7F917B7
:10069C0007FB08F805FB0181A7FB05052944BDE80C
:1006AC00F08700BF805960F02C5400088051010085
:1006BC00F8B50446374BC31861F10002432B72F1B5
:1006CC0000033BD30E46FFF739FF051946EB010734
:1006DC0040F2B3739C4276F1000302DA083D47F115
:1006EC00FF3720463146FFF711FF10B10B3547F1AC
:1006FC000007601E46F1FF31FFF708FF10B11135FE
:10070C0047F100071C22002328463946FFF742FD1B
:10071C001946002B13DB002915DB1C2A71F1000391
:10072C0018DA40F2B3739C4276F1000319DA1A4BD3
:10073C0053F82200A0F2B373422B23D8F8BD1C321D
:10074C0043F10001E7E7154B154A40F279111548C2
:10075C0002F0ECF8144B124A4FF4BD71114802F040
:10076C00E5F840F2F6739C4276F1000303DB0F4B85
:10077C0033F91200DEE70E4B094A4FF4C0710948F9
:10078C0002F0D4F80B4B064A40F28511054802F0F2
:10079C00CDF800BF4DF8FFFF6854000884510008E5
:1007AC00D853000894510008A85100083054000890
:1007BC00C8510008CC51000870B50368002B2DDB24
:1007CC003D2B32DC4368002B36DB3B2B3BDC836858
:1007DC00002B3FDB172B44DCC668002E48DD436939
:1007EC0003F26C73584A82FB0312D917C1EBE21265
:1007FC004FF4C87101FB1232002A40D013F0030FE2
:10080C0065D1514C84FB0314D917C1EB64116424DA
:10081C0004FB1131002933D0012131E04B4B4C4A00
:10082C004FF48D714B4802F081F84B4B484A40F223
:10083C001B11484802F07AF8484B454A40F21D110A
:10084C00444802F073F8464B414A4FF48F714148CB
:10085C0002F06CF8434B3E4A4FF490713D4802F065
:10086C0065F8414B3A4A40F221113A4802F05EF8E1
:10087C003E4B374A40F22311364802F057F801211B
:10088C00056901EB41013A4C04EB8101495D8E4253
:10089C001FDC002D24DB0B2D29DC816900292DDBCD
:1008AC00062932DCC169002936DB002A3BD013F063
:1008BC00030F40D1244880FB0320DA17C2EB6012EF
:1008CC00642000FB1232002A2ED001222CE00021E1
:1008DC00D6E7284B1E4A4FF492711E4802F026F8B8
:1008EC00254B1B4A4FF493711A4802F01FF8234B07
:1008FC00174A40F22711174802F018F8204B144AF7
:10090C0040F22911134802F011F81E4B104A4FF413
:10091C009571104802F00AF81B4B0D4A4FF4967172
:10092C000C4802F003F80122184B33F912309942AB
:10093C0003DC012070BD0022F6E7154B044A40F29F
:10094C002D11044801F0F2FF1F85EB5108520008ED
:10095C00C053000894510008185200082C5200088B
:10096C003C520008505200086452000878520008AB
:10097C00E45300088C520008CC520008DC520008EA
:10098C00F052000804530008185300082C540008B7
:10099C002C53000842694B699A421BDC1CDB026930
:1009AC000B699A421BDC1CDBC268CB689A421BDCCD
:1009BC001CDB82688B689A421BDC1CDB42684B6830
:1009CC009A421BDC1CDB02680B689A421BDC1CDBAA
:1009DC0000207047012070474FF0FF307047012016
:1009EC0070474FF0FF307047012070474FF0FF30D9
:1009FC007047012070474FF0FF307047012070475F
:100A0C004FF0FF307047012070474FF0FF307047B8
:100A1C0038B504461546FFF7BDFFB0F1FF3F07D0D0
:100A2C0029462046FFF7B6FF012803D0012038BD28
:100A3C000020FCE70020FAE710B50B46B0B10146E8
:100A4C000246184620311468D2F804E0D2F808C0E7
:100A5C00D3680460C0F804E0C0F808C0C36010326A
:100A6C0010308A42EFD11368036010BD242200219C
:100A7C00184601F0BDFFF8E710B50B46B0B10146C2
:100A8C000246184620311468D2F804E0D2F808C0A7
:100A9C00D3680460C0F804E0C0F808C0C36010322A
:100AAC0010308A42EFD11368036010BD242200215C
:100ABC00184601F09DFFF8E72DE9F04192B005468C
:100ACC004769244A2449FFF7A3FFA8BB07F26C77B8
:100ADC004FEAE778EC46AE46BEE80F00ACE80F00F4
:100AEC00BEE80F00ACE80F00DEF80030CCF80030A8
:100AFC0038464146FFF7DCFDA0F26C70059009A961
:100B0C006846FFF7B9FF09A802F052F804460E46F2
:100B1C00294609A8FFF790FF0E9A02F26C72D317C0
:100B2C0038464146FFF734FD241846EB01062046B3
:100B3C00314612B0BDE8F08109A92846FFF79CFFA9
:100B4C0009A802F035F804460E46294609A8FFF715
:100B5C0073FFECE7785300089C5300082DE9F04F25
:100B6C0085B0D0E90067002900F096808846002304
:100B7C000B623C22002330463946FFF70BFB15462F
:100B8C0003923C22002330463946FFF703FB06460E
:100B9C000C463C220023FFF7FDFA914693463C227B
:100BAC00002330462146FFF7F5FA06460C4618227C
:100BBC000023FFF7EFFA1746019218220023304664
:100BCC002146FFF7E7FA04460E46002D6BDBBBF11E
:100BDC00000F6EDB019B002B70DB201D4FF007021A
:100BEC004FF0000346F10001FFF7D4FA0292002AFD
:100BFC006ADB43F237639C4276F1000367DBC04B40
:100C0C00E41866F100066C250027002EC0F2D58092
:100C1C00BC4A002320463146FFF7BCFA0146F8B126
:100C2C00C217DFF8E4C243420CFB0233A0FB0C0CEE
:100C3C006344041943EB06064B1842EB02005B18A5
:100C4C0042EB0000C00040EA5370DB005B1842EB43
:100C5C000002120142EA13721B015D1947EB0207F5
:100C6C0040F26C7915EB090947F1000A4FF4C87290
:100C7C00002348465146FFF78DFA13432AD019F04A
:100C8C00030F29D16422002348465146FFF782FA0C
:100C9C00134323D1002326E09C4B9D4A40F237217D
:100CAC009C4801F043FE09F1FF3B05F13C03039323
:100CBC008DE77B1E01930BF13C0B8BE7013C61F143
:100CCC0000061833019388E7D31D029391E746255C
:100CDC0000279AE7012306E0002304E0012302E049
:100CEC00012355464F468C4A32F91310C8170A4651
:100CFC008C4276EB000125DBA41A66EB000615F19D
:100D0C00010A47F1000940F26D73ED1847F1000735
:100D1C004FF4C872002328463946FFF73BFA1343B9
:100D2C00DED015F0030F09D1642200232846394682
:100D3C00FFF730FA134303D10023D2E70023D0E7A7
:100D4C000123CEE7002203E0241A66F100060132EB
:100D5C0003EB4301714800EB8101895C08468C422E
:100D6C0076F10001F0DAC8F81450B7EBE57F40F0EB
:100D7C00B980611CC8F80C1003EB430302EB83032E
:100D8C00674931F913301C44C8F81C40039BC8F860
:100D9C000030C8F804B0019BC8F80830C8F810201F
:100DAC00029BC8F818304046FFF706FD002800F0FB
:100DBC00A080404605B0BDE8F08F013D47F1FF39FA
:100DCC004F46504A002320463146FFF7E3F90130E5
:100DDC001ED0C2174C4B414203FB0211A0FB033740
:100DEC0039441C1941EB0606031842EB02071B1889
:100DFC0042EB0707FF0047EA5377DB00181842EB7A
:100E0C0007073F0147EA10770001451949EB07072F
:100E1C0040F26C7915EB090947F1000A4FF4C872DE
:100E2C00002348465146FFF7B5F913430CD019F08F
:100E3C00030F0BD16422002348465146FFF7AAF951
:100E4C00134305D1002308E0012306E0002304E04E
:100E5C00012302E0012355464F462F4A32F9132055
:100E6C005142C8178C4276EB000125DA141946EB77
:100E7C00E27615F1FF3A47F1FF3940F26B73ED184A
:100E8C0047F100074FF4C872002328463946FFF794
:100E9C0081F91343DED015F0030F09D1642200232E
:100EAC0028463946FFF776F9134303D10023D2E7DE
:100EBC000023D0E70123CEE70B22B44603EB43001B
:100ECC00164E06EB8000815C4842C61784427CEBD0
:100EDC00060005DA09190C464CF1000C013AEDE755
:100EEC000C1940E701F040FD8B2303604FF0000824
:100EFC005FE70C4B064A40F2A621064801F016FDAE
:100F0C00C9C9FFFFB13A02004FC5FDFF605300088D
:100F1C00CC530008945100082C540008E4530008EA
:100F2C00FC5300086C5300088388C288934205D296
:100F3C000089184480B2801A80B27047981A80B227
:100F4C00704708B500218180C1800289006801F0DA
:100F5C004FFD08BD10B5044602810160FFF7F1FF9B
:100F6C002068003818BF012010BD0268838803F187
:100F7C00010CA0F804C0D154828803899A4201D391
:100F8C0000238380704703460068D9884A1C92B2BC
:100F9C00DA80405C19898A4201D30022DA807047DA
:100FAC00094B4FF480329A614FF400329A614FF43E
:100FBC0080229A614FF400229A614FF480129A6158
:100FCC004FF400129A6170470000024010B50446BD
:100FDC00FFF7E6FF052C07D8DFE804F003070B0F3B
:100FEC0013170C4B01229A6110BD0A4B02229A6115
:100FFC00FAE7084B04229A61F6E7064B08229A613D
:10100C00F2E7044B10229A61EEE7024B20229A6120
:10101C00EAE700BF000002400C4B4FF400329A612B
:10102C004FF480329A614FF400229A614FF480128F
:10103C009A614FF400129A614FF080729A614FF0EE
:10104C0000729A614FF000529A617047000402409E
:10105C00074B02229A6101229A6108229A6110229E
:10106C009A6120229A614FF480729A61704700BF96
:10107C0000040240024B01229A6108229A617047D7
:10108C0000040240064B02229A6101229A614FF43D
:10109C0000729A6120229A6110229A61704700BFF7
:1010AC0000040240064B02229A6101229A614FF41D
:1010BC0000729A6108229A6110229A61704700BFEF
:1010CC0000040240054B01229A6108229A614FF4F8
:1010DC0080729A614FF400729A617047000402406A
:1010EC00064B02229A614FF480729A614FF400729F
:1010FC009A6108229A6110229A617047000402409A
:10110C00074B02229A6108229A6110229A612022CE
:10111C009A614FF480729A614FF400729A61704731
:10112C0000040240034B02229A6101229A610822B8
:10113C009A61704700040240084B02229A61012216
:10114C009A6108229A6110229A6120229A614FF4C6
:10115C0080729A614FF400729A61704700040240E9
:10116C00074B02229A6101229A6108229A6110228D
:10117C009A614FF480729A614FF400729A617047D1
:10118C000004024010B50446FFF746FF092C08D8AE
:10119C00DFE804F005080B0E1114171A1D20FFF7D9
:1011AC0057FF10BDFFF766FFFBE7FFF76BFFF8E794
:1011BC00FFF778FFF5E7FFF785FFF2E7FFF790FF02
:1011CC00EFE7FFF79DFFECE7FFF7ACFFE9E7FFF771
:1011DC00B3FFE6E7FFF7C4FFE3E7030903EB830381
:1011EC0000F00F0000EB4300C0B27047064BA3FBAE
:1011FC000023DB081A01D2B203EB8303A0EB4300FC
:10120C00C0B21044C0B27047CDCCCCCCF8B50846B7
:10121C0016461D46194600F0F7FB074658B100204C
:10122C000FE0285DFFF7D9FF28550134E4B2B44232
:10123C00F7D33846F8BD0446F9E700232B540130A8
:10124C00C0B2B042F9D3F4E7F8B50F4615461E46C6
:10125C00002405E0305DFFF7C9FF30550134E4B2DE
:10126C00AC42F7D3002406E02A463146384600F05B
:10127C0093FB0134E4B2AC42F6D30020F8BD00007D
:10128C0002F1FF3C4FFA8CFCBCF1000F1EDB10B5D9
:10129C0011F80C200E4BA3FB02E2D208303286462A
:1012AC000EF8022B11F80C20A3FB0243DB0803EB16
:1012BC008303A2EB4303303343700CF1FF3C4FFA32
:1012CC008CFC7046BCF1000FE2DA10BD704700BF19
:1012DC00CDCCCCCC10B504460B78094803604B78C8
:1012EC0043608B788360CB78013BC3600B790361DF
:1012FC004B7964334361FFF7DFFB206010BD00BF07
:10130C00F400002010B582B0009000230193094C2A
:10131C0021466846FFF722FCA44604460FCCACE8F5
:10132C000F000FCCACE80F002368CCF8003002B0F3
:10133C0010BD00BFF4000020074B1A6802705A68F9
:10134C0042709A688270DA68C2701A69013202714E
:10135C005B69643B43717047F400002010B5294B66
:10136C001A6842F004021A601A6842F001021A600C
:10137C00244B1B6813F0010FFAD0234A136823F493
:10138C00C05343F4006313601F4B5B6813F0100FE2
:10139C00FAD11E4A136843F4803313601B4B1B684D
:1013AC0013F4003FFAD0194A936823F47D0343F4F5
:1013BC0011039360136843F080731360134B1B6825
:1013CC0013F0007FFAD0114B9A6822F0F0029A6069
:1013DC009A6822F4E0629A609A6822F460529A60E9
:1013EC009A6842F003029A60084B9B6803F00C0366
:1013FC000C2BF9D1064C204601F00EF8204601F0DA
:10140C001BF810BD003C0240007000400038024048
:10141C000048E80170B586B0604B5A6A42F0004251
:10142C005A625A6A02F000420592059A1A6A42F010
:10143C0001021A621A6A02F001020492049A5A6AB0
:10144C0042F080525A625B6A03F080530393039B11
:10145C00534BD96821F4E0610904090C514A0A4341
:10146C00DA60DB68C3F30223C3F10701042928BF48
:10147C0004211A1D062A29D9DA1E4FF0FF338B409E
:10148C00DB4303F00F0393401B01DBB2444A82F8A9
:10149C002330FFF763FF00F0A1F800F00DFA00F025
:1014AC000FFC00F01DFD00F0BDFC3F4C2346032259
:1014BC000021D020FFF7AAFE0322214604F10C00E4
:1014CC00FFF7DEFE00F0C4FD00241AE00022D4E792
:1014DC00354B00221A76344B187EFFF753FE032C43
:1014EC001DD84FF47A7000F019FCFFF795FD00F051
:1014FC00D1FD012818D04FF4FA7000F00FFC013424
:10150C00E4B2052CE0D82046FFF760FD264B2344BF
:10151C001B7B2F2BDCD9303B234A1376DBE740F2C5
:10152C00EE2000F0FBFBE0E71F4D2B4603220021D1
:10153C00D020FFF76BFEEB1C03220421D020FFF719
:10154C0065FE294605F11400FFF7C4FE00F0C0FE4D
:10155C00164B18606B699842D1D0154D0090154A06
:10156C003221284602F098F8284600F055FD0F4B22
:10157C001868FFF7C7FE0C4DAE1D3046FFF7DCFEBA
:10158C00334603220021D020FFF75EFE05F109034C
:10159C0003220421D020FFF757FEB0E700380240A9
:1015AC0000ED00E00003FA051C01002018010020EA
:1015BC008C010020D854000810B5074C2346032298
:1015CC000021D020FFF722FE0322214604F10C005B
:1015DC00FFF756FE10BD00BF1C0100202DE9F04F97
:1015EC008BB00024049405940694079408940994F1
:1015FC00784BDA6942F02002DA61DA6902F02002F3
:10160C000392039ADA6942F00102DA61DA6902F0B4
:10161C0001020292029ADA6942F00202DA61DB6993
:10162C0003F002030193019B6B4F4FF47C13BB61DE
:10163C006A4E6B4BB36101250495059504A9384698
:10164C0000F000FF4FF0020BCDF810B0059506949A
:10165C000794089404A9384600F0F4FE042304937C
:10166C00059506940794089404A9384600F0EAFE00
:10167C004FF0080ACDF810A005950694079408942D
:10168C0004A9384600F0DEFE4FF01009CDF810909A
:10169C0005950694079408940DEB0901384600F063
:1016AC00D1FE4FF02008CDF81080059506940794D4
:1016BC0008940DEB0901384600F0C4FE049505951D
:1016CC000694079408940DEB0901304600F0BAFE1D
:1016DC00CDF810B005950694079408940DEB09010C
:1016EC00304600F0AFFE4FF48063049305950694EA
:1016FC00079408940DEB0901304600F0A3FE4FF45B
:10170C008053049305950694079408940DEB0901F6
:10171C00304600F097FE4FF4005304930595069461
:10172C00079408940DEB0901304600F08BFE4FF442
:10173C0080430493059408940DEB0901304600F0A6
:10174C0081FE4FF400430493059506940794089486
:10175C000DEB0901304600F075FECDF810A0059593
:10176C000694079408940DEB0901304600F06AFECC
:10177C00CDF8109005950694079408940DEB09018B
:10178C00304600F05FFECDF8108005950694079466
:10179C0008940DEB0901304600F054FE4FF48073B1
:1017AC00049305950694079408940DEB09013046B3
:1017BC0000F048FE4FF400730493059506940794CB
:1017CC0008940DEB0901304600F03CFE0BB0BDE86F
:1017DC00F08F00BF003802400000024000040240BD
:1017EC0000003BB730B583B00546314B9B6903F025
:1017FC000203002B14BF0120002001D003B030BD28
:10180C000C462B4B1A6822F400621A601A6842F4D8
:10181C0080621A601A6842F480721A6000F0A0F9B3
:10182C00241841F10001234B1C605960204B5B696B
:10183C0013F0010F08D11F4BD3E9000100F014FB8A
:10184C000128F3D10220D9E7194A5369136923F00F
:10185C00FF0343F0D0031361154B5B6913F0020FC8
:10186C0008D1144BD3E9000100F0FEFA0128F3D1A2
:10187C000220C3E70E4B5A690192019A9A690192B0
:10188C00019A9A69EDB21A6922F0FF0215431D61A3
:10189C00074B5B6913F0800F08D1064BD3E90001AD
:1018AC0000F0E2FA0128F3D10220A7E70020A5E717
:1018BC0000540040400100202DE9F0478EB0002478
:1018CC00089409940A940B940C940D940294039428
:1018DC0004940594069407942C4DEB6943F0020391
:1018EC00EB61EB6903F002030193019B402302932C
:1018FC004FF0020ACDF80CA04FF00309CDF8109070
:10190C004FF00108CDF8148004270797204E02A948
:10191C00304600F097FD80230293CDF80CA0CDF853
:10192C001090CDF814800694079702A9304600F069
:10193C0089FD6B6A43F400136B626B6A03F400134A
:10194C000093009BA5F5F2352B6823F080032B60E8
:10195C00EB6823F0FE03EB6008940E4B09930A949A
:10196C000B944FF480630C934FF480430D9308A9B0
:10197C00284600F00FFEEB6823F00103EB602B68A8
:10198C0023F040032B600EB0BDE8F0870038024016
:10199C0000040240801A0600F8B50E461546642174
:1019AC00FFF720FF074608B13846F8BD00F0D8F81D
:1019BC00643041F10001124B186059600024AC42B4
:1019CC0017D2335D0F490A6922F0FF0213430B61F2
:1019DC000C4B5B6913F0800F08D1094BD3E9000164
:1019EC0000F042FA0128F3D10227DDE70134A4B25A
:1019FC00E5E7044A136843F400731360D4E700BFAF
:101A0C004801002000540040F0B583B00D46144648
:101A1C006421FFF7E7FE064610B1304603B0F0BD77
:101A2C00364A136843F48073136000F099F86430FD
:101A3C0041F10001324B18605960304B5B6913F077
:101A4C00010F08D12E4BD3E9000100F00DFA01284B
:101A5C00F3D10226E1E7294A5369136923F0FF0306
:101A6C0043F0D1031361254B5B6913F0020F08D1CE
:101A7C00234BD3E9000100F0F7F90128F3D102263A
:101A8C00CBE71E4B5A690192019A9B690193019B0A
:101A9C000027A742C1D2631E9F4216DB174B1A6860
:101AAC0022F480621A601A6842F400721A60134BB6
:101ABC005B6913F0400F1CD1114BD3E9000100F00E
:101ACC00D3F90128F3D10226A7E70C4B5B6913F07D
:101ADC00400F08D10A4BD3E9000100F0C5F90128E9
:101AEC00F3D1022699E7054B1B69EB550137BFB2C1
:101AFC00CFE7024B1B69EB55F8E700BF00540040E1
:101B0C003801002038B5054600240CE0134B03EBDC
:101B1C00041300221A72114B03EB0013DB68013023
:101B2C0098470134A4B2012C17D820460B4B03EB79
:101B3C0004131B7A012BF4D12301084AD358AB426E
:101B4C00EFD802EB04135B7A002BDFD0210102EB00
:101B5C0004135B682B445350DDE738BD6C01002047
:101B6C00014BD3E9000170475801002030B587B014
:101B7C0000250295039504950595284B1A6A42F0A9
:101B8C0008021A621B6A03F008030193019B47F6D3
:101B9C00FF43ADF8083040F2E7330493204C02A920
:101BAC00204600F079FD236823F0800323606368EE
:101BBC0023F070036360A36823F08003A3606FF0CD
:101BCC0001032361E36843F00103E3606562154B95
:101BDC00DA68C2F30222C2F10703042B28BF0423E4
:101BEC001946131D062B16D9033A4FF0FF338B40C1
:101BFC00DB4303F0020393401B01DBB20A4A82F879
:101C0C001A334FF080631360054A136843F00103E5
:101C1C00136007B030BD0022E7E700BF0038024078
:101C2C00000C014000ED00E000E100E008B5FFF71A
:101C3C00C3FC08BD30B587B000250295039504950B
:101C4C0005951B4B5A6A42F010025A625B6A03F00C
:101C5C0010030193019B1F23ADF8083040F2E733CA
:101C6C000493144C02A9204600F016FD236823F0BF
:101C7C0080032360636823F070036360A36823F020
:101C8C008003A3606FF001032361E36843F0010359
:101C9C00E3606562084BDB68084B83F82B534FF409
:101CAC0000625A60236843F00103236007B030BD23
:101CBC00003802400010004000ED00E000E100E0C0
:101CCC0010B586B000230293039304930593114B34
:101CDC005A6A42F020025A625B6A03F020030193B5
:101CEC00019B1F23ADF808304FF47A7304930A4C10
:101CFC0002A9204600F0D0FC236823F08003236067
:101D0C00636823F070036360A36823F08003A3600F
:101D1C0006B010BD00380240001400400A4BD862D7
:101D2C006FF001021A6100225A621A6842F0010235
:101D3C001A60054B1B6913F0010FFAD0024A1368A5
:101D4C0023F001031360704700140040084B1B691B
:101D5C0013F0010F0AD0064B6FF001021A611A68DA
:101D6C0022F001021A60034B00221A70704700BF68
:101D7C00000C01406001002038B50D4B1B6913F0BD
:101D8C00010F14D00A496FF001030B610948D0E927
:101D9C000023541C43F10005C0E900450B6843F0D7
:101DAC0001030B60044B1B680BB103C8984738BD8B
:101DBC0000100040580100205001002070B506466C
:101DCC004FF0000CBCF1010F25D86546134C04EB09
:101DDC000C1EDEF80C4024B10CF1010C1FFA8CFC2B
:101DEC00F0E7CEF804608EF80910CEF80C2063B141
:101DFC000B4B1B6898470644084A2B0102EB051154
:101E0C00D65001230B72681C06E0044B03EB0C1339
:101E1C0000221A72F7E7002070BD00BF6C01002091
:101E2C006801002008B5FFF7A1FEFFF703FF084B80
:101E3C00084A1A60084B094A1A600123084A1946D5
:101E4C004FF47A70FFF7BAFF064B186008BD00BF5D
:101E5C0050010020111B0008680100206D1B0008B8
:101E6C00391C000864010020044BD3E90023824292
:101E7C008B4101D20020704701207047580100208F
:101E8C000246007800E0584012F8013F2A2BFAD1A4
:101E9C00704700B5864600234FF0010C18460CE045
:101EAC00A2F14101C9B2052903D8373A0CFB02F261
:101EBC0010434FEA0C1C0133DBB2082B0DD8C3F1D5
:101ECC0007021EF80220A2F13001C9B20929E7D895
:101EDC00303A0CFB02F21043EBE75DF804FB000018
:101EEC002DE9F04190B0002409940A940B940C94C1
:101EFC000D940E940F9403940494059406940794F3
:101F0C0008943C4B1A6A42F480421A621A6A02F430
:101F1C0080420292029ADA6942F00102DA61DB69CC
:101F2C0003F001030193019B4FF4007303934FF0F3
:101F3C000208CDF8108003270597072608962E4D2A
:101F4C0003A9284600F07EFA4FF480630393CDF882
:101F5C001080059706940794089603A9284600F06C
:101F6C0071FA264BDB68264B83F8254320225A60F6
:101F7C004FF4E13309930A940B940C940C230D93B6
:101F8C000E940F9409A91F4800F0BCFB1E4A52E89E
:101F9C00003F23F4806342E800310029F6D1194B4D
:101FAC001A6922F490421A615A6922F02A025A6183
:101FBC00DA6842F40052DA60DA6822F40052DA602D
:101FCC006FF020021A60114A52E8003F43F02003E0
:101FDC0042E800310029F6D10C3AD36843F400539F
:101FEC00D36032220A490B48FEF7B4FF10B0BDE8AB
:101FFC00F08100BF003802400000024000ED00E01C
:10200C0000E100E000380140143801400C38014078
:10201C00F0010020C001002006E0064B1B6813F005
:10202C00400FFAD0034B5A6010F8012B002AF4D160
:10203C00704700BF0038014008B5034B5968C9B25E
:10204C000248FEF792FF08BD00380140C001002095
:10205C000D4B01221A700D4ADA610D4B1A682421BE
:10206C0011701A68502151701A68442191701A68C5
:10207C005421D1701B682C221A71312159719A711B
:10208C002A22DA73704700BFCC010020C001002067
:10209C00040000202DE9F0478AB0874BD869FEF781
:1020AC0043FF18B900200AB0BDE8F087824CE06904
:1020BC00FEF769FF2378013B082B00F2FA80DFE87A
:1020CC0003F00511202F3E4D5C6B8B007B4B1B6886
:1020DC001B78834201D00020E5E7774B02221A706F
:1020EC000020E0E7754B1B685B78834204D0724B91
:1020FC0001221A700020D6E76F4B03221A700020C1
:10210C00D1E76E4B1B689B78834204D06A4B01224B
:10211C001A700020C7E7684B04221A700020C2E72F
:10212C00664B1B68DB78834204D0634B01221A7028
:10213C000020B8E7604B05221A700020B3E75F4B14
:10214C001B681B79834204D05B4B01221A70002060
:10215C00A9E7594B06221A700020A4E7574B1B68BD
:10216C005B79834204D0544B01221A7000209AE709
:10217C00514B07221A70002095E7504B1B689B7936
:10218C00834204D04C4B01221A7000208BE74A4B3F
:10219C0008221A70002086E7494B1B78072B08D8B9
:1021AC00DA1D4649096888540133454A13700020EA
:1021BC0079E7434B00221A70404B1B68DB7B834250
:1021CC0001D000206FE73C4B09221A7000201875D3
:1021DC003C4B10221A7066E7394B1B78012B29D81F
:1021EC0003F11002354909688854A0F13002D2B2CB
:1021FC00092A10D830493348007800FB02F2087DD8
:10220C0002430A7501332E4A13702E4A13781B09A8
:10221C001370002047E7A0F14102D2B2052AF1D891
:10222C0025493738274A127802FB00F00A7D024311
:10223C000A75E7E7214B1D68681CFFF721FE1E4B52
:10224C001B7D83422FD01E4B00221A701A4A012488
:10225C001470EB79297A687AAE7AEF7A95F80CC01B
:10226C0095F80DE095F80E8095F8109095F811A062
:10227C00154D92690992CDF820A0CDF81C90CDF89F
:10228C001880CDF814E0CDF810C003970296019099
:10229C0000910E4A3221284601F0FEF92846FFF73C
:1022AC00BBFE2046FFE6E81DFFF7F3FD024B9861ED
:1022BC00C9E70020F7E600BFCC0100200400002095
:1022CC00EC010020000000208C010020F0540008DC
:1022DC00014B9869704700BFCC010020FEE7FEE778
:1022EC00FEE7FEE7FEE77047704770477047000057
:1022FC0008B5064B1B6813F0200F00D108BD034B2B
:10230C006FF020021A60FFF797FEF7E700380140E4
:10231C00034B9B68C3F30313024AD35CD84070474A
:10232C00003802401C550008034B9B68C3F3022382
:10233C00024AD35CD8407047003802402C55000844
:10234C00034B9B68C3F3C223024AD35CD84070474B
:10235C00003802402C5500080B4B9B6803F480336B
:10236C007BB90A49084A9368C3F383430848C05CA5
:10237C0001FB00F09368C3F381530133B0FBF3F01E
:10238C0070470449EEE700BF003802400024F40017
:10239C003455000800127A0008B5144B9B6803F002
:1023AC000C030C2B16D8DFE803F0091515150715CF
:1023BC0015151E15151512000D4807E00B4B586826
:1023CC00C0F34230431C4FF40040984008BDFFF767
:1023DC00C3FFFBE7054B5868C0F34230431C4FF476
:1023EC0000409840F2E70348F0E700BF0038024095
:1023FC000024F40000127A0010B50446FFF7CCFF5D
:10240C002060FFF785FF6060FFF78EFFA0606068BB
:10241C00FFF796FFE06010BD064BA3FB00239B0962
:10242C00013B4FF0E02253610023936105231361BC
:10243C00704700BFD34D6210014B1860704700BF4E
:10244C00080000200B6893FAA3F3B3FA83FC56E060
:10245C008D68826893FAA3F4B4FA84F464004FF0A4
:10246C00030E0EFA04F422EA040293FAA3F4B4FA6B
:10247C0084F4640005FA04F422438260CC68426858
:10248C0022EA030203FB04F42243426045E093FA80
:10249C00A3F2B2FA82F2072A15D84D69026A93FAAE
:1024AC00A3F4B4FA84F4A4000F2606FA04F422EA86
:1024BC00040293FAA3F4B4FA84F4A40005FA04F425
:1024CC002243026241E04C69456A1A0A92FAA2FE62
:1024DC00BEFA8EFE4FEA8E0E0F2606FA0EFE25EA87
:1024EC000E0592FAA2F2B2FA82F2920004FA02F209
:1024FC002A43426229E0002070BD0CF1010C0B68EC
:10250C0033FA0CF244D0012202FA0CF21340F4D04C
:10251C0070B54A68013A012A9AD9C26893FAA3F4B1
:10252C00B4FA84F46400032505FA04F422EA0402E4
:10253C0093FAA3F4B4FA84F464000D6905FA04F474
:10254C002243C2604A68022AA1D04A68046893FAFE
:10255C00A3FEBEFA8EFE4FEA4E0E032505FA0EFEC2
:10256C0024EA0E0E93FAA3F3B3FA83F35B0002FA98
:10257C0003F34EEA030303600CF1010C0B6833FA0E
:10258C000CF2B8D0012202FA0CF21340F4D0C0E7DE
:10259C0000207047F0B585B004460D46036823F063
:1025AC00010303606846FFF727FF029A6B68AE6869
:1025BC003648A0FB021C4FEA9C41606820F03F00AB
:1025CC0040EA9C406060206A20F03F00304FBB42E4
:1025DC0037D80131014321622D498B424DD9002E50
:1025EC0039D103EB4303B2FBF3F2C2F30B03002B21
:1025FC003DD042F4004246EA0203E26922F44F4223
:10260C0022F0FF021A43E261EA686969A36823F4C5
:10261C00034323F0FF030A431343A3602B68226890
:10262C0022F01A0213432360236843F00103236052
:10263C002B69226822F4806213432360002005B0CA
:10264C00F0BD4FF4967707FB01F1124FA7FB017118
:10265C0089090131BEE703EB830303EB8303B2FB70
:10266C00F3F2C2F30B032BB142F40042C3E748F27E
:10267C000102C0E748F20102BDE75B00B2FBF3F3D5
:10268C0040F6FC721342B8D10423B6E783DE1B4339
:10269C00A0860100D34D62100368B0F1804F06D0C4
:1026AC00174A904203D002F58062904203D123F086
:1026BC0070034A681343B0F1804F12D0104A904215
:1026CC000FD002F5806290420BD002F5803290421E
:1026DC0007D002F58062904203D002F580629042EE
:1026EC0003D123F44073CA68134303608B68C3623D
:1026FC000B888362436943F00103436100207047F8
:10270C0000040040C36813F4005F01D0012070473F
:10271C0030B585B004460D46C36823F4164323F048
:10272C000C034A68C9680A4329690A43A9690A4320
:10273C001343C360AB68026922F440521343036134
:10274C006B69426922F44072134343616846FFF798
:10275C0053FE2F4B9C4208D02E4B9C420CD02E4B40
:10276C009C420BD0012005B030BD039B002B4DD0FB
:10277C002A682AB90120F6E7029BF7E7029BF5E7E6
:10278C00A969B1F5004F20D003EB830303EB83035E
:10279C009200B3FBF2F32148A0FB032149090A0183
:1027AC0092B2642505FB11331B013233A0FB0313DA
:1027BC00C3F34F1303F0F0010A4492B203F00F037A
:1027CC0013449BB2A3600020CDE703EB830303EB20
:1027DC0083035200B3FBF2F31048A0FB0321490919
:1027EC000A0192B2642505FB1133DB003233A0FBE6
:1027FC000313C3F34F13590001F4F8710A4492B256
:10280C0003F0070313449BB2A360DCE70120AAE7A3
:10281C000038014000440040004800401F85EB5147
:10282C007047000010B503460C4A0D490D4800686E
:10283C0040B10C4800680344521A934206D8094A26
:10284C00136010BD0748084C0460F2E700F08CF8E8
:10285C000C2303604FF0FF30F3E700BF002800208B
:10286C0000040000240200206802002001207047B0
:10287C0008B500F079F8162303604FF0FF3008BD5F
:10288C0008B54FF0FF31FFF7F3FFFEE770B50C46CC
:10289C001646002506E0AFF30080214601F8010B37
:1028AC0001350C46B542F6DB304670BD70B50C46B2
:1028BC001646002504E014F8010BAFF30080013537
:1028CC00B542F8DB304670BD4FF0FF3070474FF427
:1028DC0000534B6000207047012070470020704768
:1028EC00FFF79EFF0B480C490C4A002302E0D4581A
:1028FC00C4500433C4188C42F9D3094A094C002340
:10290C0001E013600432A242FBD300F045F8FEF75D
:10291C0081FD704700000020D80000203C580008C2
:10292C00D800002064020020FEE700001FB514460A
:10293C001A46094B05461B68D8684CB1074BCDE9C4
:10294C00013400912B46064900F014F801F0D6F939
:10295C00044B1C46F3E700BF100000203D55000857
:10296C004A55000878550008014B1868704700BF9D
:10297C00100000200EB403B5014603AB054853F814
:10298C00042B0068019300F0B1FB02B05DF804EB7E
:10299C0003B070471000002070B500260C4D0D4C94
:1029AC00641BA410A64209D102F0D4FB00260A4DE8
:1029BC000A4C641BA410A64205D170BD55F8043B0B
:1029CC0098470136EEE755F8043B98470136F2E795
:1029DC003458000834580008345800083858000897
:1029EC00024B0146186800F07DBA00BF10000020B1
:1029FC0003460244934200D1704703F8011BF9E7E8
:102A0C00F7B5016804463B2911D93C22684601F010
:102A1C007CF9019A63680099002A0B446360BBBF80
:102A2C003C3203F1FF3322602260B8BF63606168FF
:102A3C003B2911D93C22684601F067F9019AA36839
:102A4C000099002A0B44A360BBBF3C3203F1FF3357
:102A5C0062606260B8BFA360A168172911D91822FF
:102A6C00684601F052F9019AE3680099002A0B4478
:102A7C00E360BBBF183203F1FF33A260A260B8BFA2
:102A8C00E36021690B2911D90C22684601F03DF94C
:102A9C00019A63690099002A0B446361BBBF0C3235
:102AAC0003F1FF3322612261B8BF63616369980748
:102ABC0020D1642193FBF1F201FB1232E2B94FF405
:102ACC00C87203F26C7393FBF2F102FB1133002B0F
:102ADC0014BF1C231D23E268002A0FDC0B26642084
:102AEC004FF4C875314FD4F80CC0BCF1000F31DD78
:102AFC0003B0F0BD1C23EEE71D23ECE70027642098
:102B0C004FF4C875294ED4E90312012A0CBF9C4618
:102B1C0056F822C06145EBDD0132A1EB0C010C2A09
:102B2C00E1602261EFD163695A1C9107C4E9047218
:102B3C0037D192FBF0F100FB1122002A33D103F2C2
:102B4C006D7393FBF5F205FB1233002B14BF1C23A2
:102B5C001D23D8E7216901392161013114D1636941
:102B6C005A1E9107C4E9046217D192FBF0F100FBE5
:102B7C001122A2B903F26B7393FBF5F205FB12332E
:102B8C00002B14BF1C231D232269012A0CBF1A46DB
:102B9C0057F822206244E260A5E71C23F4E71D23CA
:102BAC00F2E71C23AFE71D23ADE700BF80550008FB
:102BBC002DE9F04F85B0074601F0B4FA814638464E
:102BCC00FFF71EFFD7E900403C2303FB00444FF402
:102BDC006163B868BC4A03FB0044D7E9035352F85D
:102BEC002320013D012B7E69154411DDB1070FD166
:102BFC00642296FBF2F302FB136343B94FF4C872E1
:102C0C0006F26C7393FBF2F102FB113303B901353D
:102C1C0044F6206206F51C5310339342FD6100F21A
:102C2C005C81462E71DD462340F26D1C64214FF40D
:102C3C00C8709A0763D193FBF1F201FB1232002AA0
:102C4C0060D103F26C7292FBF0FE00FB1E22002A94
:102C5C0014BF62464FF4B77201339E421544E8D15B
:102C6C009A4B4FEAE478C5FB034800F0F3FD00F003
:102C7C00FDFD974BD3F800B0BBF1000F39D0D7F85E
:102C8C0020B07869D9F80430BBF1010F00F26C70F8
:102C9C00DA46A8BF4FF0010A834278D1D9E908324D
:102CAC00D9F85010D9F84CE05B1A029362EBE1733F
:102CBC000393D9F82820D9F84830B3EB020C6EEB0B
:102CCC00E2706445019378EB000366DAD9F80030C2
:102CDC00002B6FD0029B9C42039B78EB030303DB1E
:102CEC00644578EB00036BDBBBF1000F4FF0000B7E
:102CFC006BDAD9F828100C1948EBE178A9E040F20E
:102D0C006D12A9E74FF4B772A6E7A9D0452340F29C
:102D1C006D1C64214FF4C87012E062BB93FBF1F29E
:102D2C0001FB123252BB03F26C7292FBF0FE00FB01
:102D3C001E22002A14BF62464FF4B772AD1A013B33
:102D4C009E4203F00302E8DBDAB9642296FBF2F34D
:102D5C0002FB1363C3B94FF4C87206F26C7393FB96
:102D6C00F2F102FB1133002B40F26D1308BF4FF44C
:102D7C00B773ED1A74E740F26D12DFE74FF4B772D8
:102D8C00DCE740F26D13F4E74FF4B773F1E700F0B2
:102D9C00B7FC002882D1D34650E0019B5B1A01930B
:102DAC004FEAE1736EEB030E019B9C4278EB0E0332
:102DBC00F1DB8BE7029B9C42039B78EB03038FDBDD
:102DCC00BBF1000F3EDB4FF0010B8AEA0B0ABAF1A4
:102DDC00010F33D1BBF1000F4ED0521A3B681419BE
:102DEC00134438463B6048EBE278D7F80CA0FFF769
:102DFC0007FEFA68B2EB0A0220D0012A3EDC901CD6
:102E0C00D8BF0122FB691544D31840D5731E99070E
:102E1C0037D1642293FBF2F102FB1133A3BB4FF4C5
:102E2C00C87306F26B7696FBF3F203FB1266002E68
:102E3C0040F26D1318BF4FF4B673FB61BBF1010F79
:102E4C007FF457AF4FF0010BD9F850100C1948EB29
:102E5C00E17800F005FD0723043595FBF3F3C3EB94
:102E6C00C303ED1A48BF0735C7F820B0BD61204633
:102E7C00414605B0BDE8F08F8A1AAFE74FF0FF323C
:102E8C00C0E74FF4B673D8E740F26D13D5E7B2073D
:102E9C0017D1642196FBF1F201FB1262D2B94FF407
:102EAC00C87206F26C7696FBF2F102FB1166002EEC
:102EBC0040F26D1208BF4FF4B7729342A8BF9B1A31
:102ECC00BBE740F26D12F8E7B055000880510100E5
:102EDC00500200204FF4B772EFE74FF0FF34A046DA
:102EEC00C5E700BF38B50546002940D051F8043C71
:102EFC000C1F002BB8BFE41801F0B8F91C4A13687A
:102F0C0033B9636014602846BDE8384001F0B4B9A9
:102F1C00A34208D9206821188B4201BF19685B684D
:102F2C0009182160EDE71A465B680BB1A342FAD988
:102F3C0011685018A0420BD12068014450188342EC
:102F4C001160E0D118685B68014411605360DAE7E6
:102F5C0002D90C232B60D6E7206821188B4201BFC5
:102F6C0019685B680918216063605460CBE738BD51
:102F7C002C02002070B50E4E0C463168054611B976
:102F8C0000F07AFB30602146284600F075FB431CAC
:102F9C000AD0C41C24F00304A04207D0211A2846EE
:102FAC0000F06AFB013001D14FF0FF34204670BDB8
:102FBC00300200202DE9F041CD1C25F00305083529
:102FCC000C2D38BF0C25002D074601DBA94205D975
:102FDC000C2300263B603046BDE8F0812E4E01F0FC
:102FEC0045F933681C4634BB29463846FFF7C2FF07
:102FFC00431C04464DD134682646002E40D123682C
:10300C003146384604EB030800F036FB80453AD1D4
:10301C00216803356D1A25F0030508350C2D38BFD2
:10302C000C2538462946FFF7A5FF01302BD0236825
:10303C002B4423600EE02268521B1ED40B2A16D997
:10304C006119A342256018BF5960636808BF3160DD
:10305C0062514B60384604F10B0601F00DF926F075
:10306C000706231DF21AB6D09B1BA350B3E7626868
:10307C00A3420CBF32605A60ECE723466468B2E7A7
:10308C0034467668B9E70C2338463B6001F0F4F817
:10309C00A1E72560DEE700BF2C020020936810B486
:1030AC00013B002B936007DA9469A34201DB0A29E8
:1030BC0002D110BC00F062BD1368581C106019706E
:1030CC00084610BC7047F8B506460F461446D5188E
:1030DC00AC4201D1002007E03A46304614F8011BFF
:1030EC00FFF7DCFF431CF3D1F8BD00002DE9F04FD6
:1030FC000D461446984606469DB018B183690BB927
:10310C0000F02EFF894B9D421BD175686B6ED90761
:10311C0005D4AB899A0502D4A86D01F009F8AB89E6
:10312C001B0701D52B69EBB92946304600F078FD19
:10313C00C0B16B6EDC070ED54FF0FF301DB0BDE893
:10314C00F08F7B4B9D4201D1B568DFE7794B9D42F7
:10315C0008BFF568DAE7AB899805EDD4A86D00F0E7
:10316C00E9FFE9E70023099320238DF82930302368
:10317C004FF00109CDF80C80DFF8BC818DF82A30B6
:10318C0023469A4613F8012B0AB1252AF9D1BAEB3A
:10319C00040B0BD05B46224629463046FFF793FFC3
:1031AC00013000F0AA80099A5A4409929AF800302A
:1031BC00002B00F0A28000234FF0FF32CDE9052355
:1031CC000AF1010A049307938DF853301A9354466D
:1031DC00052214F8011B584801F012F8049AD8B9CA
:1031EC00D10644BF20238DF85330130744BF2B2343
:1031FC008DF853309AF800302A2B15D05446002005
:10320C004FF00A0C079A214611F8013B303B092B71
:10321C004ED9B0B1079214E0A0EB080309FA03F3FE
:10322C001343A2460493D2E7039B191D1B68039119
:10323C00002BBBBF5B4242F0020207930793B8BF5F
:10324C00049223782E2B0CD163782A2B35D1039B37
:10325C0002341A1D1B680392002BB8BF4FF0FF33CA
:10326C000593DFF8D8A003225046217800F0C8FF60
:10327C0040B14023A0EB0A0003FA00F0049B013498
:10328C000343049314F8011B06222D488DF82810D3
:10329C0000F0B6FF00283FD02A4B1BBB039B073323
:1032AC0023F0070308330393099B3B44099367E717
:1032BC000C4601200CFB0232A5E700234FF00A0C50
:1032CC00194601340593204610F8012B303A092A8F
:1032DC0003D9002BC5D00591C3E7044601230CFB91
:1032EC000121F0E703AB00932A463046164B04A9A4
:1032FC00AFF300800746781CD6D16B6ED90705D486
:10330C00AB899A0502D4A86D00F014FFAB895B065B
:10331C003FF512AF099811E703AB00932A463046EC
:10332C00094B04A900F082F8E4E700BFD05600086E
:10333C00F0560008B05600084056000846560008E3
:10334C004A56000800000000D33000082DE9F04771
:10335C00164699468A680B6907469342B8BF1346CE
:10336C00336091F843200C46DDF820800AB101331C
:10337C0033602368990642BF336802333360256893
:10338C0015F0060506D104F1190AE36832689B1A98
:10339C00AB4228DC94F84320131E226818BF01238B
:1033AC0092062DD44946384604F14302C0470130F9
:1033BC0020D02368E56803F00603042B18BF002512
:1033CC0032684FF00006A36808BFAD1A226908BF27
:1033DC0025EAE5759342C4BF9B1AED181A34B54221
:1033EC001AD1002008E00123524649463846C0470E
:1033FC00013003D14FF0FF30BDE8F0870135C4E751
:10340C003020E11881F843005A1C94F845102244EE
:10341C00023382F84310C5E7012322464946384659
:10342C00C0470130E6D00136D9E700002DE9FF474F
:10343C000F7E9146782F80460C469A460C9D01F1E2
:10344C00430207D8622F0AD8002F00F0D980582FDA
:10345C0000F0A48004F1420584F842703AE0A7F130
:10346C006303152BF6D801A151F823F0D1340008D1
:10347C00E534000861340008613400086134000848
:10348C0061340008E5340008613400086134000838
:10349C006134000861340008F33500081535000864
:1034AC00D535000861340008613400081536000871
:1034BC0061340008153500086134000861340008D7
:1034CC00DD3500082B681A1D1B682A6004F14205C3
:1034DC0084F842300123A4E020682968060601F133
:1034EC0004030AD50E682B60002E03DA2D237642D6
:1034FC0084F843300A235E4819E00E6810F0400F40
:10350C002B6018BF36B2EFE72B682068191D2960B5
:10351C00010601D51E6802E04606FBD51E886F2FFA
:10352C000CBF08230A235248002184F84310656815
:10353C00002DA8BF2168A560A4BF21F00401216063
:10354C000EB9002D4DD01546B6FBF3F103FB1167F8
:10355C00C75D05F8017D3746BB420E46F4D9082BF2
:10356C000BD12368DE0708D5236961689942DEBF59
:10357C00302305F8013C05F1FF35521B22614B4607
:10358C0021464046CDF800A003AAFFF7DFFE01302C
:10359C004CD14FF0FF3004B0BDE8F087344881F8CF
:1035AC0045702968236851F8046B29601D0614D5F1
:1035BC00DF0744BF43F0200323601EB9236823F0C8
:1035CC00200323601023AFE7236843F0200323601C
:1035DC007823284884F84530E3E7590648BFB6B24B
:1035EC00E6E71546BBE72B682668181D616928605D
:1035FC0035061B6801D5196002E07006FBD51980F1
:10360C00002315462361BAE72B6800211A1D2A6096
:10361C001D686268284600F0F3FD08B1401B60602D
:10362C0063682361002384F84330A8E72A4649469F
:10363C0040462369D0470130ABD023689B0713D495
:10364C00E068039B9842B8BF1846A4E701233246B2
:10365C0049464046D04701309BD00135E368039979
:10366C005B1AAB42F2DCEBE7002504F11906F5E737
:10367C00515600086256000838B50023054D044623
:10368C0008462B60FFF7CEF8431C02D12B6803B120
:10369C00236038BD600200200CB430B5174B0C1EF3
:1036AC001D689DB008DA8B234FF0FF302B601DB0E6
:1036BC00BDE8304002B070474FF40273ADF81430DF
:1036CC000CBF234604F1FF33049307934FF6FF73AB
:1036DC0002900690ADF81630284621AB209A02A92C
:1036EC00019300F059FE431CBCBF8B232B60002CB4
:1036FC00DDD00022029B1A70D9E700BF1000002019
:10370C002DE9F74F054600F00DFD40F2B1739D42D7
:10371C0040F39A806FF4F662AC1840F26D12A5F289
:10372C00B273A41002FB03446FF06302A5F26D7335
:10373C0093FBF2F36FF4C8611C444FF4C8736A181E
:10374C00B2FBF3F295FBF3FC1444642203FB1C5C08
:10375C0095FBF2F7BCFA8CF6014602FB1757456055
:10376C00760900F1500B05F003020D7A4B694A2DD6
:10377C002DD104EB030E02B917B9BCF1000F24D103
:10378C003B2BD4BF002301237344013B8D69DFF82D
:10379C00BC804FEAE57EC3FB085E8B6AED184EEBEE
:1037AC00E373C1E9085328318B45DED1D0E91213FC
:1037BC00D0E908428C4272EB0303B4BF012300230F
:1037CC000360012003B0BDE8F08F0023DCE7442D3B
:1037DC0001D12344DAE78ABB002F0CBF3546012503
:1037EC004FF0300AD1F80CE04FF00008CDF804E0AF
:1037FC00A646DFF85C900AFB0595043DDDF804A0B5
:10380C0008F10108C24555F8289019DC4FF007085B
:10381C000EF1040595FBF8F8C8EBC808A5EB0808F1
:10382C00B3EB08080B6948BF08F10708013BC3EB71
:10383C00C30343444B4505DA7344A7E73546CFE74A
:10384C00CE44DBE7073BF5E70020BBE780510100E6
:10385C00E0550008014800F06ABC00BF5C02002083
:10386C00014800F066BC00BF5C020020014B1868E8
:10387C0000F002B8100000202DE9F04F8DB0074683
:10388C0000F050FCB1490546384600F043FCB04E00
:10389C00044670B9AF4BB04A1860B04B1860B04BCF
:1038AC003068C3E90022FFF79BF834600DB0BDE827
:1038BC00F08F3168002962D13068FFF791F820460B
:1038CC00FCF760FC411C3846FFF774FB30600028A5
:1038DC005AD123780AAE3A2B08BF0134334620461E
:1038EC00A04AA14900F09CFE0028DFDD0A9BE718E6
:1038FC00E35C2D2B4CD14FF0FF38013700240DF138
:10390C00200A0DF11E0B33463846CDE9016A974962
:10391C000396CDF800B007AAADF81E40ADF82040D4
:10392C0000F07EFEA042C1DD3C21BDF81E20BDF89A
:10393C002030DFF83C9201FB02334FF46161BDF89B
:10394C001C2001FB023308FB03F3DFF81482AB628B
:10395C00844B4A46C8F800300A9B83491F443846BA
:10396C00334600F05DFEA04218DCD8F80030AA6A9D
:10397C00C8F80430774B1A60784B1C6096E7FCF75C
:10398C00F7FB002898D191E7214600F0B8FEA0E79C
:10399C002B2B4FF0010808BF0137AFE70A9BC8F883
:1039AC000490FC18FB5C2D2B40F08C804FF0FF3703
:1039BC00013400232046ADF81C30ADF81E30ADF8B4
:1039CC0020300A93CDE902A63346CDE900B667490B
:1039DC0007AA00F025FE00287ADCAB6AA3F5616328
:1039EC002F464FF000092B650A9B1C4423782C2B87
:1039FC0008BF013494F80080B8F14D0F7AD10DF165
:103A0C002603CDE9016309AB00932046334659499F
:103A1C0003960DF1220200F003FE03287FF446AF5B
:103A2C00BDF822104B1E0B2B3FF640AFBDF82420E7
:103A3C00531E042B3FF63AAFBDF82630062B3FF64B
:103A4C0035AFC7E9031287F808807B610A9B04EB4A
:103A5C0003080223ADF81C300023ADF81E30ADF87E
:103A6C0020300A9398F800302F2B09D1334640466A
:103A7C00CDE902A6CDE900B63F4907AA00F0D0FD7A
:103A8C003C21BDF81E20BDF82030283701FB023345
:103A9C004FF46161BDF81C2001FB023347F8103C68
:103AAC000A9C4444B9F1000F21D06868FFF728FE46
:103ABC00AA6A284B1A602B6D9B1A18BF0123274A40
:103ACC001360F3E62B2B4FF0010708BF013470E7AE
:103ADC003C21BDF81E20BDF8203001FB02334FF411
:103AEC006161BDF81C2001FB02337B4378E74FF08A
:103AFC0001097BE7B8F14A0F0ABF4346442301345E
:103B0C000A2220460BA9059300F08AFEDDF82C80D2
:103B1C00059BA045ADF8260014D14D23B9F1000F3B
:103B2C0007D103212B720223C5F81490C5E90313A6
:103B3C008FE70B2285F830300123C5E90D230023D4
:103B4C00EB6386E780B23B72786182E773560008BC
:103B5C004C0200205402002076560008500200202F
:103B6C00740000203F0200207A5600089D56000881
:103B7C0034020020895600089C560008F8B50E4601
:103B8C001446054618B183690BB900F0E9F9214BCD
:103B9C009C422BD16C68A369A360A3891A072FD50B
:103BAC0023696BB323692068F6B2C01A6369374680
:103BBC00834204DC2146284600F03EF930BBA36862
:103BCC000130013BA36023685A1C22601E7063699C
:103BDC00834204D0A389DB0706D50A2E04D12146E3
:103BEC00284600F029F988B93846F8BD0A4B9C42A2
:103BFC0001D1AC68CFE7094B9C4208BFEC68CAE71F
:103C0C002146284600F00CF80028CBD04FF0FF37A7
:103C1C00EAE700BFD0560008F0560008B05600087E
:103C2C00324B70B51D6806460C4625B1AB6913B90D
:103C3C00284600F095F92E4B9C420FD16C68A38955
:103C4C00B4F90C2019072CD4DD0611D409233360E8
:103C5C0042F040034FF0FF30A3813EE0254B9C42E5
:103C6C0001D1AC68EBE7244B9C4208BFEC68E6E75B
:103C7C00580712D5616B41B104F14403994202D04B
:103C8C003046FFF72FF900236363A38923F0240345
:103C9C00A3810023636023692360A38943F0080395
:103CAC00A38123694BB9A38903F42073B3F5007F77
:103CBC0003D02146304600F063FAA089B4F90C20F9
:103CCC0010F001030AD00023A36063695B42A36177
:103CDC00236943B910F08000BAD170BD810758BF79
:103CEC006369A360F4E70020F7E700BF1000002031
:103CFC00D0560008F0560008B0560008062008B54B
:103D0C0000F072FC0120FEF7BBFD10B591FBF2F444
:103D1C00002902FB141306DB002B01DA01349B1A79
:103D2C00C0E9004310BD002BC4BF04F1FF349B1845
:103D3C00F6E700008A89F8B5054610070C4657D4FB
:103D4C004B68002B04DC0B6C002B01DC0020F8BD55
:103D5C00E66A002EFAD0002312F480522F682B60F2
:103D6C0032D0606DA3895A0705D56368C01A636B9E
:103D7C000BB1236CC01A00230246E66A2846216A5E
:103D8C00B047431CA38906D129681D292CD8294A80
:103D9C00CA40D60728D5002262602269D904226065
:103DAC0004D5421C01D12B6803B96065616B2F608F
:103DBC000029CBD004F14403994202D02846FFF7E6
:103DCC0091F800206063C2E7216A01232846B047BE
:103DDC00411CC7D12B68002BC4D01D2B01D0162B36
:103DEC0001D12F60B2E7A38943F04003A381AEE772
:103DFC000F69002FAAD0930718BF00230E6808BFC5
:103E0C004B69F61B0F608B60002E9FDD33463A46E4
:103E1C002846216AD4F828C0E047002806DCA3898C
:103E2C004FF0FF3043F04003A38190E70744361A6C
:103E3C00EAE700BF0100402038B50B6905460C4687
:103E4C0013B90025284638BD18B183690BB900F0A9
:103E5C0087F8144B9C421BD16C68B4F90C30002BC6
:103E6C00EFD0626ED00704D4990502D4A06D00F097
:103E7C005FF928462146FFF75DFF636E0546DA07BA
:103E8C00E0D4A3899B05DDD4A06D00F053F9D9E7EC
:103E9C00054B9C4201D1AC68DFE7044B9C4208BF48
:103EAC00EC68DAE7D0560008F0560008B056000867
:103EBC00002310B50446C0E90033C0E90433836025
:103ECC0081814366C2818361194608225C30FEF70A
:103EDC008FFD054B24626362044BA362044BE362C7
:103EEC00044B236310BD00BF81460008A7460008A1
:103EFC00DF46000803470008014900F0AFB800BFD7
:103F0C00453E0008682270B54D1E55430E4605F11E
:103F1C007401FFF74FF8044640B10021C0E90016C8
:103F2C000C30A06005F16802FEF762FD204670BD02
:103F3C00014800F0FDB800BF5A020020014800F013
:103F4C00F9B800BF5A020020014800F0F1B800BFD8
:103F5C005B020020014800F0EDB800BF5B020020BE
:103F6C0010B50446FFF7F0FFA3691BB1BDE8104084
:103F7C00FFF7F0BFC4E912332365134B134A1B68D8
:103F8C00A262A34208BF0123204608BFA36100F030
:103F9C001FF86060204600F01BF8A060204600F07F
:103FAC0017F800220421E0606068FFF781FF01220E
:103FBC000921A068FFF77CFF02221221E068FFF7BD
:103FCC0077FF0123A361D1E77C550008053F00086A
:103FDC00F8B50746FFF7ACFF1E4B1E68B36913B963
:103FEC003046FFF7BDFF4836D6E90134013B03D517
:103FFC0033680BB33668F7E7B4F90C50D5B9164BE8
:10400C0004F15800E360656600F090F8FFF796FF46
:10401C0008222946C4E90155C4E904552560A56167
:10402C0004F15C00FEF7E4FCC4E90D55C4E912553B
:10403C002046F8BD6834D9E704213846FFF762FF03
:10404C00044630600028D5D1FFF778FF0C233B6085
:10405C00EEE700BF7C5500080100FFFF2DE9F84397
:10406C0006468846002700F14804D4E90195B9F1C9
:10407C00010905D52468002CF7D13846BDE8F88332
:10408C00AB89012B07D9B5F90E30013303D0294682
:10409C003046C04707436835E9E700002DE9F84F83
:1040AC00DFF86CA007468946164600F0E5FBDAF807
:1040BC00004034B14B46984613F8012B3AB13D2AD7
:1040CC00F9D1384600F0DEFB0020BDE8F88FA8EBF4
:1040DC000908A34654F8040B0028F2D0424649467E
:1040EC0000F015FB0028F4D154F8043C03EB080550
:1040FC0013F808303D2BECD1DAF800303846ABEB36
:10410C0003039B10336000F0BDFB681CDDE700BFB0
:10411C000C00002007B501AAFFF7C0FF03B05DF843
:10412C0004FB000000487047800000207047704777
:10413C0070477047704770B50E46B1F90E101446B3
:10414C0000291D4696B008DA0022B6F90C302A6018
:10415C001A0610D44FF480630EE06A4600F098FB08
:10416C000028F1DB019A02F47042A2F500535A4286
:10417C005A412A60EEE740230020236016B070BD40
:10418C008B8973B59D0706460C4607D504F147038A
:10419C00236023610123636102B070BD6A4601ABE9
:1041AC00FFF7C9FF009905463046FEF703FF48B9F3
:1041BC00B4F90C309A05EFD423F0030343F0020357
:1041CC00A381E3E70D4BB362A389206043F0800326
:1041DC00A381009B20616361019B5BB13046B4F904
:1041EC000E1000F067FB28B1A38923F0030343F002
:1041FC000103A381A0890543A581CDE7053F0008F4
:10420C00034610B5C9B202449342184601D10020AE
:10421C0003E0047801338C42F6D110BD0A4491427C
:10422C0000F1FF3300D1704710B511F8014B9142EA
:10423C0003F8014FF9D110BD884210B501EB02040F
:10424C0002D98442234607D8431EA14208D011F854
:10425C00012B03F8012FF8E7014602448A4200D1F2
:10426C0010BD13F8014D02F8014DF7E70148FFF7B7
:10427C005FBF00BF590200200148FFF75BBF00BFC2
:10428C00590200202DE9F041804614460E4621B912
:10429C001146BDE8F041FEF78DBE2AB9FEF722FEAD
:1042AC0025462846BDE8F08100F026FB84420746EF
:1042BC0002D8B4EB500F12D821464046FEF77AFED6
:1042CC0005460028EDD0BC422246314628BF3A466E
:1042DC00FFF7A4FF31464046FEF704FEE1E7354602
:1042EC00DFE72DE9F0478E6882469E420C469046E9
:1042FC001F4638D88A8912F4906F32D02568096924
:10430C000133A5EB010965694B4405EB450505EB4C
:10431C00D5756D109D4238BF1D46530531D52946C4
:10432C00FEF748FE064650B90C234FF0FF30CAF892
:10433C000030A38943F04003A381BDE8F0874A46CF
:10434C002169FFF76BFFA38923F4906343F080038B
:10435C00A38126614E4426603E466561A5EB0905A6
:10436C00A560BE4200D93E46324641462068FFF762
:10437C0063FFA36800209B1BA36023683344236066
:10438C00DBE72A46FFF77EFF06460028E1D15046C0
:10439C002169FEF7A7FDC7E72DE9F04F98468B89F9
:1043AC0007461B060D4614469DB00ED50B6963B926
:1043BC004021FEF7FFFD2860286120B90C233B60EB
:1043CC004FF0FF30D1E040236B6100230993202391
:1043DC008DF8293030234FF00109CDF80C80DFF82F
:1043EC00A4818DF82A3023469A4613F8012B0AB182
:1043FC00252AF9D1BAEB040B0BD05B462246294691
:10440C003846FFF76EFF013000F0AA80099A5A4433
:10441C0009929AF80030002B00F0A28000234FF094
:10442C00FF32CDE905230AF1010A049307938DF8B5
:10443C0053301A935446052214F8011B5148FFF7C8
:10444C00DFFE049AD8B9D00644BF20238DF8533030
:10445C00110744BF2B238DF853309AF800302A2BC8
:10446C0015D0544600204FF00A0C079A214611F83B
:10447C00013B303B092B4ED9B0B1079214E0A0EBB5
:10448C00080309FA03F31343A2460493D2E7039BF0
:10449C00191D1B680391002BBBBF5B4242F002024B
:1044AC0007930793B8BF049223782E2B0CD1637813
:1044BC002A2B35D1039B02341A1D1B680392002B47
:1044CC00B8BF4FF0FF330593DFF8BCA00322504672
:1044DC002178FFF795FE40B14023A0EB0A0003FAC8
:1044EC0000F0049B01340343049314F8011B0622CF
:1044FC0026488DF82810FFF783FE002838D0244B6F
:10450C001BBB039B073323F0070308330393099B5F
:10451C003344099367E70C4601200CFB0232A5E7F4
:10452C0000234FF00A0C194601340593204610F86D
:10453C00012B303A092A03D9002BC5D00591C3E7CA
:10454C00044601230CFB0121F0E703AB00932A4640
:10455C003846104B04A9AFF30080421C0646D6D156
:10456C00AB895B063FF52CAF09981DB0BDE8F08F09
:10457C0003AB00932A463846064B04A9FEF756FFB8
:10458C00EBE700BF40560008465600084A560008A4
:10459C0000000000EF4200081F2938B504460D4604
:1045AC0004D9162303604FF0FF3038BD426C12B1B2
:1045BC0052F821304BB9204600F030F82A4601461B
:1045CC002046BDE8384000F017B8012B0AD0591C22
:1045DC0003D1162303600120E7E70024284642F8A4
:1045EC00254098470020E0E7024B01461868FFF78A
:1045FC00D3BF00BF1000002038B50023064D044681
:10460C00084611462B60FEF733F9431C02D12B6888
:10461C0003B1236038BD00BF60020020FEF726B94D
:10462C000EB44FF4017230B59CB01FAC54F8045B5F
:10463C00ADF8142002900690FBF7A4FD0B4B0390F1
:10464C000B9300230F9314934FF6FF7307900848B6
:10465C00ADF816302A46234602A90068019400F0F2
:10466C00ADF91CB0BDE8304003B07047A34600085C
:10467C001000002010B50C46B1F90E1000F06AFCC9
:10468C000028ABBF636DA3891B1823F48053ACBF08
:10469C006365A38110BD002070472DE9F0411F46D2
:1046AC008B890546DB050C46164605D502230022F0
:1046BC00B1F90E1000F00EF9A389324623F48053A1
:1046CC00A38128463B46B4F90E10BDE8F04100F03A
:1046DC00B1B810B50C46B1F90E1000F0FBF8431C44
:1046EC00A38915BF606523F4805343F48053A381E1
:1046FC0018BFA38110BDB1F90E1000F0ADB8034680
:10470C0011F8012B03F8012B002AF9D1704703464D
:10471C0010B572B10139841813F8010B11F8012F7F
:10472C00904201D1A34201D1801A10BD0028F3D1CF
:10473C00FAE71046F9E700002DE9F04386460D46EE
:10474C00354F284615F8014BE65D16F00806F8D1F2
:10475C002D2C2FD101262C78851C002B57D0102BFB
:10476C0009D1302C07D1287800F0DF00582849D126
:10477C0010236C7802354FF0FF38B8FBF3F80027A4
:10478C0003FB08F938466FEA0909A4F1300CBCF1B7
:10479C00090F14D86446A34222DD002F1DDB80458F
:1047AC001BD301D1A14518DB012700FB034015F8F1
:1047BC00014BEAE72B2C04BF2C78851CCDE7A4F128
:1047CC00410CBCF1190F01D8373CE4E7A4F1610CA2
:1047DC00BCF1190F04D8573CDDE74FF0FF37E6E783
:1047EC00002F07DA22234FF0FF30CEF8003032B919
:1047FC00BDE8F08306B14042002AF9D007B1691E2A
:10480C001160F5E73024002BB5D10823B3E7302C29
:10481C00A9D00A23AFE700BF11570008FFF78CBFE0
:10482C0013460A46014602480068FFF785BF00BFE1
:10483C001000002038B50446084611460022054DEC
:10484C002A601A46FEF732F8431C02D12B6803B1DA
:10485C00236038BD6002002038B50023054D0446A6
:10486C0008462B60FEF730F8431C02D12B6803B1CD
:10487C00236038BD600200200148FFF759BC00BF1F
:10488C00580200200148FFF755BC00BF5802002019
:10489C0038B50023064D0446084611462B60FEF73A
:1048AC0016F8431C02D12B6803B1236038BD00BF3E
:1048BC006002002038B50023054D044608462B60E5
:1048CC00FEF70AF8431C02D12B6803B1236038BDF4
:1048DC006002002038B50446084611460022054DFA
:1048EC002A601A46FDF7FAFF431C02D12B6803B16C
:1048FC00236038BD6002002051F8043C181F002BC7
:10490C00BCBF0B58C018704738B54B1C144603D1AC
:10491C004FF0FF35284638BD9389CDB223F02003E4
:10492C009381636B52688BB1A36B934208DD236850
:10493C005A1E226003F8015C636801336360E9E787
:10494C00214600F0CFFB0028F1D0E1E72169236874
:10495C0051B1994208D213F8011CA94204D1013B70
:10496C00013223606260D5E7C4E90F3204F14403DD
:10497C0063630323A363234603F8465F2360012389
:10498C00DCE710B50C46496B69B104F1440399425C
:10499C0001D0FEF7A7FA0020236C6063636013B1AB
:1049AC00E36B236010BD23694FF0FF3023600023BD
:1049BC006360A38943F02003A381F3E72DE9F0475B
:1049CC000C4600210646ADF5227DCDE94411A749E0
:1049DC000DF10408A091A649A64FDFF89C92CDF8E2
:1049EC001881A19100931378002B00F05C81D95DA4
:1049FC00551C11F0080119D06368002B0FDD2368DA
:104A0C001A78BA5C120701D42A46ECE7459A0133AE
:104A1C000132459262682360013A6260ECE72146FC
:104A2C003046A19B98470028E9D0EDE7252B12D002
:104A3C009A466368002B40F39480226813785345A0
:104A4C0040F0318163680132013B6360459B226019
:104A5C0001334593D8E74191439153782A2B04BFF6
:104A6C001023951C4FF00A0208BF4193AA461AF86E
:104A7C00011BA1F13003092B1DD903227E48FFF73E
:104A8C00BFFB40B101235546A0EB090003FA00F02F
:104A9C00419B1843419015F8013B782B06D8572BB6
:104AAC0010D8252BC4D057D8002B65D0032347939F
:104ABC000A23429372E0439B554602FB03113039A3
:104ACC004391D3E7A3F15802202AEFD801A151F862
:104ADC0022F000BF934B0008B94A0008B94A0008FD
:104AEC00F14B0008B94A0008B94A0008B94A000855
:104AFC00B94A0008B94A0008B94A0008B94A00087E
:104B0C00074C0008DD4B00086B4B00086B4B000892
:104B1C006B4B0008B94A0008E14B0008B94A000881
:104B2C00B94A0008B94A0008B94A0008174C0008ED
:104B3C00E94B00088B4B0008B94A0008B94A000839
:104B4C00134C0008B94A0008DD4B0008B94A0008AC
:104B5C00B94A0008934B0008453B022BA6D8052305
:104B6C001BE021463046A19B984700283FF465AFD7
:104B7C004498002840F08D804FF0FF308FE0419A30
:104B8C0042F020024192419A42F40072419210226A
:104B9C006F2B34BF03230423429247936368002B8B
:104BAC0042DD419B590604D423681A78BA5C12077B
:104BBC0041D4479B022B50DC6B462246304641A920
:104BCC0000F076F801286ED002287FF41DAFCFE7F5
:104BDC000A22DDE7002342930323DEE708234293F6
:104BEC000423DAE72946404600F0C6F9419B054606
:104BFC0043F0400341930123CFE7419B43F0400333
:104C0C0041930023C9E70223C7E74198C3063FF548
:104C1C00FBAE009B459A191D00911B6810F0010F0B
:104C2C0014BF1A801A60EFE621463046A19B9847C4
:104C3C000028B6D09CE7459A013245926268013A49
:104C4C00002A626002DD01332360ADE72146304665
:104C5C00A19B98470028A7D08AE7042B0EDC6B4653
:104C6C002246304641A900F07DF8ABE71549000813
:104C7C008F49000811570008465600080B4B002BB3
:104C8C003FF4C2AE6B462246304641A9AFF30080DA
:104C9C0098E7A38913F0400F18BF4FF0FF300DF5C4
:104CAC00227DBDE8F0874498F9E700BF00000000C2
:104CBC002DE9F84315468A6880460C4632B98A6954
:104CCC00002A0CBF01224FF0FF328A6000272268B5
:104CDC00DFF88C90D1065FBF1A68111D1960166839
:104CEC00A06988B1012807D12B681A7863699B5C8D
:104CFC0053B9002F31D022E0022820D12B681B7829
:104D0C0013F809301B071AD423680137DA065EBF83
:104D1C002B681B7806F8013B2A686B6801322A6005
:104D2C00A268013B013A6B60A26042B1002BD7DC58
:104D3C0029464046D4F8803198470028D0D02368C3
:104D4C0013F0100305D1E2680132E260A26902B1EE
:104D5C003370002023693B442361BDE8F88300BF16
:104D6C00115700082DE9F04F0C469846754B87B04B
:104D7C008246164693E8070003AB83E80700724BA4
:104D8C00A169724A2746032918BF1A46A3680192E3
:104D9C005A1EB2F5AE7F81BF6FF4AE7503EB0509F9
:104DAC0040F25D13A36057F81C3B98BF4FF000090D
:104DBC003D464FF0000B43F450632360316803AB66
:104DCC000222097853F82B00FFF71AFA28B3BBF12B
:104DDC00010F59D162682AB908232268636042F432
:104DEC0000722260226822F4A0622260A268511E26
:104DFC00A16092B13268511C3160127805F8012B18
:104E0C007268013A002A726007DC31465046D4F8C9
:104E1C0080219047002840F085800BF1010BBBF1FD
:104E2C00030FCBD163680BB90A23636063684849ED
:104E3C006069C91A00F0A0F84FF0000BA368226853
:104E4C00002B3DD03168606991F800C010F80C005F
:104E5C00002835D0BCF1300F24D1100522D50BF130
:104E6C00010BB9F1000F03D0013309F1FF39A36035
:104E7C007368013B002B73601BDD336801333360B7
:104E8C00A368013BA360D9E7BBF1020FAED1226846
:104E9C0002F4C061B1F5007FBFD1102342F48072DF
:104EAC006360A2E722F4106222600B7805F8013BE4
:104EBC00DEE731465046D4F8803198470028DFD0E1
:104ECC002368DB050DD5BD4209D915F8011C324606
:104EDC005046D4F87C3105F1FF3998474D46BD4218
:104EEC002DD0226812F0100213D12A703946636853
:104EFC005046019EB0472168D8F8003011F0200FC1
:104F0C0013D01A1DC8F800201B681860E368013321
:104F1C00E3600020ED1BAB4425695D44256107B0BF
:104F2C00BDE8F08F4FF0000BCAE71A1DC8F800203F
:104F3C001B6811F0010F14BF18801860E6E7012000
:104F4C00EDE700BF7851000829480008ED50000833
:104F5C002A58000838B50446084611460022054D6B
:104F6C002A601A46FDF792FC431C02D12B6803B150
:104F7C00236038BD6002002070B50B7804465E2BB0
:104F8C0013BF002201224B78481C08BF881C04F177
:104F9C00FF05611E01F8012FA942FBD10BB90138A5
:104FAC0070BD82F001020546E254284610F8011B40
:104FBC002D2906D05D29F3D009B92846F0E70B4618
:104FCC00F1E76E785D2EFAD0B342F8DC1946023563
:104FDC0001318E426254FBDCF11A0139B342A8BF95
:104FEC000021581C4318E0E7012B2DE9F0478046BF
:104FFC0001D0242B06D9FDF7B7FC16230360002043
:10500C00BDE8F0870D46354F284615F8014BE65D97
:10501C0016F00806F8D12D2C2FD101262C78851CE2
:10502C00002B57D0102B09D1302C07D1287800F049
:10503C00DF00582849D110236C780235002706F17F
:10504C00004E0EF1FF3EBEFBF3F9384603FB19EAA6
:10505C00A4F1300CBCF1090F14D86446A34222DD34
:10506C00002F1DDB81451BD301D1A24518DB012785
:10507C0000FB034015F8014BEAE72B2C04BF2C78FE
:10508C00851CCDE7A4F1410CBCF1190F01D8373CBC
:10509C00E4E7A4F1610CBCF1190F04D8573CDDE72F
:1050AC004FF0FF37E6E7002F07DA22237046C8F8E7
:1050BC000030002AA4D0691E05E006B14042002A47
:1050CC009ED0002FF7D111609AE73024002BB5D178
:1050DC000823B3E7302CA9D00A23AFE711570008F7
:1050EC00FFF782BF2DE9F0410C46496B04F14403F4
:1050FC0099421BD14FF48061FDF75CFF18B94FF05A
:10510C00FF30BDE8F0814FF48063A36394F8463020
:10511C00606380F8FF3394F8453000F2FD30437043
:10512C0094F84430037020600020EAE7A66B770007
:10513C003A46FFF7A7F805460028E0D000EB060832
:10514C00014632464046FFF769F8C4E90D57C4F8EA
:10515C000080E9E7F8B500BFF8BC08BC9E46704774
:0C516C00F8B500BFF8BC08BC9E467047B8
:10517800115800081458000817580008796561721A
:105188005F6379636C65203E3D20300074696D650E
:105198007236342F74696D6536342E630000000052
:1051A800796561725F6379636C65203C20534F4C6D
:1051B80041525F4359434C455F4C454E4754480064
:1051C80030000000736166655F79656172203C3D5F
:1051D800204D41585F534146455F5945415220266D
:1051E8002620736166655F79656172203E3D204DBA
:1051F800494E5F534146455F594541520000000002
:10520800746D2D3E746D5F736563203E3D203000E4
:10521800746D2D3E746D5F736563203C3D2036319F
:1052280000000000746D2D3E746D5F6D696E203E48
:105238003D203000746D2D3E746D5F6D696E203CAD
:105248003D20353900000000746D2D3E746D5F6897
:105258006F7572203E3D203000000000746D2D3EB9
:10526800746D5F686F7572203C3D2032330000001A
:10527800746D2D3E746D5F6D646179203E3D203103
:1052880000000000746D2D3E746D5F6D64617920BF
:105298003C3D20646179735F696E5F6D6F6E746801
:1052A8005B49535F4C45415028746D2D3E746D5FCA
:1052B80079656172295D5B746D2D3E746D5F6D6FEC
:1052C8006E5D0000746D2D3E746D5F6D6F6E203ED7
:1052D8003D203000746D2D3E746D5F6D6F6E203C07
:1052E8003D20313100000000746D2D3E746D5F77F4
:1052F800646179203E3D203000000000746D2D3E31
:10530800746D5F77646179203C3D203600000000B1
:10531800746D2D3E746D5F79646179203E3D203057
:1053280000000000746D2D3E746D5F796461792012
:105338003C3D206C656E6774685F6F665F79656178
:10534800725B49535F4C45415028746D2D3E746D16
:105358005F79656172295D007020213D204E554CB2
:105368004C000000636865636B5F746D28702900EA
:10537800070000000E0000001300000012000000EB
:10538800000000008A000000010000001100000079
:1053980000000000340000002D0000000C00000098
:1053A8000D0000000B0000000100000005000000D7
:1053B8005A01000000000000636865636B5F746D4C
:1053C80000000000676D74696D6536345F72000017
:1053D800736166655F796561720000001F1C1F1E9E
:1053E8001F1E1F1F1E1F1E1F1F1D1F1E1F1E1F1FCC
:1053F8001E1F1E1F00001F003B005A007800970068
:10540800B500D400F300110130014E0100001F0067
:105418003C005B0079009800B600D500F40012014A
:1054280031014F016D016E01E007E107E207E30773
:10543800E407E507E607E707E807E907EA07EB07F0
:10544800EC07ED07EE07EF07F007F107F207F307A0
:10545800F407F507DA07DB07DC07DD07DE07DF07F8
:10546800CC070000CD070000CE070000B3070000FE
:10547800B4070000B5070000B6070000B707000032
:10548800B8070000B9070000BA070000BB07000012
:10549800BC070000BD070000BE070000BF070000F2
:1054A800C0070000C1070000C2070000C3070000D2
:1054B800C4070000C5070000C6070000C7070000B2
:1054C800C8070000C9070000CA070000CB07000092
:1054D8004453333233313D256C752C204E54503DA6
:1054E800256C750D0A0000006D73673D2450445407
:1054F8002C312C25632563256325632563256325C6
:105508006325632A256325632C2055543D256C7536
:105518000D0A000000000000000000000102030462
:105528000607080900000000010203040304060836
:105538000C101820302C2066756E6374696F6E3AF3
:105548002000617373657274696F6E20222573225F
:10555800206661696C65643A2066696C652022255D
:1055680073222C206C696E65202564257325730AC7
:1055780000000000140000201F0000001C000000B4
:105588001F0000001E0000001F0000001E00000099
:105598001F0000001F0000001E0000001F00000088
:1055A8001E0000001F000000000000001F00000097
:1055B8003B0000005A00000078000000970000003F
:1055C800B5000000D4000000F30000001101000045
:1055D800300100004E0100001F0000001C00000008
:1055E8001F0000001E0000001F0000001E00000039
:1055F8001F0000001F0000001E0000001F00000028
:105608001E0000001F0000001F0000001D00000019
:105618001F0000001E0000001F0000001E00000008
:105628001F0000001F0000001E0000001F000000F7
:105638001E0000001F000000232D302B2000686C86
:105648004C0065666745464700303132333435369D
:1056580037383941424344454600303132333435D6
:105668003637383961626364656600545A00474DBD
:1056780054002531305B5E302D392C2B2D5D256E85
:10568800004D256875256E2E256875256E2E2568B2
:1056980075256E002F256875256E3A256875256E67
:1056A8003A256875256E0000000000000000000023
:1056B80000000000000000000000000000000000E2
:1056C80000000000000000000000000000000000D2
:1056D80000000000000000000000000000000000C2
:1056E80000000000000000000000000000000000B2
:1056F80000000000000000000000000000000000A2
:1057080000000000000000000020202020202020B1
:105718002020282828282820202020202020202059
:105728002020202020202020208810101010101069
:1057380010101010101010101004040404040404B5
:10574800040404101010101010104141414141414F
:105758000101010101010101010101010101010131
:105768000101010110101010101042424242424241
:105778000202020202020202020202020202020201
:1057880002020202101010102000000000000000A9
:105798000000000000000000000000000000000001
:1057A80000000000000000000000000000000000F1
:1057B80000000000000000000000000000000000E1
:1057C80000000000000000000000000000000000D1
:1057D80000000000000000000000000000000000C1
:1057E80000000000000000000000000000000000B1
:1057F80000000000000000000000000000000000A1
:105808000000000000000000002B2D003030007860
:105818005800412D46612D663839303132333435E0
:0458280036375D00B2
:08582C0014AAFF7F0100000037
:045834006101000806
:045838003D01000826
:10583C0010000000CE01002068FF1F00280200208D
:10584C001400002000000000D0560008F05600089C
:10585C00B05600080000000000000000000000002E
:10586C00000000000000000000000000000000002C
:10587C00000000000000000000000000000000001C
:10588C00000000000000000000000000000000000C
:10589C0000000000000000000000000000000000FC
:1058AC000000000076560008765600080000000044
:1058BC0001000000000000004A0000000000000091
:1058CC0000000000000000000000000000000000CC
:1058DC0000000000000000000000000000000000BC
:1058EC004A00000000000000000000000000000062
:1058FC00000000000000000000000000000000009C
:08590C00000000000000000093
:04000005080028EDDA
:00000001FF
