:020000040800F2
:1000000000280020FD1E00089B0A00089D0A000829
:100010009F0A0008A10A0008A30A000800000000C7
:10002000000000000000000000000000A50A000819
:10003000A70A000800000000A90A0008AB0A00088F
:10004000451F0008451F0008451F0008451F000800
:10005000451F0008451F0008451F0008451F0008F0
:10006000451F0008451F0008451F0008451F0008E0
:10007000451F0008451F0008451F0008451F0008D0
:10008000451F0008451F0008451F0008451F0008C0
:10009000451F0008451F0008451F0008451F0008B0
:1000A00000000000451F0008451F0008451F00080C
:1000B000451F0008451F0008451F0008451F000890
:1000C000451F0008451F0008451F0008451F000880
:1000D000451F0008451F0008451F0008451F000870
:1000E000451F0008451F0008451F00082507000898
:1000F000451F000800000000000000000000000094
:1001000000000000000000000000000000000000EF
:1001100000000000000000000000000000000000DF
:1001200000000000000000000000000000000000CF
:0C01300000000000000000005FF808F173
:10013C0010B5054C237833B9044B13B10448AFF315
:10014C0000800123237010BD10000020000000006F
:10015C00901F000808B5034B1BB103490348AFF3CC
:10016C00008008BD0000000014000020901F000853
:10017C0008B5074B03220021D02000F009FE00B186
:10018C0008BD03490322881D00F038FEF8E700BFC4
:10019C002C00002072B6FEE708B52A4B1A6842F014
:1001AC0004021A601A6842F001021A60254B1B689F
:1001BC0013F0010FFAD0244A136823F4C05343F40C
:1001CC0000631360204B5B6813F0100FFAD11F4AC9
:1001DC00136843F4803313601C4B1B6813F4003F0B
:1001EC00FAD01A4A936823F47D0343F41103936005
:1001FC00136843F080731360144B1B6813F0007F7B
:10020C00FAD0124B9A6822F0F0029A609A6822F4A3
:10021C00E0629A609A6822F460529A609A6842F09E
:10022C0003029A60094B9B6803F00C030C2BF9D169
:10023C00074800F0BDFC0F2001F0A6FB00B908BD7B
:10024C00FFF7A8FF003C024000700040003802405D
:10025C000048E80110B501F0BFFBFFF79DFF00F06F
:10026C0041F800F043F900F011FA01F033FD00F011
:10027C00A9FA194A194B03CB10605160104601F0D2
:10028C0099FD174B03220021D02000F081FD08BB03
:10029C0013490322881D00F0B1FD1BE0204600F03D
:1002AC00EFFA0F4B1A1990793038C0B2187400F06D
:1002BC00C3FB40F2DC5000F017FA204600F0A2FA23
:1002CC0000F004FB40F2EE2000F00EFA0134E4B230
:1002DC00052CE3D90024FBE7CC000020A81F000864
:1002EC002C0000202DE9F04F8BB0002404940594D1
:1002FC000694079408940994784BDA6942F020022A
:10030C00DA61DA6902F020020392039ADA6942F0A8
:10031C000102DA61DA6902F001020292029ADA69E8
:10032C0042F00202DA61DB6903F002030193019BE4
:10033C006B4F4FF47C13BB616A4E6B4BB361012561
:10034C000495059504A9384600F038FC4FF0020BD3
:10035C00CDF810B0059506940794089404A9384676
:10036C0000F02CFC04230493059506940794089440
:10037C0004A9384600F022FC4FF0080ACDF810A072
:10038C00059506940794089404A9384600F016FCC9
:10039C004FF01009CDF81090059506940794089429
:1003AC000DEB0901384600F009FC4FF02008CDF8A0
:1003BC00108005950694079408940DEB09013846B6
:1003CC0000F0FCFB049505950694079408940DEB3E
:1003DC000901304600F0F2FBCDF810B005950694FB
:1003EC00079408940DEB0901304600F0E7FB4FF43D
:1003FC008063049305950694079408940DEB09010A
:10040C00304600F0DBFB4FF48053049305950694C3
:10041C00079408940DEB0901304600F0CFFB4FF424
:10042C000053049305950694079408940DEB090169
:10043C00304600F0C3FB4FF48043049305940894BA
:10044C000DEB0901304600F0B9FB4FF40043049367
:10045C0005950694079408940DEB0901304600F0BD
:10046C00ADFBCDF810A005950694079408940DEB00
:10047C000901304600F0A2FBCDF8109005950694CA
:10048C00079408940DEB0901304600F097FBCDF86A
:10049C00108005950694079408940DEB09013046DD
:1004AC0000F08CFB4FF4807304930595069407942D
:1004BC0008940DEB0901304600F080FB4FF40073FB
:1004CC00049305950694079408940DEB09013046A6
:1004DC0000F074FB0BB0BDE8F08F00BF0038024099
:1004EC00000002400004024000003BB708B50B4876
:1004FC000B4B03600B4B436000238360C3604FF4D2
:10050C008042026143618361C361036200F020FF9A
:10051C0000B908BDFFF73EFEFBE700BF400000201E
:10052C0000540040A086010010B588B0002303934E
:10053C0004930593069307930268124B9A4201D0D9
:10054C0008B010BD104CE36943F00203E361E369AA
:10055C0003F002030193019BC02303931223049322
:10056C00032306930423079303A9084801F06CFAAC
:10057C00636A43F400136362636A03F40013029327
:10058C00029BDDE7005400400038024000040240AA
:10059C0038B5054600240CE0134B03EB0413002282
:1005AC001A72114B03EB0013DB68013098470134CE
:1005BC00A4B2012C17D820460B4B03EB04131B7A67
:1005CC00012BF4D12301084AD358AB42EFD802EBEC
:1005DC0004135B7A002BDFD0210102EB04135B6860
:1005EC002B445350DDE738BDA8000020014BD3E964
:1005FC00000170479800002030B587B000250295A7
:10060C000395049505951B4B5A6A42F010025A62E9
:10061C005B6A03F010030193019B1F23ADF80830B4
:10062C0040F2E7330493144C02A9204600F070FB0F
:10063C00236823F080032360636823F070036360F6
:10064C00A36823F08003A3606FF001032361E368C8
:10065C0043F00103E3606562084BDB68084B83F8E9
:10066C002B534FF400625A60236843F0010323605C
:10067C0007B030BD003802400010004000ED00E033
:10068C0000E100E008B5FFF773FD08BD10B586B0BA
:10069C0000230293039304930593114B5A6A42F07F
:1006AC0020025A625B6A03F020030193019B1F2313
:1006BC00ADF808304FF47A7304930A4C02A9204623
:1006CC0000F026FB236823F080032360636823F08B
:1006DC0070036360A36823F08003A36006B010BDB1
:1006EC0000380240001400400A4BD8626FF001023F
:1006FC001A6100225A621A6842F001021A60054B14
:10070C001B6913F0010FFAD0024A136823F001039E
:10071C00136070470014004038B50D4B1B6913F083
:10072C00010F14D00A496FF001030B610948D0E99D
:10073C000023541C43F10005C0E900450B6843F04D
:10074C0001030B60044B1B680BB103C8984738BD01
:10075C0000100040980000209400002070B5064660
:10076C004FF0000CBCF1010F25D86546134C04EB7F
:10077C000C1EDEF80C4024B10CF1010C1FFA8CFCA1
:10078C00F0E7CEF804608EF80910CEF80C2063B1B7
:10079C000B4B1B6898470644084A2B0102EB0511CA
:1007AC00D65001230B72681C06E0044B03EB0C13B0
:1007BC0000221A72F7E7002070BD00BFA8000020CD
:1007CC00A400002008B5FFF717FF084B084A1A6071
:1007DC00084B094A1A600123084A19464FF47A70EB
:1007EC00FFF7BCFF064B186008BD00BF940000204B
:1007FC009D050008A4000020F905000891060008DA
:10080C00A0000020052821D8DFE800F003080D1215
:10081C00171C0F4B4FF480329A6170470C4B4FF4FE
:10082C0000329A6170470A4B4FF480229A617047EC
:10083C00074B4FF400229A617047054B4FF480121E
:10084C009A617047024B4FF400129A61704700BFD7
:10085C0000000240094B4FF480329A614FF4003291
:10086C009A614FF480229A614FF400229A614FF4FE
:10087C0080129A614FF400129A6170470000024096
:10088C0010B50446FFF7E6FF052C07D8DFE804F0A7
:10089C0003070B0F13170C4B01229A6110BD0A4B67
:1008AC0002229A61FAE7084B04229A61F6E7064B9A
:1008BC0008229A61F2E7044B10229A61EEE7024B90
:1008CC0020229A61EAE700BF000002400C4B4FF473
:1008DC0000329A614FF480329A614FF400229A618F
:1008EC004FF480129A614FF400129A614FF08072AB
:1008FC009A614FF000729A614FF000529A61704702
:10090C0000040240074B02229A6101229A610822DC
:10091C009A6110229A6120229A614FF480729A6136
:10092C00704700BF00040240024B01229A6108226A
:10093C009A61704700040240064B02229A61012220
:10094C009A614FF400729A6120229A6110229A6186
:10095C00704700BF00040240064B02229A6101223C
:10096C009A614FF400729A6108229A6110229A617E
:10097C00704700BF00040240054B01229A61082217
:10098C009A614FF480729A614FF400729A617047C9
:10099C0000040240064B02229A614FF480729A6165
:1009AC004FF400729A6108229A6110229A61704782
:1009BC0000040240074B02229A6108229A6110221D
:1009CC009A6120229A614FF480729A614FF40072FE
:1009DC009A61704700040240034B02229A61012283
:1009EC009A6108229A61704700040240084B022267
:1009FC009A6101229A6108229A6110229A6120223E
:100A0C009A614FF480729A614FF400729A61704748
:100A1C0000040240074B02229A6101229A610822CB
:100A2C009A6110229A614FF480729A614FF40072AD
:100A3C009A6170470004024010B50446FFF746FF68
:100A4C00092C08D8DFE804F005080B0E1114171A4E
:100A5C001D20FFF757FF10BDFFF766FFFBE7FFF701
:100A6C006BFFF8E7FFF778FFF5E7FFF785FFF2E795
:100A7C00FFF790FFEFE7FFF79DFFECE7FFF7ACFF09
:100A8C00E9E7FFF7B3FFE6E7FFF7C4FFE3E7FEE7AD
:100A9C00FEE7FEE7FEE7FEE770477047704708B5D4
:100AAC0000F0AAFF08BD0000034B9B68C3F30313BF
:100ABC00024AD35CD840704700380240B01F00088F
:100ACC00034B9B68C3F30223024AD35CD8407047A4
:100ADC0000380240C01F0008034B9B68C3F3C223BD
:100AEC00024AD35CD840704700380240C01F00084F
:100AFC000B4B9B6803F480337BB90A49084A936813
:100B0C00C3F383430848C05C01FB00F09368C3F354
:100B1C0081530133B0FBF3F070470449EEE700BF9B
:100B2C00003802400024F400C81F000800127A00AC
:100B3C0008B5144B9B6803F00C030C2B16D8DFE89C
:100B4C0003F009151515071515151E1515151200A9
:100B5C000D4807E00B4B5868C0F34230431C4FF470
:100B6C000040984008BDFFF7C3FFFBE7054B5868F2
:100B7C00C0F34230431C4FF400409840F2E7034866
:100B8C00F0E700BF003802400024F40000127A00A5
:100B9C0010B50446FFF7CCFF2060FFF785FF6060BF
:100BAC00FFF78EFFA0606068FFF796FFE06010BD56
:100BBC00014B1860704700BF000000200B6893FACF
:100BCC00A3F3B3FA83FC56E08D68826893FAA3F41E
:100BDC00B4FA84F464004FF0030E0EFA04F422EA23
:100BEC00040293FAA3F4B4FA84F4640005FA04F44E
:100BFC0022438260CC68426822EA030203FB04F4BD
:100C0C002243426045E093FAA3F2B2FA82F2072A39
:100C1C0015D84D69026A93FAA3F4B4FA84F4A400CB
:100C2C000F2606FA04F422EA040293FAA3F4B4FAA7
:100C3C0084F4A40005FA04F42243026241E04C69F6
:100C4C00456A1A0A92FAA2FEBEFA8EFE4FEA8E0E80
:100C5C000F2606FA0EFE25EA0E0592FAA2F2B2FA59
:100C6C0082F2920004FA02F22A43426229E0002046
:100C7C0070BD0CF1010C0B6833FA0CF244D001225C
:100C8C0002FA0CF21340F4D070B54A68013A012A0A
:100C9C009AD9C26893FAA3F4B4FA84F464000325D5
:100CAC0005FA04F422EA040293FAA3F4B4FA84F4E5
:100CBC0064000D6905FA04F42243C2604A68022AF2
:100CCC00A1D04A68046893FAA3FEBEFA8EFE4FEADE
:100CDC004E0E032505FA0EFE24EA0E0E93FAA3F32C
:100CEC00B3FA83F35B0002FA03F34EEA03030360E7
:100CFC000CF1010C0B6833FA0CF2B8D0012202FA99
:100D0C000CF21340F4D0C0E700207047704700008D
:100D1C000368B0F1804F06D0174A904203D002F519
:100D2C008062904203D123F070034A681343B0F100
:100D3C00804F12D0104A90420FD002F58062904240
:100D4C000BD002F58032904207D002F580629042BF
:100D5C0003D002F58062904203D123F44073CA6839
:100D6C00134303608B68C3620B888362436943F04F
:100D7C00010343610020704700040040030903EBAA
:100D8C00830300F00F0000EB4300C0B2704700007B
:100D9C00F0B585B016461D468DF80F1004464FF67B
:100DAC00FF73009301230DF10F020146124800F06E
:100DBC00ADFBE8B9104800F0E3FD2028FAD14FF65E
:100DCC00FF73009333462A4621460B4800F05AFC29
:100DDC00074678B9044606E02878FFF7CFFF05F8F8
:100DEC00010B0134E4B2B442F6D3384605B0F0BD81
:100DFC000127FAE70127F8E74000002002F1FF3C49
:100E0C004FFA8CFCBCF1000F1EDB10B511F80C2056
:100E1C000E4BA3FB02E2D208303286460EF8022BB0
:100E2C0011F80C20A3FB0243DB0803EB8303A2EBBA
:100E3C004303303343700CF1FF3C4FFA8CFC70468B
:100E4C00BCF1000FE2DA10BD704700BFCDCCCCCCAA
:100E5C0084B00F4B5A6A42F000425A625A6A02F04E
:100E6C0000420192019A1A6A42F001021A621A6A4D
:100E7C0002F001020292029A5A6A42F080525A62BD
:100E8C005B6A03F080530393039B04B0704700BF6D
:100E9C000038024003685A6912F4806F01D10020B7
:100EAC0070476FF480625A6100230363202280F83C
:100EBC003D2080F83E30026C42F00402026480F85F
:100ECC003C30012070472DE9F04106460C46174690
:100EDC0098463BE000F09CFD069BC01A404502D8AA
:100EEC00B8F1000F32D1012D18D033689B6924EA78
:100EFC0003039BB2B3FA83F35B099F4226D1002311
:100F0C003363202286F83D2086F83E30326C42F066
:100F1C002002326486F83C30012027E033685B699C
:100F2C0024EA03039BB2B3FA83F35B09E5E7336866
:100F3C005B6924EA030C1FFA8CFCBCFA8CFC4FEAAC
:100F4C005C1C674511D1B8F1FF3FC3D1C4F3074511
:100F5C00012DECD033689B6924EA030C1FFA8CFC3E
:100F6C00BCFA8CFC4FEA5C1CEBE70020BDE8F0817E
:100F7C002DE9F84305460E469046994653E01A680B
:100F8C0042F400721A602B686FF480625A6100237D
:100F9C002B63202285F83D2085F83E302A6C42F0E8
:100FAC0004022A6485F83C3001204AE000F030FD50
:100FBC00A0EB0900404502D8B8F1000F33D1012F46
:100FCC0017D02B689B6926EA03039BB2003B18BF22
:100FDC00012343B300232B63202285F83D2085F8A1
:100FEC003E302A6C42F020022A6485F83C30012005
:100FFC0027E02B685B6926EA03039BB2003B18BF12
:10100C000123E6E72B689C6926EA0404A4B2003CA1
:10101C0018BF0124A4B12B685A6912F4806FAED1A9
:10102C00B8F1FF3FC2D1C6F30747012FEAD12B68B5
:10103C005C6926EA0404A4B2003C18BF0124E9E769
:10104C000020BDE8F8830000F0B583B004460D46DF
:10105C0016461F46C36A082B0DD0012B0BD013F577
:10106C00803F08D0036B122B0AD10268136843F43B
:10107C008073136004E02268136843F48073136078
:10108C000097334600224FF001112046FFF71BFF5B
:10109C0080B92369B3F5804F16D1236805F0FE059E
:1010AC001D613B46324613492046FFF761FFF8B9F4
:1010BC0003B0F0BD23681B6813F4807F02D04FF49B
:1010CC00007323640320F3E7EB11226803F006039B
:1010DC0043F0F00313613B46324607492046FFF7C5
:1010EC0047FF18B92368EDB21D61DAE70120DFE78D
:1010FC000120DDE702000100080001002DE9F041AC
:10110C0084B004460D4616461F46C26A01680B6839
:10111C0043F480630B60082A0DD0012A0BD012F522
:10112C00803F08D0036B112B0AD10268136843F47B
:10113C008073136004E02268136843F480731360B7
:10114C000097334600224FF001112046FFF7BBFEFB
:10115C0098B92369B3F5804F19D1236845F001057F
:10116C00EDB21D613B4632462A492046FFF700FF8F
:10117C0000284CD104B0BDE8F08123681B6813F43F
:10118C00807F02D04FF4007323640320F2E74FEA10
:10119C00E51808F00608236848F0F0021A613B468F
:1011AC0032461D492046FFF7E3FE08B10120E1E776
:1011BC002368EDB21D613B46324616492046FFF7C7
:1011CC00D7FE08B10120D5E70022039223685969A4
:1011DC000391996903910399196841F4807119601D
:1011EC00009733464FF001112046FFF76CFE20B9F3
:1011FC00226848F0F1031361B4E723681B6813F409
:10120C00807F02D04FF4007323640320B2E70120E7
:10121C00B0E700BF020001000800010070B50446F1
:10122C000D46164623685B6913F0800F21D12046CA
:10123C00FFF730FEF8B9B5F1FF3FF3D000F0E8FB53
:10124C00801BA84201D8002DECD123685B6913F0F8
:10125C00800FE7D100232363202284F83D2084F8FB
:10126C003E30226C42F02002226484F83C30012093
:10127C0000E0002070BD0120FCE770B504460D466F
:10128C00164623685B6913F0040F21D12046FFF743
:10129C0001FEF8B9B5F1FF3FF3D000F0B9FB801BAC
:1012AC00A84201D8002DECD123685B6913F0040F20
:1012BC00E7D100232363202284F83D2084F83E30BC
:1012CC00226C42F02002226484F83C30012000E0C1
:1012DC00002070BD0120FCE770B504460D46164693
:1012EC0014E06FF010025A6100232363202284F86B
:1012FC003D2084F83E30226C226484F83C3001207E
:10130C0025E023685B6913F0400F10D023685869FF
:10131C0010F0400F1AD1586910F0100FE1D100F005
:10132C0077FB801BA842ECD8002DEFD1E9E7002316
:10133C002363202284F83D2084F83E30226C42F056
:10134C002002226484F83C30012000E0002070BDB3
:10135C00002800F0CC8070B5044690F83D30002B8E
:10136C0077D0242384F83D302268136823F00103DE
:10137C0013602268136843F40043136022681368F7
:10138C0023F40043136000F04FFB62685A4B9A42FF
:10139C0064D85A4B98428CBF00230123002B40F099
:1013AC00A8805749A1FB00318B0C25686A6822F094
:1013BC003F0242EA91426A6021680A6A22F03F02C7
:1013CC0066684D4DAE424FD8013313430B62216812
:1013DC00CA6922F44F4222F0FF026668464B9E42D5
:1013EC004CD8431E7600B3FBF6F3013340F6FC7089
:1013FC00034278D0C3F30B031343CB6121680B6812
:10140C0023F0C003E269206A024313430B60216896
:10141C008B6823F4034323F0FF032269E068024343
:10142C0013438B602168CB6823F0FF036269A069CA
:10143C0002431343CB602268136843F0010313602B
:10144C0000202064202384F83D30206384F83E0083
:10145C0070BD80F83C30FFF767F882E7294B984263
:10146C008CBF0023012399E74FF4967505FB03F31A
:10147C00254DA5FB03539B090133A6E7A368BBB914
:10148C00451E06EB460CB5FBFCF50135C5F30B050B
:10149C00B5FA85F56D0945BBC3B9013806EB4603B2
:1014AC00B0FBF3F30133C3F30B0343F40043A3E7A3
:1014BC00451E06EB860C0CEB8C0CB5FBFCF50135D4
:1014CC00C5F30B05B5FA85F56D09E4E7013806EBB4
:1014DC00860303EB8303B0FBF3F30133C3F30B037A
:1014EC0043F4404388E7042386E7012384E7012083
:1014FC0070470120ACE700BFA08601007F841E006E
:10150C0083DE1B43FF083D00D34D62102DE9F043F1
:10151C0085B004460F46914698460C9E00F078FA2A
:10152C00054694F83D00C0B2202804D00227384666
:10153C0005B0BDE8F0830095192301224F492046E0
:10154C00FFF7C1FC002840F0928094F83C30012B4E
:10155C0000F08F80012384F83C3023681A6812F065
:10156C00010F03D11A6842F001021A602268136855
:10157C0023F400631360212384F83D30102384F896
:10158C003E3000232364C4F82490A4F82A80638D91
:10159C0023853B4BE3622B46324639462046FFF708
:1015AC0053FD0746002866D10023039323685A692C
:1015BC0003929B690393039B11E0236C042B01D0D2
:1015CC000127B4E72268136843F400731360F7E74C
:1015DC002A4631462046FFF750FE00282ED1238D97
:1015EC00002B36D02A4631462046FFF717FE00283E
:1015FC00E3D1626A236812781A61606A431C6362E1
:10160C00618D89B2013989B26185238D013B9BB211
:10161C0023852268516911F0040FD9D0002BD7D043
:10162C0043781361636A01336362638D9BB2013B40
:10163C009BB26385238D013B2385C9E7236C042B67
:10164C0001D0012773E72268136843F40073136019
:10165C00F7E72268136843F400731360202384F8BF
:10166C003D30002384F83E3084F83C305FE702279D
:10167C005DE702275BE7012759E700BF0200100076
:10168C000000FFFF2DE9F04387B004460F4691465A
:10169C0098460E9E00F0BCF9054694F83D00C0B289
:1016AC00202804D00227384607B0BDE8F083009507
:1016BC001923012289492046FFF705FC002840F038
:1016CC004F8194F83C30012B00F04C81012384F8BD
:1016DC003C3023681A6812F0010F03D11A6842F0EB
:1016EC0001021A602268136823F40063136022233A
:1016FC0084F83D30102384F83E3000232364C4F872
:10170C002490A4F82A80638D2385754BE3622B46C5
:10171C00324639462046FFF7F1FC0746002840F0D8
:10172C002381238D5BB9029323685A6902929A69CB
:10173C000292029A1A6842F400721A607AE0012B43
:10174C000FD0022B1FD02268136843F48063136000
:10175C000023059323685A6905929B690593059BA1
:10176C0068E02268136823F48063136000230393FA
:10177C0023685A6903929A690392039A1A6842F48D
:10178C0000721A6056E02268136823F480631360B9
:10179C002268136843F400631360002304932368E6
:1017AC005A6904929B690493049B43E02A46314690
:1017BC002046FFF791FD002840F0D88023681A6975
:1017CC00636A1A70636A01336362238D013B23855C
:1017DC00638D9BB2013B9BB263852BE00095334636
:1017EC00002240492046FFF76EFB002840F0C080E5
:1017FC002268136843F40073136023681A69636AE0
:10180C001A70626A531C6362238D013B2385638DBE
:10181C009BB2013B9BB2638523681B695370636A5F
:10182C0001336362238D013B2385638D9BB2013BA6
:10183C009BB26385218D002900F08980032953D840
:10184C000129B3D00229C9D000953346002225497D
:10185C002046FFF738FB002840F08C802268136884
:10186C0023F48063136023681A69636A1A70636ACD
:10187C0001336362238D013B2385618D89B201396C
:10188C0089B2618500953346002216492046FFF740
:10189C001AFB002870D12268136843F4007313609C
:1018AC0023681A69636A1A70626A531C6362238D17
:1018BC00013B2385638D9BB2013B9BB263852368FF
:1018CC001B695370636A01336362238D013B23856B
:1018DC00638D9BB2013B9BB26385ABE702001000AA
:1018EC000000FFFF040001002A4631462046FFF7A6
:1018FC00F3FC002842D123681A69636A1A70636A80
:10190C0001336362228D013A92B22285638D9BB2C0
:10191C00013B9BB263852368596911F0040F89D090
:10192C00032A0FD023681A69636A1A70636A013339
:10193C006362238D013B2385638D9BB2013B9BB27C
:10194C00638577E71A6822F480621A60EAE720233D
:10195C0084F83D30002384F83E3084F83C30A2E615
:10196C000227A0E602279EE601279CE601279AE6BD
:10197C00012798E6012796E6012794E6012792E6CF
:10198C0090F83D0070470000104B1B680BB901200C
:10199C00704710B504464FF47A70B0FBF3F30C4A61
:1019AC001068B0FBF3F000F081F968B90F2C01D985
:1019BC0001200AE0002221464FF0FF3000F03EF9F2
:1019CC00044B1C60002000E0012010BD040000202E
:1019DC00000000200800002010B5032000F01CF9C6
:1019EC000F20FFF7D1FF10B10124204610BD044693
:1019FC00FFF72EFAF9E70000034A13680349096858
:101A0C000B441360704700BFC80000200400002086
:101A1C00014B1868704700BFC8000020014B1868C4
:101A2C00704700BF0000002008B5FFF7F7FF044B1C
:101A3C009B68C3F30223034AD35CD84008BD00BFA4
:101A4C0000380240C01F000870B582B0002365E06A
:101A5C0085685E000324B44025EA0405CC68B440D4
:101A6C002C438460446824EA0C0C4C68C4F30014C6
:101A7C009C4044EA0C04446061E0DD08083550F8F1
:101A8C00256003F007044FEA840C0F2404FA0CF4CD
:101A9C0026EA040E0C6904FA0CF444EA0E0440F82D
:101AAC00254063E0042400E0002404FA0EF42C43E7
:101ABC000CF1020C544D45F82C40544CA568D44301
:101ACC0025EA0206D1F804C01CF4801F01D042EABA
:101ADC0005064E4DAE60ED6804EA0506D1F804C06B
:101AEC001CF4001F01D042EA0506484DEE606D68FB
:101AFC0004EA0506D1F804C01CF4003F01D042EA08
:101B0C000506424D6E602D682C404E6816F4803FE1
:101B1C0001D042EA05043D4A146001330A6832FAE6
:101B2C0003F46FD04FF0010C0CFA03FC1CEA020218
:101B3C00F3D04C6804F00304013C012C88D94C68A8
:101B4C0004F00304032C0CD0C4685D004FF0030CAC
:101B5C000CFA05FC24EA0C0C8C68AC4044EA0C042E
:101B6C00C4604C6804F00304022C86D004684FEA6D
:101B7C00430E4FF0030C0CFA0EFC24EA0C0C4C68D0
:101B8C0004F0030404FA0EF444EA0C0404604C68F8
:101B9C0014F4403FC1D01E4C256A45F00105256266
:101BAC00246A04F001040194019C4FEA930C0CF19B
:101BBC000205154C54F8255003F003044FEA840E2B
:101BCC000F2404FA0EF425EA0405124CA0423FF44B
:101BDC006BAF04F58064A0420ED004F58064A04283
:101BEC000CD004F58064A0420AD004F58064A042B5
:101BFC003FF458AF052458E7012456E7022454E774
:101C0C00032452E702B070BD000001400004014003
:101C1C000038024000000240074AD36823F4E06316
:101C2C001B041B0C000200F4E060034343F0BF6391
:101C3C0043F40033D360704700ED00E000B5194B5E
:101C4C00DB68C3F30223C3F1070CBCF1040F28BFFC
:101C5C004FF0040C03F1040EBEF1060F18D9033B30
:101C6C004FF0FF3E0EFA0CFC21EA0C0199400EFAE3
:101C7C0003F322EA0303194300280BDB0901C9B261
:101C8C0000F1604000F5614080F800135DF804FB42
:101C9C000023E5E700F00F000901C9B2024B19540B
:101CAC00F4E700BF00ED00E014ED00E00138B0F106
:101CBC00807F0BD24FF0E0235861054AF02182F867
:101CCC0023100020986107221A6170470120704789
:101CDC0000ED00E02DE9F04190B0002409940A9445
:101CEC000B940C940D940E940F94039404940594FB
:101CFC000694079408942B4B1A6A42F480421A6299
:101D0C001A6A02F480420292029ADA6942F00102E3
:101D1C00DA61DB6903F001030193019B4FF400735B
:101D2C0003934FF00208CDF8108003270597072680
:101D3C0008961D4D03A92846FEF740FF4FF480631B
:101D4C000393CDF81080059706940794089603A981
:101D5C002846FEF733FF4FF4E13309930A940B94B2
:101D6C000C940C230D930E940F9409A90F4800F0BA
:101D7C0031F80F4A52E8003F23F4806342E8003107
:101D8C000029F6D1094B1A6922F490421A615A695A
:101D9C0022F02A025A61DA6842F40052DA6010B07A
:101DAC00BDE8F081003802400000024000380140DC
:101DBC001438014006E0064B1B6813F0400FFAD0B4
:101DCC00034B5A6010F8012B002AF4D1704700BF66
:101DDC0000380140C36813F4005F01D00120704744
:101DEC0030B585B004460D46C36823F4164323F082
:101DFC000C034A68C9680A4329690A43A9690A435A
:101E0C001343C360AB68026922F44052134303616D
:101E1C006B69426922F44072134343616846FEF7D2
:101E2C00B7FE2F4B9C4208D02E4B9C420CD02E4B15
:101E3C009C420BD0012005B030BD039B002B4DD034
:101E4C002A682AB90120F6E7029BF7E7029BF5E71F
:101E5C00A969B1F5004F20D003EB830303EB830397
:101E6C009200B3FBF2F32148A0FB032149090A01BC
:101E7C0092B2642505FB11331B013233A0FB031313
:101E8C00C3F34F1303F0F0010A4492B203F00F03B3
:101E9C0013449BB2A3600020CDE703EB830303EB59
:101EAC0083035200B3FBF2F31048A0FB0321490952
:101EBC000A0192B2642505FB1133DB003233A0FB1F
:101ECC000313C3F34F13590001F4F8710A4492B28F
:101EDC0003F0070313449BB2A360DCE70120AAE7DD
:101EEC000038014000440040004800401F85EB5181
:101EFC00FEF70CFF0B480C490C4A002302E0D458A7
:101F0C00C4500433C4188C42F9D3094A094C002339
:101F1C0001E013600432A242FBD300F00FF8FEF78D
:101F2C0099F97047000000200C000020DC1F00080D
:101F3C0010000020F4000020FEE7000070B5002621
:101F4C000C4D0D4C641BA410A64209D100F01AF8DC
:101F5C0000260A4D0A4C641BA410A64205D170BD84
:101F6C0055F8043B98470136EEE755F8043B984783
:101F7C000136F2E7D41F0008D41F0008D41F000854
:101F8C00D81F0008F8B500BFF8BC08BC9E467047C7
:0C1F9C00F8B500BFF8BC08BC9E467047BA
:101FA80073746172740D0A000000000000000000E4
:101FB80001020304060708090000000001020304E7
:0C1FC800030406080C1018203000000074
:041FD400610100089F
:041FD8003D010008BF
:0C1FDC0068FF1F00010000001000000062
:0400000508001EFDD4
:00000001FF
