:020000040800F2
:1000000000280020454E00087517000877170008E3
:10001000791700087B1700087D1700080000000012
:10002000000000000000000000000000F14B00088C
:100030007F17000800000000914C0008D54C000814
:100040008D4E00088D4E00088D4E00088D4E000824
:100050008D4E00088D4E00088D4E00088D4E000814
:100060008D4E00088D4E00088D4E00088D4E000804
:100070008D4E00088D4E00088D4E00088D4E0008F4
:100080008D4E00088D4E00088D4E00088D4E0008E4
:100090008D4E00088D4E00088D4E00088D4E0008D4
:1000A000000000008D4E00089D1500088D4E0008D0
:1000B0008D4E00088D4E00088D4E00088D4E0008B4
:1000C0008D4E00088D4E00088D4E00088D4E0008A4
:1000D0008D4E0008811700088D4E00088D4E0008D7
:1000E0008D4E00088D4E00088D4E0008A1170008A7
:1000F0008D4E00080000000000000000000000001D
:1001000000000000000000000000000000000000EF
:1001100000000000000000000000000000000000DF
:1001200000000000000000000000000000000000CF
:0C01300000000000000000005FF808F173
:1001400010B5054C237833B9044B13B10448AFF311
:1001500000800123237010BDE0000020000000009B
:10016000B876000808B5034B1BB103490348AFF349
:10017000008008BD00000000E4000020B876000800
:1001800010F8012B11F8013B012A28BF9A42F7D041
:10019000D01A7047034613F8012B002AFBD1181A16
:1001A000013870477BB972B90029BEBF00204FF0FB
:1001B000004106E008BF00281CBF6FF000414FF06F
:1001C000FF3000F0A9B9ADF1080C6DE904CE0029AB
:1001D00009DB002B1ADB00F035F8DDF804E0DDE97F
:1001E000022304B07047404261EB4101002B1BDB4E
:1001F00000F028F8DDF804E0DDE9022304B0404215
:1002000061EB4101524263EB43037047524263EB9F
:10021000430300F017F8DDF804E0DDE9022304B041
:10022000404261EB41017047524263EB430300F0EF
:1002300009F8DDF804E0DDE9022304B0524263EB83
:10024000430370472DE9F047089E0D460446884653
:10025000002B4DD18A42944668D9B2FA82F252B14B
:1002600001FA02F3C2F1200120FA01F10CFA02FCBA
:1002700041EA030894404FEA1C41B8FBF1F71FFA2A
:100280008CFE01FB178807FB0EF0230C43EA0843A2
:1002900098420AD91CEB030307F1FF3580F01E8159
:1002A000984240F21B81023F63441B1AB3FBF1F0FA
:1002B00001FB103300FB0EFEA4B244EA0344A64542
:1002C0000AD91CEB040400F1FF3380F00981A64534
:1002D00040F20681644402380021A4EB0E0440EA97
:1002E00007401EB10023D440C6E90043BDE8F087B3
:1002F0008B4208D9002E00F0EE800021C6E90005EF
:100300000846BDE8F087B3FA83F100294AD1AB4231
:1003100002D3824200F2FC80841A65EB03030120C1
:100320009846002EE2D0C6E90048DFE702B9FFDEBA
:10033000B2FA82F2002A40F09180A1EB0C00012178
:100340004FEA1C471FFA8CFEB0FBF7F307FB1300C4
:10035000250C45EA00450EFB03F0A84208D91CEB2A
:10036000050503F1FF3802D2A84200F2CE804346D1
:100370002D1AB5FBF7F007FB10550EFB00FEA4B2DB
:1003800044EA0544A64508D91CEB040400F1FF35F6
:1003900002D2A64500F2B6802846A4EB0E0440EA3D
:1003A00003409EE7C1F120078B4022FA07FC4CEA8C
:1003B000030C25FA07FA4FEA1C49BAFBF9F820FAB0
:1003C00007F309FB18AA8D401FFA8CFE1D4300FAA3
:1003D00001F308FB0EF02C0C44EA0A44A04202FA96
:1003E00001F20BD91CEB040408F1FF3A80F088807D
:1003F000A04240F28580A8F102086444241AB4FBAC
:10040000F9F009FB104400FB0EFEADB245EA0444CE
:10041000A64508D91CEB040400F1FF356CD2A645B3
:100420006AD90238644440EA0840A0FB0295A4EB74
:100430000E04AC42C846AE4656D353D0002E69D007
:10044000B3EB080264EB0E0422FA01F304FA07F797
:100450001F43CC40C6E90074002147E70CFA02FCB8
:10046000C2F1200125FA01F34FEA1C4720FA01F1FD
:1004700095400D43B3FBF7F107FB11331FFA8CFED8
:10048000280C40EA034001FB0EF3834204FA02F415
:1004900008D91CEB000001F1FF382FD283422DD97F
:1004A00002396044C01AB0FBF7F307FB1300ADB28A
:1004B00045EA004503FB0EF0A84208D91CEB0505F0
:1004C00003F1FF3816D2A84214D9023B6544281A1A
:1004D00043EA014138E73146304607E72F46E4E674
:1004E0001846F9E64B45A9D2B9EB020865EB0C0EAC
:1004F0000138A3E74346EAE7284694E74146D1E7B7
:10050000D0467BE76444023847E7023B65442FE767
:10051000084606E73146E9E6704700BF38B50546AC
:100520000C4664220023FFF73DFE13430AD14FF42B
:10053000C872002328462146FFF734FE134303D137
:10054000002000E0002038BD0120FCE7F8B5B0F540
:10055000FA6641F1FF3740F2D173984271F100031E
:1005600004DB6FF4FA66861961F100076422002348
:1005700030463946FFF716FE0D460446074A4FF04F
:10058000FF3330463946FFF70DFE241841EB0501D5
:100590000901200141EA1471F8BD00BF70FEFFFFA0
:1005A0002DE9F04781468A4614461E46824276EB84
:1005B000010322DA012740F6611399457AF100031D
:1005C0001EDBB9F516604FF4C8724FF000034AF114
:1005D000FF31FFF7E7FD05464FF4C87300FB03F357
:1005E000B9EB03096AEBE37AC317324A400002FB16
:1005F0000303A5FB0258984430E04FF0FF37DAE7D9
:10060000B9F5C86F7AF1000346DAB9F5C8604FF45E
:10061000C8724FF000034AF1FF31FFF7C3FD0546F2
:100620004FF4C87300FB03F313EB09094AEBE37AB9
:10063000C317204A400002FB0303A5FB025898445D
:100640000CE001221C4B33F912201C4B03FB02F27D
:10065000551948EBE2783C1946EBE776564508BF5A
:100660004C451CD04FF4C872002320463146FFF79A
:1006700099FD1343E5D014F0030F09D16422002340
:1006800020463146FFF78EFD134303D10022D9E700
:100690000022D7E70122D5E70025A846DEE7F917B3
:1006A00007FB08F805FB0181A7FB05052944BDE808
:1006B000F08700BF805960F0F47900088051010094
:1006C000F8B50446374BC31861F10002432B72F1B1
:1006D00000033BD30E46FFF739FF051946EB010730
:1006E00040F2B3739C4276F1000302DA083D47F111
:1006F000FF3720463146FFF711FF10B10B3547F1A8
:100700000007601E46F1FF31FFF708FF10B11135F9
:1007100047F100071C22002328463946FFF742FD17
:100720001946002B13DB002915DB1C2A71F100038D
:1007300018DA40F2B3739C4276F1000319DA1A4BCF
:1007400053F82200A0F2B373422B23D8F8BD1C3219
:1007500043F10001E7E7154B154A40F279111548BE
:1007600004F096FB144B124A4FF4BD71114804F08B
:100770008FFB40F2F6739C4276F1000303DB0F4BD4
:1007800033F91200DEE70E4B094A4FF4C0710948F5
:1007900004F07EFB0B4B064A40F28511054804F03D
:1007A00077FB00BF4DF8FFFF307A00084C77000858
:1007B000A07900085C77000870770008F8790008D5
:1007C000907700089477000870B50368002B2DDB44
:1007D0003D2B32DC4368002B36DB3B2B3BDC836854
:1007E000002B3FDB172B44DCC668002E48DD436935
:1007F00003F26C73584A82FB0312D917C1EBE21261
:100800004FF4C87101FB1232002A40D013F0030FDD
:1008100065D1514C84FB0314D917C1EB64116424D6
:1008200004FB1131002933D0012131E04B4B4C4AFC
:100830004FF48D714B4804F02BFB4B4B484A40F270
:100840001B11484804F024FB484B454A40F21D1157
:10085000444804F01DFB464B414A4FF48F71414818
:1008600004F016FB434B3E4A4FF490713D4804F0B0
:100870000FFB414B3A4A40F221113A4804F008FB81
:100880003E4B374A40F22311364804F001FB012168
:10089000056901EB41013A4C04EB8101495D8E424F
:1008A0001FDC002D24DB0B2D29DC816900292DDBC9
:1008B000062932DCC169002936DB002A3BD013F05F
:1008C000030F40D1244880FB0320DA17C2EB6012EB
:1008D000642000FB1232002A2ED001222CE00021DD
:1008E000D6E7284B1E4A4FF492711E4804F0D0FA06
:1008F000254B1B4A4FF493711A4804F0C9FA234B55
:10090000174A40F22711174804F0C2FA204B144A44
:1009100040F22911134804F0BBFA1E4B104A4FF461
:100920009571104804F0B4FA1B4B0D4A4FF49671C0
:100930000C4804F0ADFA0122184B33F912309942F9
:1009400003DC012070BD0022F6E7154B044A40F29B
:100950002D11044804F09CFA1F85EB51D077000854
:10096000887900085C770008E0770008F4770008D1
:1009700004780008187800082C78000840780008EF
:10098000AC7900085478000894780008A47800082E
:10099000B8780008CC780008E0780008F4790008FE
:1009A000F478000842694B699A421BDC1CDB02693F
:1009B0000B699A421BDC1CDBC268CB689A421BDCC9
:1009C0001CDB82688B689A421BDC1CDB42684B682C
:1009D0009A421BDC1CDB02680B689A421BDC1CDBA6
:1009E00000207047012070474FF0FF307047012012
:1009F00070474FF0FF307047012070474FF0FF30D5
:100A00007047012070474FF0FF307047012070475A
:100A10004FF0FF307047012070474FF0FF307047B4
:100A200038B504461546FFF7BDFFB0F1FF3F07D0CC
:100A300029462046FFF7B6FF012803D0012038BD24
:100A40000020FCE70020FAE710B50B46B0B10146E4
:100A50000246184620311468D2F804E0D2F808C0E3
:100A6000D3680460C0F804E0C0F808C0C360103266
:100A700010308A42EFD11368036010BD2422002198
:100A8000184604F075FAF8E710B50B46B0B1014608
:100A90000246184620311468D2F804E0D2F808C0A3
:100AA000D3680460C0F804E0C0F808C0C360103226
:100AB00010308A42EFD11368036010BD2422002158
:100AC000184604F055FAF8E72DE9F04192B00546D2
:100AD0004769244A2449FFF7A3FFA8BB07F26C77B4
:100AE0004FEAE778EC46AE46BEE80F00ACE80F00F0
:100AF000BEE80F00ACE80F00DEF80030CCF80030A4
:100B000038464146FFF7DCFDA0F26C70059009A95C
:100B10006846FFF7B9FF09A804F00AFB04460E4631
:100B2000294609A8FFF790FF0E9A02F26C72D317BC
:100B300038464146FFF734FD241846EB01062046AF
:100B4000314612B0BDE8F08109A92846FFF79CFFA5
:100B500009A804F0EDFA04460E46294609A8FFF755
:100B600073FFECE740790008647900082DE9F04F45
:100B700085B0D0E90067002900F096808846002300
:100B80000B623C22002330463946FFF70BFB15462B
:100B900003923C22002330463946FFF703FB06460A
:100BA0000C463C220023FFF7FDFA914693463C2277
:100BB000002330462146FFF7F5FA06460C46182278
:100BC0000023FFF7EFFA1746019218220023304660
:100BD0002146FFF7E7FA04460E46002D6BDBBBF11A
:100BE000000F6EDB019B002B70DB201D4FF0070216
:100BF0004FF0000346F10001FFF7D4FA0292002AF9
:100C00006ADB43F237639C4276F1000367DBC04B3B
:100C1000E41866F100066C250027002EC0F2D5808E
:100C2000BC4A002320463146FFF7BCFA0146F8B122
:100C3000C217DFF8E4C243420CFB0233A0FB0C0CEA
:100C40006344041943EB06064B1842EB02005B18A1
:100C500042EB0000C00040EA5370DB005B1842EB3F
:100C60000002120142EA13721B015D1947EB0207F1
:100C700040F26C7915EB090947F1000A4FF4C8728C
:100C8000002348465146FFF78DFA13432AD019F046
:100C9000030F29D16422002348465146FFF782FA08
:100CA000134323D1002326E09C4B9D4A40F2372179
:100CB0009C4804F0EDF809F1FF3B05F13C03039378
:100CC0008DE77B1E01930BF13C0B8BE7013C61F13F
:100CD00000061833019388E7D31D029391E7462558
:100CE00000279AE7012306E0002304E0012302E045
:100CF000012355464F468C4A32F91310C8170A464D
:100D00008C4276EB000125DBA41A66EB000615F198
:100D1000010A47F1000940F26D73ED1847F1000731
:100D20004FF4C872002328463946FFF73BFA1343B5
:100D3000DED015F0030F09D164220023284639467E
:100D4000FFF730FA134303D10023D2E70023D0E7A3
:100D50000123CEE7002203E0241A66F100060132E7
:100D600003EB4301714800EB8101895C08468C422A
:100D700076F10001F0DAC8F81450B7EBE57F40F0E7
:100D8000B980611CC8F80C1003EB430302EB83032A
:100D9000674931F913301C44C8F81C40039BC8F85C
:100DA0000030C8F804B0019BC8F80830C8F810201B
:100DB000029BC8F818304046FFF706FD002800F0F7
:100DC000A080404605B0BDE8F08F013D47F1FF39F6
:100DD0004F46504A002320463146FFF7E3F90130E1
:100DE0001ED0C2174C4B414203FB0211A0FB03373C
:100DF00039441C1941EB0606031842EB02071B1885
:100E000042EB0707FF0047EA5377DB00181842EB75
:100E100007073F0147EA10770001451949EB07072B
:100E200040F26C7915EB090947F1000A4FF4C872DA
:100E3000002348465146FFF7B5F913430CD019F08B
:100E4000030F0BD16422002348465146FFF7AAF94D
:100E5000134305D1002308E0012306E0002304E04A
:100E6000012302E0012355464F462F4A32F9132051
:100E70005142C8178C4276EB000125DA141946EB73
:100E8000E27615F1FF3A47F1FF3940F26B73ED1846
:100E900047F100074FF4C872002328463946FFF790
:100EA00081F91343DED015F0030F09D1642200232A
:100EB00028463946FFF776F9134303D10023D2E7DA
:100EC0000023D0E70123CEE70B22B44603EB430017
:100ED000164E06EB8000815C4842C61784427CEBCC
:100EE000060005DA09190C464CF1000C013AEDE751
:100EF0000C1940E703F0EAFF8B2303604FF0000872
:100F00005FE70C4B064A40F2A621064803F0C0FFFB
:100F1000C9C9FFFFB13A02004FC5FDFF287900089B
:100F2000947900085C770008F4790008AC7900082F
:100F3000C47900083479000808B50268034B9A4266
:100F400000D008BD01F00AFCFBE700BF0010004024
:100F500072B6FEE708B52A4B1A6842F004021A601E
:100F60001A6842F001021A60254B1B6813F0010F4A
:100F7000FAD0244A136823F4C05343F40063136087
:100F8000204B5B6813F0100FFAD11F4A136843F42B
:100F9000803313601C4B1B6813F4003FFAD01A4ACD
:100FA000936823F47D0343F411039360136843F0C3
:100FB00080731360144B1B6813F0007FFAD0124B40
:100FC0009A6822F0F0029A609A6822F4E0629A60CD
:100FD0009A6822F460529A609A6842F003029A601A
:100FE000094B9B6803F00C030C2BF9D1074800F068
:100FF000B9FF0F2001F052FB00B908BDFFF7A8FFB1
:10100000003C024000700040003802400048E80107
:1010100008B501F093FBFFF79DFF00F00DF800F01D
:101020006FF900F075FA00F0DDFA00F0FBFD01F059
:1010300097FA03F072FBFEE72DE9F04F8BB0002426
:10104000049405940694079408940994784BDA69FB
:1010500042F02002DA61DA6902F020020392039A78
:10106000DA6942F00102DA61DA6902F00102029201
:10107000029ADA6942F00202DA61DB6903F00203E4
:101080000193019B6B4F4FF47C13BB616A4E6B4B1A
:10109000B36101250495059504A9384600F068FF61
:1010A0004FF0020BCDF810B0059506940794089404
:1010B00004A9384600F05CFF0423049305950694C8
:1010C0000794089404A9384600F052FF4FF0080A2C
:1010D000CDF810A0059506940794089404A9384605
:1010E00000F046FF4FF01009CDF8109005950694DA
:1010F000079408940DEB0901384600F039FF4FF0D2
:101100002008CDF8108005950694079408940DEBFF
:101110000901384600F02CFF0495059506940794C4
:1011200008940DEB0901304600F022FFCDF810B015
:1011300005950694079408940DEB0901304600F0DC
:1011400017FF4FF480630493059506940794089461
:101150000DEB0901304600F00BFF4FF48053049370
:1011600005950694079408940DEB0901304600F0AC
:10117000FFFE4FF4005304930595069407940894DA
:101180000DEB0901304600F0F3FE4FF48043049369
:10119000059408940DEB0901304600F0E9FE4FF488
:1011A0000043049305950694079408940DEB0901F8
:1011B000304600F0DDFECDF810A0059506940794AA
:1011C00008940DEB0901304600F0D2FECDF81090E6
:1011D00005950694079408940DEB0901304600F03C
:1011E000C7FECDF8108005950694079408940DEB82
:1011F0000901304600F0BCFE4FF48073049305955E
:101200000694079408940DEB0901304600F0B0FEF7
:101210004FF40073049305950694079408940DEB1E
:101220000901304600F0A4FE0BB0BDE8F08F00BF0E
:1012300000380240000002400004024000003BB7BA
:1012400030B583B02C4B00221A702C4A9469C4F339
:1012500040041C70CCB905461346126822F40062A3
:101260001A601A6842F480621A601A6842F4807246
:101270001A60224B5B6913F0010F09D101F0DEF90E
:101280000128F6D102241C4B1C70204603B030BD4F
:101290001A4A5369136923F0FF0343F0D003136123
:1012A000164B5B6913F0020F07D101F0C7F9012853
:1012B000F6D10224104B1C70E7E7104B5A690192DB
:1012C000019A9A690192019A9A69EDB21A6922F01B
:1012D000FF0215431D61094B5B6913F0800F07D1B5
:1012E00001F0ACF90128F6D10224034B1C70CCE7C5
:1012F000014B00221A70C8E7FC0000200054004097
:101300002DE9F0478EB00024089409940A940B94B8
:101310000C940D94029403940494059406940794F9
:101320002C4DEB6943F00203EB61EB6903F0020320
:101330000193019B402302934FF0020ACDF80CA0C9
:101340004FF00309CDF810904FF00108CDF814804C
:1013500004270797204E02A9304600F009FE80239B
:101360000293CDF80CA0CDF81090CDF8148006941F
:10137000079702A9304600F0FBFD6B6A43F40013A7
:101380006B626B6A03F400130093009BA5F5F235C2
:101390002B6823F080032B60EB6823F0FE03EB60E7
:1013A00008940E4B09930A940B944FF480630C93AA
:1013B0004FF480430D9308A9284600F081FEEB68A6
:1013C00023F00103EB602B6823F040032B600EB089
:1013D000BDE8F0870038024000040240801A060091
:1013E00070B50E461546154C002323706421FFF797
:1013F00027FF2070A8B90024AC4216D2335D1049F3
:101400000A6922F0FF0213430B610D4B5B6913F075
:10141000800F07D101F012F90128F6D10220074B05
:10142000187070BD0134A4B2E6E7054A136843F4AE
:1014300000731360014B1878F3E700BFFC00002035
:1014400000540040F0B583B00D4614466421FFF708
:10145000F7FE064670B92D4A136843F48073136093
:101460002A4B5B6913F0010F07D101F0E7F801285F
:10147000F6D10226304603B0F0BD244A5369136901
:1014800023F0FF0343F0D1031361204B5B6913F09A
:10149000020F05D101F0D2F80128F6D10226E9E7C2
:1014A0001A4B5A690192019A9B690193019B00278B
:1014B000A742DFD2631E9F4213DB144B1A6822F44B
:1014C00080621A601A6842F400721A600F4B5B69FE
:1014D00013F0400F16D101F0B1F80128F6D1022621
:1014E000C8E70A4B5B6913F0400F05D101F0A6F87D
:1014F0000128F6D10226BDE7044B1B69EB550137E5
:10150000BFB2D5E7014B1B69EB55F8E7005400402B
:1015100010B586B000230293039304930593114BF7
:101520005A6A42F020025A625B6A03F02003019378
:10153000019B1F23ADF808304FF47A7304930A4CD3
:1015400002A9204600F03EFE236823F080032360BA
:10155000636823F070036360A36823F08003A360D3
:1015600006B010BD00380240001400400A4BD8629B
:101570006FF001021A6100225A621A6842F00102F9
:101580001A60054B1B6913F0010FFAD0024A136869
:1015900023F001031360704700140040084B1B69DF
:1015A00013F0010F0AD0064B6FF001021A611A689E
:1015B00022F001021A60034B00221A70704700BF2C
:1015C000000C0140FD00002008B5032804D84FF4AA
:1015D0007A70FFF7CBFF08BD40F2EE20FFF7C6FFA1
:1015E000F9E700002DE9F04190B0002409940A9435
:1015F0000B940C940D940E940F94039404940594FE
:10160000069407940894454B1A6A42F480421A6281
:101610001A6A02F480420292029ADA6942F00102E6
:10162000DA61DB6903F001030193019B4FF400735E
:1016300003934FF00208CDF8108003270597072683
:101640000896374D03A9284600F092FC4FF48063BA
:101650000393CDF81080059706940794089603A984
:10166000284600F085FC2F4BDA68C2F30222B31A39
:10167000042B28BF04231946131D062B4BD9033A0C
:101680004FF0FF338B40DB4303F0050393401B0116
:10169000DBB2254A82F82533202353604FF4E1332F
:1016A000099300230A930B930C930C220D920E9333
:1016B0000F9309A91D4800F0BBFD1D4A52E8003FE9
:1016C00023F4806342E800310029F6D1174B1A69F0
:1016D00022F490421A615A6922F02A025A61DA68A9
:1016E00042F40052DA60DA6822F40052DA606FF0F5
:1016F00020021A600F4A52E8003F43F0200342E8FC
:1017000000310029F6D10C3AD36843F40053D3607A
:1017100010B0BDE8F0810022B2E700BF00380240FF
:101720000000024000ED00E000E100E00038014070
:10173000143801400C38014006E0064B1B6813F0DA
:10174000400FFAD0034B5A6010F8012B002AF4D155
:10175000704700BF0038014008B5034B5868C0B25D
:1017600000F058FA08BD00BF00380140004870473B
:1017700034010020FEE7FEE7FEE7FEE7FEE77047E4
:1017800008B5064B1B6813F0200F00D108BD034BB2
:101790006FF020021A60FFF7DFFFF7E70038014023
:1017A00008B5024801F008F908BD00BFAC080020E8
:1017B0008388C288934205D20089184480B2801A77
:1017C00080B27047981A80B2704708B500218180B6
:1017D000C1800289006803F0CBFB08BD10B5044648
:1017E00002810160FFF7F1FF2068003818BF012077
:1017F00010BD0268838803F1010CA0F804C0D15425
:10180000828803899A4201D300238380704703466C
:101810000068D9884A1C92B2DA80405C19898A42F1
:1018200001D30022DA807047094B4FF480329A616D
:101830004FF400329A614FF480229A614FF40022F3
:101840009A614FF480129A614FF400129A617047C6
:101850000000024010B50446FFF7E6FF052C07D84C
:10186000DFE804F003070B0F13170C4B01229A61FA
:1018700010BD0A4B02229A61FAE7084B04229A61D2
:10188000F6E7064B08229A61F2E7044B10229A61B0
:10189000EEE7024B20229A61EAE700BF0000024017
:1018A0000A281DD80F4B1A5C00230AE00E4951F894
:1018B000330001EBC3014968090481615208013317
:1018C000DBB20A49097899420AD912F0010FEDD02A
:1018D000054951F8330001EBC30149688161EDE727
:1018E000704700BFF87A0008A07A000800000020C6
:1018F00008B50A20FFF7D4FF08BD70B506460D46AF
:10190000002409E00020FFF7CBFF2046FFF75CFE34
:10191000FFF7EEFF0134E4B2AC4208D22046FFF7F5
:1019200099FF335D2F2BEDD9303BD8B2EBE770BD7B
:10193000030903EB830300F00F0000EB4300C0B288
:1019400070470000064BA3FB0023DB081A01D2B24C
:1019500003EB8303A0EB4300C0B21044C0B2704756
:10196000CDCCCCCC02F1FF3C4FFA8CFCBCF1000F8B
:101970001EDB10B511F80C200E4BA3FB02E2D208BF
:10198000303286460EF8022B11F80C20A3FB0243DE
:10199000DB0803EB8303A2EB4303303343700CF10A
:1019A000FF3C4FFA8CFC7046BCF1000FE2DA10BD30
:1019B000704700BFCDCCCCCC074B1A6802705A6878
:1019C00042709A688270DA68C2701A6901320271D4
:1019D0005B69643B4371704768010020F8B50846B5
:1019E00016461D460E4F00233B702946FFF72AFD81
:1019F0000446387038B100200EE0285DFFF798FFEC
:101A000028550134E4B2B442F7D3054B1878F8BD39
:101A100000232B540130C0B2B042F9D3F5E700BF28
:101A2000A401002038B5094C00212170084D2B4637
:101A30000322D020FFF7D2FF2070EB1C03220421E9
:101A4000D020FFF7CBFF207038BD00BFA4010020DD
:101A50008C010020F0B587B005460C464B788A789B
:101A6000C97820796779124E049703900291019208
:101A7000009323780F4A3221304604F0CDF83046E7
:101A8000FFF75AFE23780C48036063784360A3781D
:101A90008360E3780133C3602379013B0361637999
:101AA00064334361FFF710F8286007B0F0BD00BF52
:101AB00000010020047B00086801002010B582B0FE
:101AC000009000230193094C21466846FFF74EF829
:101AD000A44604460FCCACE80F000FCCACE80F00D6
:101AE0002368CCF8003002B010BD00BF68010020B0
:101AF000F8B50F4615461E4600240D4B1C7005E038
:101B0000305DFFF71FFF30550134E4B2AC42F7D32C
:101B1000002408E02A4631463846FFF761FC044BB2
:101B200018700134E4B2AC42F4D3014B1878F8BD1C
:101B3000A401002010B50B4C00232370FFF772FFA7
:101B4000207008B1002010BD074C0322214604F18B
:101B50000C00FFF707FF214604F11400FFF77AFF9E
:101B60006069F0E7A40100208C010020F8B50D4C5D
:101B700000262670FFF7A2FF0B4DAF1D3846FFF77A
:101B80001BFF3B4603223146D020FFF7B1FF2070F8
:101B900005F1090303220421D020FFF7A9FF2070DB
:101BA000F8BD00BFA40100208C0100200048704750
:101BB000980100200246007800E0584012F8013FEA
:101BC0002A2BFAD1704700B5864600234FF0010C4E
:101BD00018460CE0A2F14101C9B2052903D8373AF1
:101BE0000CFB02F210434FEA0C1C0133DBB2082B52
:101BF0000DD8C3F107021EF80220A2F13001C9B2CC
:101C00000929E7D8303A0CFB02F21043EBE75DF804
:101C100004FB000008B501460148FFF7EAFD08BDD6
:101C2000A801002038B5114C01232370FFF79EFD59
:101C300001460F4D32222846FFF7D0FDE5610D4BDE
:101C40001A68242111701A68502151701A684421B1
:101C500091701A685421D1701B682C221A7131219D
:101C600059719A712A22DA7338BD00BFB40100207D
:101C7000A80100200400002010B5714BD869FFF7BF
:101C800097FD08B9002010BD6D4CE069FFF7BFFD5E
:101C90002378013B082B00F2D180DFE803F0051127
:101CA000202F3E4D5C6B8B00664B1B681B7883427C
:101CB00001D00020E7E7624B02221A700020E2E721
:101CC000604B1B685B78834204D05D4B01221A7025
:101CD0000020D8E75A4B03221A700020D3E7594B53
:101CE0001B689B78834204D0554B01221A70002058
:101CF000C9E7534B04221A700020C4E7514B1B68FC
:101D0000DB78834204D04E4B01221A700020BAE7E0
:101D10004B4B05221A700020B5E74A4B1B681B7914
:101D2000834204D0464B01221A700020ABE7444B9B
:101D300006221A700020A6E7424B1B685B7983429B
:101D400004D03F4B01221A7000209CE73C4B072235
:101D50001A70002097E73B4B1B689B79834204D0A5
:101D6000374B01221A7000208DE7354B08221A707C
:101D7000002088E7344B1B78072B08D8DA1D31493F
:101D8000096888540133304A137000207BE72E4BDA
:101D900000221A702B4B1B68DB7B834201D0002092
:101DA00071E7274B09221A7000201875274B102263
:101DB0001A7068E7244B1B78012B29D803F1100215
:101DC000204909688854A0F13002D2B2092A10D8FB
:101DD0001B491E48007800FB02F2087D02430A7589
:101DE0000133194A1370194A13781B091370002024
:101DF00049E7A0F14102D2B2052AF1D8104937389B
:101E0000124A127802FB00F00A7D02430A75E7E7E6
:101E10000C4B1C68601CFFF7CDFE094B1B7D8342F9
:101E200006D0094B00221A700120054B18702AE7D2
:101E3000E01DFFF7C8FE024B9861F2E7002022E7A1
:101E4000B401002004000020D40100200100002083
:101E5000014B9869704700BFB4010020034B9B6899
:101E6000C3F30313024AD35CD840704700380240E2
:101E7000307B0008034B9B68C3F30223024AD35C08
:101E8000D840704700380240407B0008034B9B68F5
:101E9000C3F3C223024AD35CD840704700380240E3
:101EA000407B00080B4B9B6803F480337BB90A49E5
:101EB000084A9368C3F383430848C05C01FB00F001
:101EC0009368C3F381530133B0FBF3F070470449C7
:101ED000EEE700BF003802400024F400487B000811
:101EE00000127A0008B5144B9B6803F00C030C2B0E
:101EF00016D8DFE803F009151515071515151E1579
:101F0000151512000D4807E00B4B5868C0F342301E
:101F1000431C4FF40040984008BDFFF7C3FFFBE7A8
:101F2000054B5868C0F34230431C4FF400409840C2
:101F3000F2E70348F0E700BF003802400024F40055
:101F400000127A0010B50446FFF7CCFF2060FFF7BF
:101F500085FF6060FFF78EFFA0606068FFF796FF67
:101F6000E06010BD014B1860704700BF0800002002
:101F70000B6893FAA3F3B3FA83FC56E08D6882688A
:101F800093FAA3F4B4FA84F464004FF0030E0EFA4B
:101F900004F422EA040293FAA3F4B4FA84F4640089
:101FA00005FA04F422438260CC68426822EA030204
:101FB00003FB04F42243426045E093FAA3F2B2FA31
:101FC00082F2072A15D84D69026A93FAA3F4B4FA8B
:101FD00084F4A4000F2606FA04F422EA040293FA19
:101FE000A3F4B4FA84F4A40005FA04F422430262D0
:101FF00041E04C69456A1A0A92FAA2FEBEFA8EFEC8
:102000004FEA8E0E0F2606FA0EFE25EA0E0592FA0C
:10201000A2F2B2FA82F2920004FA02F22A43426277
:1020200029E0002070BD0CF1010C0B6833FA0CF2B2
:1020300044D0012202FA0CF21340F4D070B54A6881
:10204000013A012A9AD9C26893FAA3F4B4FA84F443
:102050006400032505FA04F422EA040293FAA3F4C7
:10206000B4FA84F464000D6905FA04F42243C260F2
:102070004A68022AA1D04A68046893FAA3FEBEFA0D
:102080008EFE4FEA4E0E032505FA0EFE24EA0E0ED2
:1020900093FAA3F3B3FA83F35B0002FA03F34EEA75
:1020A000030303600CF1010C0B6833FA0CF2B8D097
:1020B000012202FA0CF21340F4D0C0E7002070476E
:1020C000F0B585B004460D46036823F001030360B4
:1020D0006846FFF737FF029A6B68AE683648A0FB88
:1020E000021C4FEA9C41606820F03F0040EA9C409F
:1020F0006060206A20F03F00304FBB4237D801318A
:10210000014321622D498B424DD9002E39D103EB79
:102110004303B2FBF3F2C2F30B03002B3DD042F4B6
:10212000004246EA0203E26922F44F4222F0FF0233
:102130001A43E261EA686969A36823F4034323F060
:10214000FF030A431343A3602B68226822F01A029C
:1021500013432360236843F0010323602B69226843
:1021600022F4806213432360002005B0F0BD4FF4D9
:10217000967707FB01F1124FA7FB01718909013125
:10218000BEE703EB830303EB8303B2FBF3F2C2F37B
:102190000B032BB142F40042C3E748F20102C0E74F
:1021A00048F20102BDE75B00B2FBF3F340F6FC72BC
:1021B0001342B8D10423B6E783DE1B43A086010097
:1021C000D34D62100368B0F1804F06D0174A904299
:1021D00003D002F58062904203D123F070034A6875
:1021E0001343B0F1804F12D0104A90420FD002F545
:1021F000806290420BD002F58032904207D002F507
:102200008062904203D002F58062904203D123F4B1
:102210004073CA68134303608B68C3620B88836290
:10222000436943F00103436100207047000400400C
:10223000C36813F4005F01D00120704730B585B04A
:1022400004460D46C36823F4164323F00C034A6882
:10225000C9680A4329690A43A9690A431343C36049
:10226000AB68026922F44052134303616B6942690F
:1022700022F44072134343616846FFF763FE2F4B1D
:102280009C4208D02E4B9C420CD02E4B9C420BD033
:10229000012005B030BD039B002B4DD02A682AB920
:1022A0000120F6E7029BF7E7029BF5E7A969B1F584
:1022B000004F20D003EB830303EB83039200B3FBB7
:1022C000F2F32148A0FB032149090A0192B26425D7
:1022D00005FB11331B013233A0FB0313C3F34F1370
:1022E00003F0F0010A4492B203F00F0313449BB2CF
:1022F000A3600020CDE703EB830303EB83035200CD
:10230000B3FBF2F31048A0FB032149090A0192B282
:10231000642505FB1133DB003233A0FB0313C3F349
:102320004F13590001F4F8710A4492B203F0070305
:1023300013449BB2A360DCE70120AAE70038014008
:1023400000440040004800401F85EB5170470000EA
:1023500010B503460C4A0D490D48006840B10C48C1
:1023600000680344521A934206D8094A136010BD0C
:102370000748084C0460F2E702F0A8FD0C23036054
:102380004FF0FF30F3E700BF0028002000040000FA
:10239000D8010020781700200120704708B502F00E
:1023A00095FD162303604FF0FF3008BD08B54FF0D0
:1023B000FF31FFF7F3FFFEE770B50C461646002528
:1023C00006E0AFF30080214601F8010B01350C4611
:1023D000B542F6DB304670BD70B50C46164600259A
:1023E00004E014F8010BAFF300800135B542F8DBCF
:1023F000304670BD4FF0FF3070474FF400534B60D4
:10240000002070470120704700207047014B0122D7
:102410001A7070470002002008B5642002F0C1F96C
:10242000FBE7000000B583B002F07CF901901421B5
:102430000D4B186802F01EFA0028F8D10B4B002251
:102440001A7064210A4B186802F0D4F9FFF772FB86
:10245000084B1860044B186802F03CFA4FF47A718C
:1024600001A802F064FAE2E7E00100200002002087
:10247000FC010020F001002008B507E0FFF796FB03
:102480000621FFF73AFA032002F08BF9024B1B6892
:10249000002BF3D1F7E700BFF001002000B583B0B7
:1024A0000023019302E0032002F07BF91B4B1B7811
:1024B000BBB9FFF7E1FB0128F5D1FFF7C9FC01909B
:1024C0000028F0D0164B1A68019B9A42EBD0019B72
:1024D000134A12689B1A012BE5D9104B01221A707E
:1024E000E1E714210F4B186802F0C4F90028DDD190
:1024F00000230A4A13700C4A137064210B4B1868AE
:1025000002F078F90198FFF731FB064B186802F0EA
:10251000E1F94FF47A7002F044F9C7E7F8010020BE
:10252000F0010020E001002000020020FC0100205A
:10253000034B0360034B0B6080231360704700BFA5
:102540000404002004020020034B0360034B0B60D3
:102550004FF480731360704758080020580400201F
:1025600030B5A1B000251E951F951EA802F077F981
:102570002A4B18602A4B1C931D952A4629461CA8F5
:1025800002F016F9274B1860274C0DF1540CA646A3
:10259000BEE80F00ACE80F009EE807008CE80700DB
:1025A000294615A802F0C8F8204B18600DF1380C28
:1025B00004F11C0EBEE80F00ACE80F009EE8070017
:1025C0008CE8070029460EA802F0B6F8184B1860F0
:1025D0000DF11C0C04F1380EBEE80F00ACE80F0042
:1025E0009EE807008CE80700294607A802F0A4F837
:1025F000104B1860EE4604F1540CBCE80F00AEE836
:102600000F009CE807008EE807002946684602F0A4
:1026100093F8094B186021B030BD00BFE0010020E5
:102620000D240008FC010020D0760008F4010020F1
:10263000EC010020E4010020E8010020014B1878A3
:10264000704700BF0002002000B585B0124B5A6AE7
:1026500042F000425A625A6A02F000420192019A24
:102660001A6A42F001021A621A6A02F00102029228
:10267000029A5A6A42F080525A625B6A03F08053AF
:102680000393039B00220F216FF0010000F0B8F8C4
:1026900005B05DF804FB00BF0038024030B589B0DA
:1026A0000446214B5A6A42F010025A625B6A03F0F8
:1026B00010030193019B02A903A800F071F8069B87
:1026C000C3B900F05DF803461848A0FB03239B0C38
:1026D000013B1748174A026040F2E732C26043608C
:1026E00000230361836000F00AF9054630B12846F3
:1026F00009B030BD00F044F84300E5E70C4800F0B5
:1027000023F905460028F2D12B2000F0B1F80F2C58
:1027100001D90125EBE7002221462B2000F070F8BB
:10272000054B1C60E3E700BF0038024083DE1B431B
:10273000AC080020001000401400002010B5032059
:1027400000F04CF80F20FFF7A9FF10B1012420463C
:1027500010BD0446FFF778FFF9E70000034A13684D
:10276000034909680B441360704700BFEC08002060
:1027700010000020014B1868704700BF08000020BF
:1027800008B5FFF7F7FF044B9B68C3F30223034A26
:10279000D35CD84008BD00BF00380240407B000831
:1027A0000F2303600B4B9A6802F0030242609A68A1
:1027B00002F0F00282609A6802F4E062C2609B68F4
:1027C000DB0803F4E0630361034B1B6803F00103C0
:1027D0000B60704700380240003C0240074AD36853
:1027E00023F4E0631B041B0C000200F4E0600343CD
:1027F00043F0BF6343F40033D360704700ED00E063
:1028000000B5194BDB68C3F30223C3F1070CBCF11D
:10281000040F28BF4FF0040C03F1040EBEF1060FA5
:1028200018D9033B4FF0FF3E0EFA0CFC21EA0C01D5
:1028300099400EFA03F322EA0303194300280BDB45
:102840000901C9B200F1604000F5614080F8001351
:102850005DF804FB0023E5E700F00F000901C9B2B1
:10286000024B1954F4E700BF00ED00E014ED00E066
:10287000002807DB00F01F02400901239340024AB1
:1028800042F82030704700BF00E100E00368B0F17B
:10289000804F06D0184A904203D002F580629042E1
:1028A00003D123F070034A681343B0F1804F12D074
:1028B000114A90420FD002F5806290420BD002F58F
:1028C0008032904207D002F58062904203D002F538
:1028D0008062904203D123F44073CA68134323F00B
:1028E00080030A69134303608B68C3620B688362C9
:1028F00001234361704700BF00040040704700B3EC
:1029000010B5044690F83930B3B1022384F8393059
:10291000214651F8040BFFF7B9FF012384F83E303C
:1029200084F83A3084F83B3084F83C3084F83D3009
:1029300084F83930002010BD80F83830FFF7DEFF12
:10294000E3E701207047000090F83930DBB2012B3B
:1029500027D1022380F839300268D36843F001039D
:10296000D3600368B3F1804F10D0104A93420DD06A
:1029700002F58062934209D002F58032934205D07D
:102980001A6842F001021A60002070479A6802F04B
:102990000702062A07D01A6842F001021A600020D6
:1029A0007047012070470020704700BF00040040BE
:1029B000704770477047704710B5044603681A693E
:1029C00012F0020F11D0DA6812F0020F0DD06FF082
:1029D00002021A610123037603689B6913F0030F57
:1029E0005ED0FFF7E6FF0023237623681A6912F012
:1029F000040F12D0DA6812F0040F0ED06FF0040248
:102A00001A610223237623689B6913F4407F4DD01B
:102A10002046FFF7CEFF0023237623681A6912F0C1
:102A2000080F12D0DA6812F0080F0ED06FF008020B
:102A30001A61042323762368DB6913F0030F3CD06B
:102A40002046FFF7B6FF0023237623681A6912F0A9
:102A5000100F12D0DA6812F0100F0ED06FF01002C3
:102A60001A61082323762368DB6913F4407F2BD097
:102A70002046FFF79EFF0023237623681A6912F091
:102A8000010F03D0DA6812F0010F24D123681A690C
:102A900012F0400F03D0DA6812F0400F22D110BDBF
:102AA000FFF786FF2046FFF785FF9CE72046FFF7EC
:102AB0007FFF2046FFF77EFFADE72046FFF778FF58
:102AC0002046FFF777FFBEE72046FFF771FF20465D
:102AD000FFF770FFCFE76FF001021A612046FEF7A3
:102AE0002BFAD3E76FF040021A612046FFF763FF2D
:102AF000D5E700F1080343604FF0FF328260C36006
:102B0000036100230360704700230361704743683B
:102B10004B609A688A60516099600861036801336C
:102B20000360704730B40D68B5F1FF3F11D000F17C
:102B300008031C465B681A68AA42FAD963684B60AE
:102B400099608C606160086103680133036030BC88
:102B500070470469F2E70369416882688A604168E6
:102B600051605A68824206D0002202611A68013A16
:102B70001A601868704782685A60F5E70346406A31
:102B800018B11B6B1868C0F10700704710B50446F8
:102B900002F040F8A26BE36B9A4204D0002402F0EA
:102BA0005BF8204610BD0124F9E710B5044602F099
:102BB00031F8A36B23B9012402F04EF8204610BD72
:102BC0000024F9E770B504461546866B026C5AB9C5
:102BD00003681BB100200136A66370BD406801F098
:102BE00057FA00236360F6E76DB9806802F0B2F926
:102BF000226CA3681344A3606268934219D32368CC
:102C0000A3602846E7E7C06802F0A4F9226C5142AD
:102C1000E3689B1AE3602268934202D263680B4424
:102C2000E360022D01D00020D5E726B1013E00204F
:102C3000D1E72846CFE70020CDE708B50346026C70
:102C400062B10846D9681144D960D3F804C061451F
:102C500001D31968D960D96802F07CF908BD38B58C
:102C6000054601F0D7FF95F8454064B201E0013C0C
:102C700064B2002C0ADD6B6A43B105F1240001F057
:102C8000FFF80028F3D001F08FF9F0E7FF2385F873
:102C9000453001F0E1FF01F0BDFF95F8444064B21A
:102CA00001E0013C64B2002C0ADD2B6943B105F15F
:102CB000100001F0E5F80028F3D001F075F9F0E715
:102CC000FF2385F8443001F0C7FF38BD38B5E0B1C7
:102CD0000D46044601F09EFF2368E26B216C01FB68
:102CE000023060600020A063A360013A02FB013360
:102CF000E360FF2384F8443084F84530FDB923694C
:102D000063B901F0A9FF012038BD4FF0500383F3F0
:102D10001188BFF36F8FBFF34F8FFEE704F11000F0
:102D200001F0AEF80028ECD04FF0E0234FF08052D5
:102D3000C3F8042DBFF34F8FBFF36F8FE1E704F1AA
:102D40001000FFF7D6FE04F12400FFF7D2FED8E70B
:102D500010B5034602980C4631B90060C3630464A1
:102D60000121FFF7B3FF10BD0260F7E740B94FF054
:102D7000500383F31188BFF36F8FBFF34F8FFEE7CC
:102D800010B584B01C46844653B192B189B94FF056
:102D9000500383F31188BFF36F8FBFF34F8FFEE7AC
:102DA0004FF0500383F31188BFF36F8FBFF34F8F42
:102DB000FEE76AB148230393039B482B13D04FF0DF
:102DC000500383F31188BFF36F8FBFF34F8FFEE77C
:102DD0000029EFD04FF0500383F31188BFF36F8FBA
:102DE000BFF34F8FFEE7012384F8463000949DF82F
:102DF00018306046FFF7ACFF204604B010BD40B964
:102E00004FF0500383F31188BFF36F8FBFF34F8FE1
:102E1000FEE7F0B583B00C4615460746A1B101FBAD
:102E200000F0483001F0ECFD064650B1002380F878
:102E3000463000902B4600F1480221463846FFF705
:102E400087FF304603B0F0BD0846EAE7F0B585B02D
:102E5000019288B10F461D460446B1B1022D20D122
:102E6000E36B012B1DD04FF0500383F31188BFF3A8
:102E70006F8FBFF34F8FFEE74FF0500383F311883E
:102E8000BFF36F8FBFF34F8FFEE7036C002BE5D0CE
:102E90004FF0500383F31188BFF36F8FBFF34F8F51
:102EA000FEE701F087F8064658B9019B002B48D091
:102EB0004FF0500383F31188BFF36F8FBFF34F8F31
:102EC000FEE700263DE02A4639462046FFF77AFE17
:102ED000636A7BB948B14FF0E0234FF08052C3F8EA
:102EE000042DBFF34F8FBFF36F8F01F0B5FE0120AC
:102EF00005B0F0BD04F1240000F0C2FF0028F4D0BA
:102F00004FF0E0234FF08052C3F8042DBFF34F8FF2
:102F1000BFF36F8FE9E701F09FFE0020E8E702A80A
:102F200000F0F4FF012619E0002384F8443021E08A
:102F3000002384F8453023E02046FFF790FE00F0A0
:102F40002BFE01F067FEA26BE36B9A42BBD3022D0E
:102F5000B9D0019B002BDED0002EE0D001F07CFE2A
:102F600000F078FD01F056FE94F8442052B2B2F120
:102F7000FF3FD9D094F8452052B2B2F1FF3FD7D0ED
:102F800001F06AFE01A902A800F0CCFFD8B92046E2
:102F9000FFF7FCFD0028CFD0019904F1100000F0EC
:102FA0003BFF2046FFF75BFE00F0F6FD0028C8D18E
:102FB0004FF0E0234FF08052C3F8042DBFF34F8F42
:102FC000BFF36F8FBDE72046FFF749FE00F0E4FD39
:102FD00000208DE748B108B5002141600160C16063
:102FE0000B460A46FFF732FF08BD704710B5024690
:102FF00000210120FFF703FF0446FFF7EBFF204607
:1030000010BD10B582B00B46009000221146012081
:10301000FFF7ACFE0446FFF7DDFF204602B010BD0F
:103020002DE9F84390B10F4616461C460546B1B14E
:10303000022C20D1EB6B012B1DD04FF0500383F3FA
:103040001188BFF36F8FBFF34F8FFEE74FF0500330
:1030500083F31188BFF36F8FBFF34F8FFEE7036CCD
:10306000002BE5D04FF0500383F31188BFF36F8F2F
:10307000BFF34F8FFEE701F0B7FEEFF311894FF07A
:10308000500383F31188BFF36F8FBFF34F8FAA6B89
:10309000EB6B9A4206D3022C04D0002089F31188EE
:1030A000BDE8F88395F845804FFA88F822463946FE
:1030B0002846FFF787FDB8F1FF3F06D008F101036E
:1030C0005BB285F845300120E8E76B6A0BB9012057
:1030D000E4E705F1240000F0D3FE18B126B1012089
:1030E0003060DBE70120D9E70120D7E768B170B590
:1030F0000C460546036C8BB14FF0500383F31188E7
:10310000BFF36F8FBFF34F8FFEE74FF0500383F392
:103110001188BFF36F8FBFF34F8FFEE70368EBB1EA
:1031200001F062FEEFF311864FF0500383F3118834
:10313000BFF36F8FBFF34F8FAA6BEB6B934226D910
:1031400095F845305BB20132AA63B3F1FF3F11D06D
:1031500001335BB285F84530012019E04368002B4C
:10316000DED04FF0500383F31188BFF36F8FBFF3AE
:103170004F8FFEE76B6A0BB9012009E005F12400CF
:1031800000F07EFE38B144B10120206000E0002054
:1031900086F3118870BD0120FAE70120F8E7F0B549
:1031A00085B0019290B10F460446C1B100F002FF14
:1031B000064600BB019B002B5ED04FF0500383F30B
:1031C0001188BFF36F8FBFF34F8FFEE74FF05003AF
:1031D00083F31188BFF36F8FBFF34F8FFEE7036C4C
:1031E000002BE3D04FF0500383F31188BFF36F8FB0
:1031F000BFF34F8FFEE700263EE039462046FFF73B
:103200001CFD013DA563236923B901F025FD0120C3
:1032100005B0F0BD04F1100000F032FE0028F4D03B
:103220004FF0E0234FF08052C3F8042DBFF34F8FCF
:10323000BFF36F8FE9E701F00FFD0020E8E702A878
:1032400000F064FE012621E0002384F8443029E0E8
:10325000002384F845302BE02046FFF700FD00F006
:103260009BFC09E02046FFF7FAFC00F095FC2046A5
:10327000FFF79BFC00283FD101F0CCFCA56B002D93
:10328000BBD1019B002BD6D0002ED8D001F0E4FC9E
:1032900000F0E0FB01F0BEFC94F844305BB2B3F107
:1032A000FF3FD1D094F845305BB2B3F1FF3FCFD0B0
:1032B00001F0D2FC01A902A800F034FE0028D1D10F
:1032C0002046FFF772FC0028C6D0019904F12400C3
:1032D00000F0A2FD2046FFF7C2FC00F05DFC0028D4
:1032E000CAD14FF0E0234FF08052C3F8042DBFF352
:1032F0004F8FBFF36F8FBFE7002089E770B584B0B1
:10330000019158B10446036C8BB14FF0500383F325
:103310001188BFF36F8FBFF34F8FFEE74FF050035D
:1033200083F31188BFF36F8FBFF34F8FFEE700F079
:1033300041FE054650B9019B5BB14FF0500383F34A
:103340001188BFF36F8FBFF34F8FFEE7002635461E
:1033500055E0064653E0013BA36323683BB1236974
:103360004BB901F079FC0126304604B070BD00F085
:1033700049FF6060F3E704F1100000F081FD0028D0
:10338000EFD04FF0E0234FF08052C3F8042DBFF38D
:103390004F8FBFF36F8FE4E746B14FF0500383F3D5
:1033A0001188BFF36F8FBFF34F8FFEE701F054FC1E
:1033B000DAE702A800F0AAFD01252AE0002384F83C
:1033C000443032E0002384F8453034E001F022FC40
:1033D000606800F0FFFD064601F03EFC3BE0204641
:1033E000FFF73DFC00F0D8FB09E02046FFF737FC73
:1033F00000F0D2FB2046FFF7D8FB002842D101F0B5
:1034000009FCA36B002BA6D1019B002BC4D0002D7F
:10341000CFD001F021FC00F01DFB01F0FBFB94F884
:1034200044305BB2B3F1FF3FC8D094F845305BB293
:10343000B3F1FF3FC6D001F00FFC01A902A800F0D4
:1034400071FD0028D1D12046FFF7AFFB0028C6D080
:103450002368002BBAD0019904F1240000F0DCFCB1
:103460002046FFF7FCFB00F097FB0028C7D14FF088
:10347000E0234FF08052C3F8042DBFF34F8FBFF30A
:103480006F8FBCE70EB900266EE701F0C3FB204644
:10349000FFF774FB0146606800F054FE01F0DCFBAE
:1034A000F1E72DE9F843B0B10D4616460446D9B10F
:1034B00001F09AFCEFF311884FF0500383F3118869
:1034C000BFF36F8FBFF34F8FA76BCFB9002088F387
:1034D0001188BDE8F8834FF0500383F31188BFF3E0
:1034E0006F8FBFF34F8FFEE7036C002BE0D04FF0E0
:1034F000500383F31188BFF36F8FBFF34F8FFEE745
:1035000094F844904FFA89F929462046FFF795FB35
:10351000013FA763B9F1FF3F06D009F101035BB298
:1035200084F844300120D2E723690BB90120CEE7AB
:1035300004F1100000F0A4FC18B126B101203060A5
:10354000C5E70120C3E70120C1E700000023072BE6
:103550000CD8074A52F833200AB10133F7E7044A7E
:1035600042F8331002EBC30358607047704700BF46
:10357000F008002070B504460D46164601F04AFBDF
:1035800094F844305BB2B3F1FF3F0DD094F845306E
:103590005BB2B3F1FF3F0BD001F05EFBA36B5BB1FD
:1035A0002046FFF75CFB70BD002384F84430EDE754
:1035B000002384F84530EFE73246294604F1240021
:1035C00000F042FCECE70000084B1B681B6823B9C5
:1035D000074B4FF0FF321A607047044B1B68DB68E3
:1035E000DB685A68024B1A60704700BF340900203C
:1035F0000C0A00202DE9F04707469846089DDDF8A3
:1036000024900A9C266B02F18042013A06EB820666
:1036100026F007064FF0000CBCF10F0F0BD811F885
:103620000C2004EB0C0383F8342011F80C3013B198
:103630000CF1010CF0E7002384F84330062D00D98B
:103640000625E56265644FF0000AC4F848A0201D15
:10365000FFF75AFA04F11800FFF756FA2461C5F192
:103660000705A5616462C4F84CA084F850A04246E6
:103670003946304601F0A4FA2060B9F1000F01D0BC
:10368000C9F80040BDE8F08738B5002407E004EB36
:10369000840293000E481844FFF72BFA0134062CDD
:1036A000F5D90C4D2846FFF724FA0B4C2046FFF7BE
:1036B00020FA0A48FFF71DFA0948FFF71AFA0948E5
:1036C000FFF717FA084B1D60084B1C6038BD00BFA0
:1036D0003C090020E0090020F4090020140A002021
:1036E000400A00202C0A002034090020380900205C
:1036F00010B5044601F08EFA214A136801331360B5
:10370000204B1B685BB1204B1B686BB91D4B1B68C2
:10371000DA6AE36A9A4207D81A4B1C6004E0194B34
:103720001C601368012B28D0184A136801331360FA
:10373000E06A01238340164A11680B43136000EBD3
:103740008000211D134B03EB8000FFF7E0F901F02F
:1037500083FA0D4B1B687BB10A4B1B68DA6AE36A7C
:103760009A4209D24FF0E0234FF08052C3F8042D63
:10377000BFF34F8FBFF36F8F10BDFFF785FFD3E708
:10378000C809002030090020280A0020D80900209C
:10379000DC0900203C09002010B5044690F85130A7
:1037A00063B1012B11D0022B0ED04FF0500383F3E5
:1037B0001188BFF36F8FBFF34F8FFEE7006B01F0EF
:1037C00097F9204601F094F910BD01F091F9FBE75B
:1037D0000F4B1B68D3B110B501F01CFA0D4BDB6821
:1037E000DC68201DFFF7B7F90B4A1368013B136033
:1037F000074A1368013B136001F02EFA2046FFF7D9
:10380000CBFF034B1B68002BE6D110BD704700BFF8
:10381000CC090020400A0020C809002008B5FFF7A5
:10382000D7FF074B1B68012BF9D94FF0E0234FF06E
:103830008052C3F8042DBFF34F8FBFF36F8FEEE7B5
:103840003C09002070B504460D461D4B1E681D4BFB
:1038500018680430FFF77FF950B91A4B1B68DA6A11
:10386000012303FA02F218490B6823EA02030B60F2
:10387000B4F1FF3F0DD03444124B1B685C60A6428C
:1038800010D9124B18680F4B19680431FFF74AF929
:1038900070BD002DEFD00B4B196804310C48FFF7B9
:1038A00036F9F5E70B4B1868064B19680431FFF73A
:1038B00039F9094B1B68A342EAD9074B1C60E7E7BB
:1038C000540A002030090020DC09002038090020BB
:1038D0002C0A0020340900200C0A002030B587B0E3
:1038E0000B9C7CB10C9DB5B154250495049D542DC1
:1038F0001AD04FF0500383F31188BFF36F8FBFF3DB
:103900004F8FFEE74FF0500383F31188BFF36F8FA3
:10391000BFF34F8FFEE74FF0500383F31188BFF3DF
:103920006F8FBFF34F8FFEE70C9D2C63022485F849
:10393000514000240394029505AC01940A9C009424
:10394000FFF758FE0C98FFF7D3FE059807B030BD7F
:103950002DE9F04385B00746884614461E46900080
:1039600001F04EF800B38146542001F049F80546B5
:10397000B0B1C0F83090E5B1002385F85130039321
:1039800002950D9B01930C9B0093334622464146C2
:103990003846FFF72FFE2846FFF7AAFE012005E074
:1039A000484601F0A5F8E6E74FF0FF3005B0BDE866
:1039B000F0834FF0FF30F9E710B588B0002405948C
:1039C000069407AA06A905A8FEF7B2FD059B029377
:1039D000069B019300942346079A18491848FFF75D
:1039E0007DFF184B186040B100F0A6FC012806D0FE
:1039F000B0F1FF3F18D008B010BD0020F6E74FF03F
:103A0000500383F31188BFF36F8FBFF34F8F0E4BBB
:103A10004FF0FF321A600D4B01221A600C4B00224E
:103A20001A6001F081F9E6E74FF0500383F3118843
:103A3000BFF36F8FBFF34F8FFEE700BFA07B00087F
:103A40001D380008080A00200C0A0020280A00205F
:103A5000540A0020024A136801331360704700BF04
:103A6000D4090020014B1868704700BF540A002099
:103A700008B501F0B9F9014B186808BD540A0020D7
:103A8000F8B53A4B1B68002B64D1394B1D680135E2
:103A90001D60C5B9374B1B681B6843B14FF050031D
:103AA00083F31188BFF36F8FBFF34F8FFEE7314A67
:103AB0001168314B186810601960304A136801337F
:103AC0001360FFF781FD2E4B1B68AB4238D90027EE
:103AD0002C4B1B68DB6A03EB83039A002A4B9B5831
:103AE000012B3CD901273AE00127224B1B681B68B8
:103AF00043B3204B1B68DB68DC6863689D4226D3B8
:103B0000261D3046FFF727F8A36A1BB104F1180001
:103B1000FFF721F8E36A01229A401C490868024332
:103B20000A6003EB83039A00314617481044FEF7FE
:103B3000EEFFE26A134B1B68DB6A9A42D4D2D4E7E9
:103B40000027D2E70E4B4FF0FF321A60C0E70C4A55
:103B50001360BDE70E4A13680133136000270D4B55
:103B60001B6803B101273846F8BD00BFD409002007
:103B7000540A00203409002038090020100A0020CF
:103B80000C0A0020300900203C090020DC0900203C
:103B9000D0090020580A002038B5354B1B6843B9BE
:103BA0004FF0500383F31188BFF36F8FBFF34F8F34
:103BB000FEE701F02FF82E4B1A68013A1A601B68D5
:103BC000002B4FD12B4B1B680BB900244BE000247A
:103BD000294B1B681BB3284BDB68DC6804F1180019
:103BE000FEF7B9FF251D2846FEF7B5FFE06A012361
:103BF0008340224A11680B43136000EB8000294682
:103C00001F4B03EB8000FEF782FFE26A1D4B1B682F
:103C1000DB6A9A42DCD31C4B01221A60D8E70CB154
:103C2000FFF7D2FC194B1C6884B9174B1C68D4B140
:103C30004FF0E0234FF08052C3F8042DBFF34F8FB5
:103C4000BFF36F8F01240EE0013C07D0FFF718FF90
:103C50000028F9D00C4B01221A60F5E70B4B00222B
:103C60001A60E2E7002400F0F7FF204638BD00BFED
:103C7000D4090020C8090020140A0020DC09002013
:103C80003C09002030090020580A0020D0090020FB
:103C900038B558B10C46054689B94FF0500383F347
:103CA0001188BFF36F8FBFF34F8FFEE74FF05003C4
:103CB00083F31188BFF36F8FBFF34F8FFEE71B4B6A
:103CC0001B6843B14FF0500383F31188BFF36F8F2C
:103CD000BFF34F8FFEE7FFF7BDFE154B18682B684B
:103CE0001C44834209D9A34201D82C600EE0A042B3
:103CF00001D32C600AE02C6004E0A34201D8A0426A
:103D000012D22C600021201AFFF79CFDFFF744FF20
:103D100048B94FF0E0234FF08052C3F8042DBFF3B1
:103D20004F8FBFF36F8F38BD2C60EFE7D4090020B1
:103D3000540A002010B5A8B10446104B1B6843B1CB
:103D40004FF0500383F31188BFF36F8FBFF34F8F92
:103D5000FEE7FFF77FFE00212046FFF773FDFFF728
:103D60001BFF48B94FF0E0234FF08052C3F8042DF9
:103D7000BFF34F8FBFF36F8F10BD00BFD40900207A
:103D8000204B1B681BB1204B01221A6070471E4B51
:103D900000221A601D4B1B68B3FA83F3DBB2C3F138
:103DA0001F0303EB83018A0019498A5842B94FF077
:103DB000500383F31188BFF36F8FBFF34F8FFEE77C
:103DC000134903EB830082000A4450684068506046
:103DD00003EB830C4FEA8C0208321144884209D06D
:103DE00003EB83039A000A4B13445B68DA68094BC0
:103DF0001A607047406862469100054A0A44506064
:103E0000EEE700BFD4090020580A0020DC0900209A
:103E10003C0900203009002058B110B50C46094A71
:103E200011681831FEF77EFE01212046FFF70AFDDA
:103E300010BD4FF0500383F31188BFF36F8FBFF3B2
:103E40004F8FFEE73009002038B570B10D4614469B
:103E50000A4A11681831FEF75AFE0CB14FF0FF35CF
:103E600021462846FFF7EEFC38BD4FF0500383F3A0
:103E70001188BFF36F8FBFF34F8FFEE7300900202B
:103E800038B5C368DC6824B304F118052846FEF78A
:103E900062FE184B1B682BBB251D2846FEF75BFEF8
:103EA000E06A01238340144A11680B43136000EB5E
:103EB00080002946114B03EB8000FEF728FEE26AE2
:103EC0000F4B1B68DB6A9A4211D901200D4B186019
:103ED00038BD4FF0500383F31188BFF36F8FBFF3EA
:103EE0004F8FFEE729460848FEF711FEE7E700205E
:103EF000EEE700BFD4090020DC0900203C090020C7
:103F000030090020580A0020140A0020034B1B68C7
:103F10000360034B1B684360704700BF100A00201A
:103F2000540A0020D8B170B50C46054601B300F024
:103F300071FE1B4B19686B68C81A2268B2F1FF3F0B
:103F400027D0184E3668D5F800C0B44501D08B4252
:103F500024D9824215D80023236001241AE04FF0AF
:103F6000500383F31188BFF36F8FBFF34F8FFEE7CA
:103F70004FF0500383F31188BFF36F8FBFF34F8F60
:103F8000FEE75B1A134423602846FFF7BFFF0024B7
:103F900000E0002400F060FE204670BD0124F9E737
:103FA000540A0020100A0020014B01221A607047B9
:103FB000580A0020054B1B6833B1054B1B680BB139
:103FC000002070470220704701207047280A002017
:103FD000D4090020002851D038B50446C36A294AC4
:103FE0001268D26A934241D28269002A05DB254ACF
:103FF0001268D26AC2F107028261616903EB83032E
:10400000214A02EB8303994205D01E4B1B68DB6AF1
:10401000E362012038BD251D2846FEF79CFDA0B1B6
:10402000184B1B68D86AE062012404FA00F3174AAF
:1040300011680B43136000EB80002946124B03EB21
:104040008000FEF764FD2046E4E7E26A02EB8203AB
:104050009B000D49CB58002BE2D1012303FA02F259
:104060000A490B6823EA02030B60D9E7426C054B4F
:104070001B68DB6A9A4203D30020CBE7002070471D
:104080000120C7E7300900203C090020DC0900209E
:1040900000284CD038B50446274B1B68834208D013
:1040A0004FF0500383F31188BFF36F8FBFF34F8F2F
:1040B000FEE7836C43B94FF0500383F31188BFF3DD
:1040C0006F8FBFF34F8FFEE7013B8364C16A426C81
:1040D00091422ED00BB1002038BD051D2846FEF7B9
:1040E0003AFD70B9E26A02EB82039B001349CB5898
:1040F0003BB9012303FA02F211490B6823EA0203D8
:104100000B60606CE062C0F10703A361012404FA54
:1041100000F30B4A11680B43136000EB8000294643
:10412000064B03EB8000FEF7F2FC2046D4E70020AC
:1041300070470020D0E700BF300900203C09002074
:10414000DC090020002856D038B50446836C43B9FA
:104150004FF0500383F31188BFF36F8FBFF34F8F7E
:10416000FEE7426C8A4200D20A46E16A914201D0DF
:10417000012B00D038BD204B1B68A34232D0E26235
:10418000A369002B02DBC2F10702A261626901EBA5
:1041900081011A4B03EB81018A42EBD1251D284690
:1041A000FEF7D9FC70B9E26A02EB82039B00134967
:1041B000CB583BB9012303FA02F211490B6823EAF9
:1041C00002030B60E06A012383400D4A11680B4330
:1041D000136000EB80002946084B03EB8000FEF7DC
:1041E00096FCC7E74FF0500383F31188BFF36F8F3E
:1041F000BFF34F8FFEE77047300900203C090020D5
:10420000DC090020054B1B6823B1044B1A68936C32
:1042100001339364014B1868704700BF30090020D8
:10422000064B1A681368B3FA83F35B09036013B98A
:10423000D368186870470020704700BF5C0A0020F0
:1042400008B54160006191420CD8D21A83699A4244
:1042500001D3012008BD011D094B1868FEF762FC5F
:104260000020F7E79A4201D2994206D2011D054B80
:104270001868FEF757FC0020ECE70120EAE700BFD2
:10428000600A00205C0A002030B583B000F0C2FC58
:10429000114B1B681BB100F0DFFC03B030BD0F4DAC
:1042A0002846FEF726FC0E4C2046FEF722FC0D4B5E
:1042B0001D600D4B1C60002300930C4B0C4A0C211D
:1042C0000520FEF753FD044B18600028E3D0094990
:1042D000FFF73CF9DFE700BF140B0020A00A002025
:1042E000B40A00205C0A0020600A0020CC0A0020EA
:1042F000640A0020A87B00082DE9F041079F41B91E
:104300004FF0500383F31188BFF36F8FBFF34F8FCC
:10431000FEE7064615461C4688465FB1FFF7B4FF28
:104320003E60C7F81880FD613C62069B7B62381DC9
:10433000FEF7EAFBBDE8F08110B588B0FFF7A4FFF7
:10434000124B1B68CBB100240594069407AA06A95A
:1043500005A8FEF7F9F8059B0293069B019302233B
:1043600000932346079A0A490A48FFF7B7FA0A4B0F
:10437000186010B1012008B010BD4FF0500383F356
:104380001188BFF36F8FBFF34F8FFEE7140B002030
:10439000B07B0008ED460008180B00202DE9F04125
:1043A00082B00446884615461E462C2000F028FBA5
:1043B000074658B10190089B009333462A46414670
:1043C0002046FFF799FF002387F82830384602B0CF
:1043D000BDE8F08110B584B02C240394039C2C2CF0
:1043E00008D04FF0500383F31188BFF36F8FBFF3F2
:1043F0004F8FFEE7079C64B1079C0194069C0094D4
:10440000FFF77AFF0123079A82F82830104604B09C
:1044100010BD4FF0500383F31188BFF36F8FBFF3CC
:104420004F8FFEE7B8B19C4603461848006858B362
:1044300000B585B001910292039305291CDCFFF7BA
:10444000B9FD022810D000231A4601A90F480068C0
:10445000FEF7FCFC15E04FF0500383F31188BFF327
:104460006F8FBFF34F8FFEE70023069A01A907481D
:104470000068FEF7EBFC04E00023624601A9FEF7AA
:10448000CFFD05B05DF804FB00207047140B002041
:1044900070B582B01A4B1B681A6852B3DB681E688D
:1044A000DC68251D2846FEF756FB636A20469847C0
:1044B000E369012BEED1A36933449E4207D26360C6
:1044C000246129460E4B1868FEF72CFBE2E7002119
:1044D00000910B4632462046FFF7A4FF0028D9D1B1
:1044E0004FF0500383F31188BFF36F8FBFF34F8FEB
:1044F000FEE7044A106802490860136002B070BD0C
:104500005C0A0020600A002038B50546FFF7AAFAC9
:104510000446074B1B68834205D800232B60044BDD
:104520001C60204638BDFFF7B3FF01232B60F6E780
:10453000C80A002070B582B006460D4614490968C5
:10454000C968CC68201DFEF706FBE169012904D08B
:10455000636A2046984702B070BDA16933462A4677
:1045600031442046FFF76CFE0028F1D00021009175
:104570000B4632462046FFF755FF0028E8D14FF0A2
:10458000500383F31188BFF36F8FBFF34F8FFEE7A4
:104590005C0A002070B582B006460C46FFF75AFA56
:1045A00001A8FFF7B1FF019B2BBB05460CB9B04238
:1045B0001AD22CB1124B1B681C68B4FA84F464093B
:1045C0002246711B0F4B1868FEF7D4FFFFF7E4FA81
:1045D00098B94FF0E0234FF08052C3F8042DBFF399
:1045E0004F8FBFF36F8F08E0FFF7D6FA29463046AA
:1045F000FFF7A0FF01E0FFF7CFFA02B070BD00BFE8
:10460000600A0020140B002010B586B0002203A918
:10461000354B1868FEF7C3FD002863D0039B002BC1
:10462000F4DB059C636913B1201DFEF794FA02A820
:10463000FFF76AFF039B092BE8D801A252F823F089
:104640006946000869460008694600080D460008EA
:10465000AF460008D54600086946000869460008CC
:104660000D460008AF460008049BA16902461944A4
:104670002046FFF7E5FD0028C8D0636A204698472A
:10468000E369012BC2D1A269002100910B46049875
:1046900002442046FFF7C6FE0028B7D14FF0500372
:1046A00083F31188BFF36F8FBFF34F8FFEE7049939
:1046B000A16131B10346024601442046FFF7C0FD27
:1046C000A4E74FF0500383F31188BFF36F8FBFF35C
:1046D0004F8FFEE794F82830002B97D1204600F04A
:1046E00007FA93E706B010BD140B002000B583B0A5
:1046F00001A8FFF795FD0199FFF74CFFFFF784FF35
:10470000F6E7842801D00330704700207047EFF3AC
:104710000580003818BF0120704708B5FFF74CF935
:10472000002008BD08B5FFF7F2FF10B1FFF7A0F9B0
:1047300008BDFFF797F9FBE72DE9F04387B0044682
:104740000F464569BDB18669AEB1D0F80480D0F896
:104750000090B0F90800FFF7D4FF02960195009091
:104760003B46226949464046FFF7B8F80590059850
:1047700007B0BDE8F08365682668D4F81080B4F906
:104780000800FFF7BEFF05AB019300903B461FFA00
:1047900088F231462846FFF7DBF80128E7D00020F1
:1047A000E6E708B500B90120FFF7C4FA002008BD0C
:1047B00010B582B0134644686CB1012909D00022BB
:1047C00001680194009101210948FFF703FE02B03E
:1047D00010BD0122F4E7012907D0002201680091F1
:1047E00001210348FFF7DAFDF1E70122F6E700BFF8
:1047F0002C7B000830B585B00446002303930D469A
:1048000001B90125FFF783FFD0B10023009303AB6B
:104810002A4609212046FFF705FE012802D0FF2085
:1048200005B030BD039BC3B14FF0E0234FF0805281
:10483000C3F8042DBFF34F8FBFF36F8F0020EFE756
:10484000002300932A4604212046FFF7EBFD0128B0
:1048500001D0FF20E4E70020E2E70020E0E708B510
:10486000416819B10120FEF7CCFB08BD0120FEF71D
:10487000BDFBFAE730B583B00023019310B30C46BB
:104880000546FFF744FFA0B101AA00212846FEF724
:1048900008FE012818D1019BC3B14FF0E0234FF06F
:1048A0008052C3F8042DBFF34F8FBFF36F8F0020EA
:1048B00006E021462846FEF721FD012808D1002008
:1048C00003B030BD8020FBE7FF20F9E70020F7E7C9
:1048D000FF20F5E710B582B0044600230193FFF7EF
:1048E00016FF98B101A92046FEF700FC01281AD155
:1048F000019BD3B14FF0E0234FF08052C3F8042D59
:10490000BFF34F8FBFF36F8F002008E000231A46DC
:1049100019462046FEF79AFA012802D0FF2002B07D
:1049200010BD0020FBE7FF20F9E70020F7E708B5FE
:1049300001B90121FFF7ACF9002008BD124A12F0BD
:10494000070F1ED0D11D21F00701C1F540631344AC
:104950000A460E480260002141601344083B23F0E0
:1049600007030B48036059601960991A516013607E
:10497000084B1960084B1960084B4FF000421A6051
:1049800070474FF44063E4E7200B00202C17002011
:104990001C0B0020281700202417002020170020BF
:1049A000154B1A461B688342FBD3516802EB010C7E
:1049B000844509D0416800EB010C634509D00360D0
:1049C000904218D010607047406801445160104612
:1049D000F0E710B4094C2468A3420AD05B6819447C
:1049E000416013681B680360904200D0106010BCE7
:1049F00070470460F8E770472C1700201C0B00205C
:104A000070B50546FFF726F8344B1B68A3B1344B4D
:104A10001B681D424AD135B1083515F0070F02D089
:104A200025F007050835002D42D02E4B1B68AB4200
:104A30004DD32D4A146804E0FFF780FFE7E72246D4
:104A40001C466368AB4202D22368002BF7D1234B8C
:104A50001B68A3423DD0166808362368136063685C
:104A60005B1B102B10D9601910F0070F08D04FF006
:104A7000500383F31188BFF36F8FBFF34F8FFEE7AF
:104A800043606560FFF78CFF626816490B689B1AEC
:104A90000B60164909688B4201D214490B60104B18
:104AA0001B68134363600023236002E0002600E0DC
:104AB0000026FFF771F816F0070F0CD04FF05003E7
:104AC00083F31188BFF36F8FBFF34F8FFEE700268C
:104AD000EFE70026EDE7304670BD00BF1C0B00205D
:104AE00020170020241700202C1700202817002052
:104AF00080B338B50446A0F1080550F8043C164AC6
:104B00001268134208D14FF0500383F31188BFF3AA
:104B10006F8FBFF34F8FFEE750F8081C41B14FF085
:104B2000500383F31188BFF36F8FBFF34F8FFEE7FE
:104B300023EA020340F8043CFEF78CFF54F8041CFF
:104B4000064A13680B4413602846FFF729FFFFF756
:104B500023F838BD704700BF20170020241700201D
:104B600082B0002301930D4B1B68B3F1FF3F08D0C7
:104B70004FF0500383F31188BFF36F8FBFF34F8F54
:104B8000FEE74FF0500383F31188BFF36F8FBFF33D
:104B90004F8F019B002BFCD002B070471800002003
:104BA00006480068006880F3088862B661B6BFF303
:104BB0004F8FBFF36F8F00DF00BF000008ED00E0F4
:104BC0004FF0807340F8043C21F0010140F8081CCC
:104BD000034B40F80C3C40F8202C4038704700BF95
:104BE000614B000800000000000000000000000011
:104BF000074B19680868B0E8F00F80F30988BFF325
:104C00006F8F4FF0000080F311884EF00D0E70474B
:104C1000300900204FF0500383F31188BFF36F8FEA
:104C2000BFF34F8F0B4A136801331360012B00D081
:104C300070474FF0E023D3F8043D13F0FF0FF7D097
:104C40004FF0500383F31188BFF36F8FBFF34F8F83
:104C5000FEE700BF18000020094B1B6843B94FF066
:104C6000500383F31188BFF36F8FBFF34F8FFEE7BD
:104C7000013B034A13600BB983F31188704700BFEF
:104C800018000020000000000000000000000000EC
:104C9000EFF30980BFF36F8F0D4B1A6820E9F00F17
:104CA00010602DE908404FF0500080F31188FFF7A5
:104CB00067F84FF0000080F31188BDE808401968DC
:104CC0000868B0E8F00F80F30988BFF36F8F704772
:104CD0003009002008B54FF0500383F31188BFF36B
:104CE0006F8FBFF34F8FFEF7CBFE28B14FF0E0235D
:104CF0004FF08052C3F8042D002383F3118808BDC0
:104D00004FF0E022002313619361054B1B680549B6
:104D1000A1FB03139B09013B5361072313617047F8
:104D200008000020D34D621010B582B02A4B1A78CB
:104D3000D2B20192FF221A701B78DBB28DF80330D9
:104D40009DF8033003F05003244A1370244B0722CC
:104D50001A6009E0224A1368013B13609DF8033092
:104D60005B00DBB28DF803309DF8033013F0800F49
:104D7000F0D11B4B1B68032B08D04FF0500383F37B
:104D80001188BFF36F8FBFF34F8FFEE71B02144AEA
:104D9000136003F4E0631360019BDBB20E4A1370EF
:104DA0004FF0E023D3F8202D42F47002C3F8202DF9
:104DB000D3F8202D42F07042C3F8202DFFF7A0FF5A
:104DC0000024084B1C60FFF7EBFEFEF7D9FFFFF74E
:104DD000C7FE204602B010BD00E400E034170020FA
:104DE0003817002018000020EFF305830F2B0FD990
:104DF000114A9B5CDBB2114A12789A4208D94FF0F3
:104E0000500383F31188BFF36F8FBFF34F8FFEE71B
:104E10004FF0E023D3F80C3D03F4E063084A126836
:104E2000934208D94FF0500383F31188BFF36F8F7B
:104E3000BFF34F8FFEE77047F0E300E03417002028
:104E400038170020FDF782FA0B480C490C4A002362
:104E500002E0D458C4500433C4188C42F9D3094A30
:104E6000094C002301E013600432A242FBD300F09E
:104E700045F8FCF7CDF8704700000020E000002066
:104E8000B47E0008E000002074170020FEE7000058
:104E90001FB514461A46094B05461B68D8684CB125
:104EA000074BCDE9013400912B46064900F014F878
:104EB00001F0E4F9044B1C46F3E700BF1C0000209E
:104EC000B87B0008C57B0008F37B0008014B18681D
:104ED000704700BF1C0000200EB403B5014603ABB1
:104EE000054853F8042B0068019300F0BFFB02B0A3
:104EF0005DF804EB03B070471C00002070B500267D
:104F00000C4D0D4C641BA410A64209D102F0D4FB39
:104F100000260A4D0A4C641BA410A64205D170BDA0
:104F200055F8043B98470136EEE755F8043B98479F
:104F30000136F2E7AC7E0008AC7E0008AC7E0008CB
:104F4000B07E0008024B0146186800F08BBA00BF23
:104F50001C0000200A44914200F1FF3300D1704749
:104F600010B511F8014B914203F8014FF9D110BD72
:104F700003460244934200D1704703F8011BF9E74E
:104F8000F7B5016804463B2911D93C22684601F077
:104F90007CF9019A63680099002A0B446360BBBFE7
:104FA0003C3203F1FF3322602260B8BF6360616866
:104FB0003B2911D93C22684601F067F9019AA368A0
:104FC0000099002A0B44A360BBBF3C3203F1FF33BE
:104FD00062606260B8BFA360A168172911D9182266
:104FE000684601F052F9019AE3680099002A0B44DF
:104FF000E360BBBF183203F1FF33A260A260B8BF09
:10500000E36021690B2911D90C22684601F03DF9B2
:10501000019A63690099002A0B446361BBBF0C329B
:1050200003F1FF3322612261B8BF636163699807AE
:1050300020D1642193FBF1F201FB1232E2B94FF46B
:10504000C87203F26C7393FBF2F102FB1133002B75
:1050500014BF1C231D23E268002A0FDC0B266420EA
:105060004FF4C875314FD4F80CC0BCF1000F31DDDE
:1050700003B0F0BD1C23EEE71D23ECE700276420FE
:105080004FF4C875294ED4E90312012A0CBF9C467F
:1050900056F822C06145EBDD0132A1EB0C010C2A70
:1050A000E1602261EFD163695A1C9107C4E904727F
:1050B00037D192FBF0F100FB1122002A33D103F229
:1050C0006D7393FBF5F205FB1233002B14BF1C2309
:1050D0001D23D8E7216901392161013114D16369A8
:1050E0005A1E9107C4E9046217D192FBF0F100FB4C
:1050F0001122A2B903F26B7393FBF5F205FB123395
:10510000002B14BF1C231D232269012A0CBF1A4641
:1051100057F822206244E260A5E71C23F4E71D2330
:10512000F2E71C23AFE71D23ADE700BFF87B0008C3
:105130002DE9F04F85B0074601F0B4FA81463846B4
:10514000FFF71EFFD7E900403C2303FB00444FF468
:105150006163B868BC4A03FB0044D7E9035352F8C3
:105160002320013D012B7E69154411DDB1070FD1CC
:10517000642296FBF2F302FB136343B94FF4C87247
:1051800006F26C7393FBF2F102FB113303B90135A4
:1051900044F6206206F51C5310339342FD6100F281
:1051A0005C81462E71DD462340F26D1C64214FF474
:1051B000C8709A0763D193FBF1F201FB1232002A07
:1051C00060D103F26C7292FBF0FE00FB1E22002AFB
:1051D00014BF62464FF4B77201339E421544E8D1C2
:1051E0009A4B4FEAE478C5FB034800F0F3FD00F06A
:1051F000FDFD974BD3F800B0BBF1000F39D0D7F8C5
:1052000020B07869D9F80430BBF1010F00F26C705E
:10521000DA46A8BF4FF0010A834278D1D9E90832B3
:10522000D9F85010D9F84CE05B1A029362EBE173A5
:105230000393D9F82820D9F84830B3EB020C6EEB71
:10524000E2706445019378EB000366DAD9F8003028
:10525000002B6FD0029B9C42039B78EB030303DB84
:10526000644578EB00036BDBBBF1000F4FF0000BE4
:105270006BDAD9F828100C1948EBE178A9E040F274
:105280006D12A9E74FF4B772A6E7A9D0452340F203
:105290006D1C64214FF4C87012E062BB93FBF1F205
:1052A00001FB123252BB03F26C7292FBF0FE00FB68
:1052B0001E22002A14BF62464FF4B772AD1A013B9A
:1052C0009E4203F00302E8DBDAB9642296FBF2F3B4
:1052D00002FB1363C3B94FF4C87206F26C7393FBFD
:1052E000F2F102FB1133002B40F26D1308BF4FF4B3
:1052F000B773ED1A74E740F26D12DFE74FF4B7723F
:10530000DCE740F26D13F4E74FF4B773F1E700F018
:10531000B7FC002882D1D34650E0019B5B1A019371
:105320004FEAE1736EEB030E019B9C4278EB0E0398
:10533000F1DB8BE7029B9C42039B78EB03038FDB43
:10534000BBF1000F3EDB4FF0010B8AEA0B0ABAF10A
:10535000010F33D1BBF1000F4ED0521A3B68141924
:10536000134438463B6048EBE278D7F80CA0FFF7CF
:1053700007FEFA68B2EB0A0220D0012A3EDC901C3C
:10538000D8BF0122FB691544D31840D5731E990775
:1053900037D1642293FBF2F102FB1133A3BB4FF42C
:1053A000C87306F26B7696FBF3F203FB1266002ECF
:1053B00040F26D1318BF4FF4B673FB61BBF1010FE0
:1053C0007FF457AF4FF0010BD9F850100C1948EB90
:1053D000E17800F005FD0723043595FBF3F3C3EBFB
:1053E000C303ED1A48BF0735C7F820B0BD6120469A
:1053F000414605B0BDE8F08F8A1AAFE74FF0FF32A3
:10540000C0E74FF4B673D8E740F26D13D5E7B207A3
:1054100017D1642196FBF1F201FB1262D2B94FF46D
:10542000C87206F26C7696FBF2F102FB1166002E52
:1054300040F26D1208BF4FF4B7729342A8BF9B1A97
:10544000BBE740F26D12F8E7287C000880510100AC
:10545000601700204FF4B772EFE74FF0FF34A0461B
:10546000C5E700BF38B50546002940D051F8043CD7
:105470000C1F002BB8BFE41801F0AAF91C4A1368EE
:1054800033B9636014602846BDE8384001F0A6B91E
:10549000A34208D9206821188B4201BF19685B68B4
:1054A00009182160EDE71A465B680BB1A342FAD9EF
:1054B00011685018A0420BD1206801445018834253
:1054C0001160E0D118685B68014411605360DAE74D
:1054D00002D90C232B60D6E7206821188B4201BF2C
:1054E00019685B680918216063605460CBE738BDB8
:1054F0003C17002070B50E4E0C463168054611B9B8
:1055000000F07AFB30602146284600F075FB431C12
:105510000AD0C41C24F00304A04207D0211A284654
:1055200000F06AFB013001D14FF0FF34204670BD1E
:10553000401700202DE9F041CD1C25F0030508356A
:105540000C2D38BF0C25002D074601DBA94205D9DB
:105550000C2300263B603046BDE8F0812E4E01F062
:1055600037F933681C4634BB29463846FFF7C2FF7B
:10557000431C04464DD134682646002E40D1236892
:105580003146384604EB030800F036FB80453AD13B
:10559000216803356D1A25F0030508350C2D38BF39
:1055A0000C2538462946FFF7A5FF01302BD023688C
:1055B0002B4423600EE02268521B1ED40B2A16D9FE
:1055C0006119A342256018BF5960636808BF316044
:1055D00062514B60384604F10B0601F0FFF826F0EB
:1055E0000706231DF21AB6D09B1BA350B3E76268CF
:1055F000A3420CBF32605A60ECE723466468B2E70E
:1056000034467668B9E70C2338463B6001F0E6F88B
:10561000A1E72560DEE700BF3C170020936810B4C7
:10562000013B002B936007DA9469A34201DB0A294E
:1056300002D110BC00F062BD1368581C10601970D4
:10564000084610BC7047F8B506460F461446D518F4
:10565000AC4201D1002007E03A46304614F8011B65
:10566000FFF7DCFF431CF3D1F8BD00002DE9F04F3C
:105670000D461446984606469DB018B183690BB98D
:1056800000F02EFF894B9D421BD175686B6ED907C8
:1056900005D4AB899A0502D4A86D01F009F8AB894D
:1056A0001B0701D52B69EBB92946304600F078FD80
:1056B000C0B16B6EDC070ED54FF0FF301DB0BDE8FA
:1056C000F08F7B4B9D4201D1B568DFE7794B9D425E
:1056D00008BFF568DAE7AB899805EDD4A86D00F04E
:1056E000E9FFE9E70023099320238DF829303023CF
:1056F0004FF00109CDF80C80DFF8BC818DF82A301D
:1057000023469A4613F8012B0AB1252AF9D1BAEBA0
:10571000040B0BD05B46224629463046FFF793FF29
:10572000013000F0AA80099A5A4409929AF8003090
:10573000002B00F0A28000234FF0FF32CDE90523BB
:105740000AF1010A049307938DF853301A935446D3
:10575000052214F8011B584801F012F8049AD8B930
:10576000D10644BF20238DF85330130744BF2B23A9
:105770008DF853309AF800302A2B15D0544600206B
:105780004FF00A0C079A214611F8013B303B092BD8
:105790004ED9B0B1079214E0A0EB080309FA03F365
:1057A0001343A2460493D2E7039B191D1B68039180
:1057B000002BBBBF5B4242F0020207930793B8BFC6
:1057C000049223782E2B0CD163782A2B35D1039B9E
:1057D00002341A1D1B680392002BB8BF4FF0FF3331
:1057E0000593DFF8D8A003225046217800F0C8FFC7
:1057F00040B14023A0EB0A0003FA00F0049B0134FF
:105800000343049314F8011B06222D488DF8281039
:1058100000F0B6FF00283FD02A4B1BBB039B073389
:1058200023F0070308330393099B3B44099367E77D
:105830000C4601200CFB0232A5E700234FF00A0CB6
:10584000194601340593204610F8012B303A092AF5
:1058500003D9002BC5D00591C3E7044601230CFBF7
:105860000121F0E703AB00932A463046164B04A90A
:10587000AFF300800746781CD6D16B6ED90705D4EC
:10588000AB899A0502D4A86D00F014FFAB895B06C2
:105890003FF512AF099811E703AB00932A46304653
:1058A000094B04A900F082F8E4E700BF487D000836
:1058B000687D0008287D0008B87C0008BE7C0008D0
:1058C000C27C000800000000475600082DE9F047A0
:1058D000164699468A680B6907469342B8BF134635
:1058E000336091F843200C46DDF820800AB1013383
:1058F00033602368990642BF3368023333602568FA
:1059000015F0060506D104F1190AE36832689B1AFE
:10591000AB4228DC94F84320131E226818BF0123F1
:1059200092062DD44946384604F14302C04701305F
:1059300020D02368E56803F00603042B18BF002578
:1059400032684FF00006A36808BFAD1A226908BF8D
:1059500025EAE5759342C4BF9B1AED181A34B54287
:105960001AD1002008E00123524649463846C04774
:10597000013003D14FF0FF30BDE8F0870135C4E7B7
:105980003020E11881F843005A1C94F84510224455
:10599000023382F84310C5E70123224649463846C0
:1059A000C0470130E6D00136D9E700002DE9FF47B6
:1059B0000F7E9146782F80460C469A460C9D01F149
:1059C000430207D8622F0AD8002F00F0D980582F41
:1059D00000F0A48004F1420584F842703AE0A7F197
:1059E0006303152BF6D801A151F823F0455A00089E
:1059F000595A0008D5590008D5590008D55900084A
:105A0000D5590008595A0008D5590008D559000839
:105A1000D5590008D5590008675B0008895A000865
:105A2000495B0008D5590008D5590008895B000872
:105A3000D5590008895A0008D5590008D5590008D9
:105A4000515B00082B681A1D1B682A6004F142058F
:105A500084F842300123A4E020682968060601F199
:105A600004030AD50E682B60002E03DA2D2376423C
:105A700084F843300A235E4819E00E6810F0400FA6
:105A80002B6018BF36B2EFE72B682068191D29601C
:105A9000010601D51E6802E04606FBD51E886F2F61
:105AA0000CBF08230A235248002184F8431065687C
:105AB000002DA8BF2168A560A4BF21F004012160CA
:105AC0000EB9002D4DD01546B6FBF3F103FB11675F
:105AD000C75D05F8017D3746BB420E46F4D9082B59
